{
  "_format": "hh-sol-artifact-1",
  "contractName": "BuyMeACoffee",
  "sourceName": "contracts/BuyMeACoffee.sol",
  "abi": [
    {
      "inputs": [],
      "stateMutability": "nonpayable",
      "type": "constructor"
    },
    {
      "anonymous": false,
      "inputs": [
        {
          "indexed": true,
          "internalType": "address",
          "name": "from",
          "type": "address"
        },
        {
          "indexed": false,
          "internalType": "uint256",
          "name": "timestamp",
          "type": "uint256"
        },
        {
          "indexed": false,
          "internalType": "string",
          "name": "name",
          "type": "string"
        },
        {
          "indexed": false,
          "internalType": "string",
          "name": "message",
          "type": "string"
        }
      ],
      "name": "NewMemo",
      "type": "event"
    },
    {
      "inputs": [
        {
          "internalType": "string",
          "name": "_name",
          "type": "string"
        },
        {
          "internalType": "string",
          "name": "_message",
          "type": "string"
        }
      ],
      "name": "buyCoffee",
      "outputs": [],
      "stateMutability": "payable",
      "type": "function"
    },
    {
      "inputs": [],
      "name": "getMemos",
      "outputs": [
        {
          "components": [
            {
              "internalType": "address",
              "name": "from",
              "type": "address"
            },
            {
              "internalType": "uint256",
              "name": "timestamp",
              "type": "uint256"
            },
            {
              "internalType": "string",
              "name": "name",
              "type": "string"
            },
            {
              "internalType": "string",
              "name": "message",
              "type": "string"
            }
          ],
          "internalType": "struct BuyMeACoffee.Memo[]",
          "name": "",
          "type": "tuple[]"
        }
      ],
      "stateMutability": "view",
      "type": "function"
    },
    {
      "inputs": [
        {
          "internalType": "address payable",
          "name": "newAddress",
          "type": "address"
        }
      ],
      "name": "updateWithdrawAddress",
      "outputs": [],
      "stateMutability": "nonpayable",
      "type": "function"
    },
    {
      "inputs": [],
      "name": "withdrawTips",
      "outputs": [],
      "stateMutability": "nonpayable",
      "type": "function"
    }
  ],
  "bytecode": "0x608060405234801561001057600080fd5b50336000806101000a81548173ffffffffffffffffffffffffffffffffffffffff021916908373ffffffffffffffffffffffffffffffffffffffff160217905550610bb6806100606000396000f3fe60806040526004361061003f5760003560e01c8063204206e1146100445780633aaa74b214610060578063865c517214610077578063a3f4b573146100a2575b600080fd5b61005e6004803603810190610059919061067a565b6100cb565b005b34801561006c57600080fd5b50610075610253565b005b34801561008357600080fd5b5061008c6102b3565b604051610099919061089b565b60405180910390f35b3480156100ae57600080fd5b506100c960048036038101906100c49190610651565b610496565b005b6000341161010e576040517f08c379a0000000000000000000000000000000000000000000000000000000008152600401610105906108bd565b60405180910390fd5b600160405180608001604052803373ffffffffffffffffffffffffffffffffffffffff16815260200142815260200184815260200183815250908060018154018082558091505060019003906000526020600020906004020160009091909190915060008201518160000160006101000a81548173ffffffffffffffffffffffffffffffffffffffff021916908373ffffffffffffffffffffffffffffffffffffffff1602179055506020820151816001015560408201518160020190805190602001906101dd929190610531565b5060608201518160030190805190602001906101fa929190610531565b5050503373ffffffffffffffffffffffffffffffffffffffff167fc56140e05f516509ae28110e0f72e17558a7561630dad2647c3ae87d986e365c428484604051610247939291906108dd565b60405180910390a25050565b60008054906101000a900473ffffffffffffffffffffffffffffffffffffffff1673ffffffffffffffffffffffffffffffffffffffff166108fc479081150290604051600060405180830381858888f193505050506102b157600080fd5b565b60606001805480602002602001604051908101604052809291908181526020016000905b8282101561048d57838290600052602060002090600402016040518060800160405290816000820160009054906101000a900473ffffffffffffffffffffffffffffffffffffffff1673ffffffffffffffffffffffffffffffffffffffff1673ffffffffffffffffffffffffffffffffffffffff1681526020016001820154815260200160028201805461036a90610a6e565b80601f016020809104026020016040519081016040528092919081815260200182805461039690610a6e565b80156103e35780601f106103b8576101008083540402835291602001916103e3565b820191906000526020600020905b8154815290600101906020018083116103c657829003601f168201915b505050505081526020016003820180546103fc90610a6e565b80601f016020809104026020016040519081016040528092919081815260200182805461042890610a6e565b80156104755780601f1061044a57610100808354040283529160200191610475565b820191906000526020600020905b81548152906001019060200180831161045857829003601f168201915b505050505081525050815260200190600101906102d7565b50505050905090565b60008054906101000a900473ffffffffffffffffffffffffffffffffffffffff1673ffffffffffffffffffffffffffffffffffffffff163373ffffffffffffffffffffffffffffffffffffffff16146104ee57600080fd5b806000806101000a81548173ffffffffffffffffffffffffffffffffffffffff021916908373ffffffffffffffffffffffffffffffffffffffff16021790555050565b82805461053d90610a6e565b90600052602060002090601f01602090048101928261055f57600085556105a6565b82601f1061057857805160ff19168380011785556105a6565b828001600101855582156105a6579182015b828111156105a557825182559160200191906001019061058a565b5b5090506105b391906105b7565b5090565b5b808211156105d05760008160009055506001016105b8565b5090565b60006105e76105e284610947565b610922565b9050828152602081018484840111156105ff57600080fd5b61060a848285610a2c565b509392505050565b60008135905061062181610b69565b92915050565b600082601f83011261063857600080fd5b81356106488482602086016105d4565b91505092915050565b60006020828403121561066357600080fd5b600061067184828501610612565b91505092915050565b6000806040838503121561068d57600080fd5b600083013567ffffffffffffffff8111156106a757600080fd5b6106b385828601610627565b925050602083013567ffffffffffffffff8111156106d057600080fd5b6106dc85828601610627565b9150509250929050565b60006106f28383610813565b905092915050565b610703816109de565b82525050565b600061071482610988565b61071e81856109ab565b93508360208202850161073085610978565b8060005b8581101561076c578484038952815161074d85826106e6565b94506107588361099e565b925060208a01995050600181019050610734565b50829750879550505050505092915050565b600061078982610993565b61079381856109bc565b93506107a3818560208601610a3b565b6107ac81610b2f565b840191505092915050565b60006107c282610993565b6107cc81856109cd565b93506107dc818560208601610a3b565b6107e581610b2f565b840191505092915050565b60006107fd601a836109cd565b915061080882610b40565b602082019050919050565b600060808301600083015161082b60008601826106fa565b50602083015161083e602086018261087d565b5060408301518482036040860152610856828261077e565b91505060608301518482036060860152610870828261077e565b9150508091505092915050565b61088681610a22565b82525050565b61089581610a22565b82525050565b600060208201905081810360008301526108b58184610709565b905092915050565b600060208201905081810360008301526108d6816107f0565b9050919050565b60006060820190506108f2600083018661088c565b818103602083015261090481856107b7565b9050818103604083015261091881846107b7565b9050949350505050565b600061092c61093d565b90506109388282610aa0565b919050565b6000604051905090565b600067ffffffffffffffff82111561096257610961610b00565b5b61096b82610b2f565b9050602081019050919050565b6000819050602082019050919050565b600081519050919050565b600081519050919050565b6000602082019050919050565b600082825260208201905092915050565b600082825260208201905092915050565b600082825260208201905092915050565b60006109e982610a02565b9050919050565b60006109fb82610a02565b9050919050565b600073ffffffffffffffffffffffffffffffffffffffff82169050919050565b6000819050919050565b82818337600083830152505050565b60005b83811015610a59578082015181840152602081019050610a3e565b83811115610a68576000848401525b50505050565b60006002820490506001821680610a8657607f821691505b60208210811415610a9a57610a99610ad1565b5b50919050565b610aa982610b2f565b810181811067ffffffffffffffff82111715610ac857610ac7610b00565b5b80604052505050565b7f4e487b7100000000000000000000000000000000000000000000000000000000600052602260045260246000fd5b7f4e487b7100000000000000000000000000000000000000000000000000000000600052604160045260246000fd5b6000601f19601f8301169050919050565b7f63616e27742062757920636f6666656520666f72206672656521000000000000600082015250565b610b72816109f0565b8114610b7d57600080fd5b5056fea2646970667358221220a12bdca8eba53b283649f203eb81d7b8b3de9c955ae25fb942f856e789f81de864736f6c63430008040033",
  "linkReferences": {},
  "deployedLinkReferences": {}
}