{
  "_format": "hh-sol-artifact-1",
  "contractName": "CasinoWithoutFrontrunningDefense",
  "sourceName": "contracts/CasinoWithoutFrontrunningDefense.sol",
  "abi": [
    {
      "anonymous": false,
      "inputs": [
        {
          "indexed": true,
          "internalType": "uint256",
          "name": "_commitment",
          "type": "uint256"
        },
        {
          "indexed": true,
          "internalType": "address",
          "name": "_sideA",
          "type": "address"
        }
      ],
      "name": "BetAccepted",
      "type": "event"
    },
    {
      "anonymous": false,
      "inputs": [
        {
          "indexed": true,
          "internalType": "uint256",
          "name": "_commitment",
          "type": "uint256"
        },
        {
          "indexed": false,
          "internalType": "uint256",
          "name": "value",
          "type": "uint256"
        }
      ],
      "name": "BetProposed",
      "type": "event"
    },
    {
      "anonymous": false,
      "inputs": [
        {
          "indexed": true,
          "internalType": "uint256",
          "name": "_commitment",
          "type": "uint256"
        },
        {
          "indexed": false,
          "internalType": "address",
          "name": "winner",
          "type": "address"
        },
        {
          "indexed": false,
          "internalType": "address",
          "name": "loser",
          "type": "address"
        },
        {
          "indexed": false,
          "internalType": "uint256",
          "name": "value",
          "type": "uint256"
        }
      ],
      "name": "BetSettled",
      "type": "event"
    },
    {
      "inputs": [
        {
          "internalType": "uint256",
          "name": "_commitment",
          "type": "uint256"
        },
        {
          "internalType": "uint256",
          "name": "_random",
          "type": "uint256"
        }
      ],
      "name": "acceptBet",
      "outputs": [],
      "stateMutability": "payable",
      "type": "function"
    },
    {
      "inputs": [
        {
          "internalType": "uint256",
          "name": "",
          "type": "uint256"
        }
      ],
      "name": "acceptedBet",
      "outputs": [
        {
          "internalType": "address",
          "name": "sideB",
          "type": "address"
        },
        {
          "internalType": "uint256",
          "name": "acceptedAt",
          "type": "uint256"
        },
        {
          "internalType": "uint256",
          "name": "randomB",
          "type": "uint256"
        }
      ],
      "stateMutability": "view",
      "type": "function"
    },
    {
      "inputs": [
        {
          "internalType": "uint256",
          "name": "_commitment",
          "type": "uint256"
        }
      ],
      "name": "proposeBet",
      "outputs": [],
      "stateMutability": "payable",
      "type": "function"
    },
    {
      "inputs": [
        {
          "internalType": "uint256",
          "name": "",
          "type": "uint256"
        }
      ],
      "name": "proposedBet",
      "outputs": [
        {
          "internalType": "address",
          "name": "sideA",
          "type": "address"
        },
        {
          "internalType": "uint256",
          "name": "value",
          "type": "uint256"
        },
        {
          "internalType": "uint256",
          "name": "placedAt",
          "type": "uint256"
        },
        {
          "internalType": "bool",
          "name": "accepted",
          "type": "bool"
        }
      ],
      "stateMutability": "view",
      "type": "function"
    },
    {
      "inputs": [
        {
          "internalType": "uint256",
          "name": "_random",
          "type": "uint256"
        }
      ],
      "name": "reveal",
      "outputs": [],
      "stateMutability": "nonpayable",
      "type": "function"
    }
  ],
  "bytecode": "0x608060405234801561001057600080fd5b5061107f806100206000396000f3fe60806040526004361061004a5760003560e01c80630a3f297a1461004f578063427051c81461008f57806386e30f2e146100ce578063c2ca0ac5146100ea578063d43faafd14610113575b600080fd5b34801561005b57600080fd5b506100766004803603810190610071919061099a565b61012f565b6040516100869493929190610a32565b60405180910390f35b34801561009b57600080fd5b506100b660048036038101906100b1919061099a565b61018c565b6040516100c593929190610a77565b60405180910390f35b6100e860048036038101906100e39190610aae565b6101d6565b005b3480156100f657600080fd5b50610111600480360381019061010c919061099a565b61046a565b005b61012d6004803603810190610128919061099a565b610801565b005b60006020528060005260406000206000915090508060000160009054906101000a900473ffffffffffffffffffffffffffffffffffffffff16908060010154908060020154908060030160009054906101000a900460ff16905084565b60016020528060005260406000206000915090508060000160009054906101000a900473ffffffffffffffffffffffffffffffffffffffff16908060010154908060020154905083565b60008083815260200190815260200160002060030160009054906101000a900460ff1615610239576040517f08c379a000000000000000000000000000000000000000000000000000000000815260040161023090610b4b565b60405180910390fd5b600073ffffffffffffffffffffffffffffffffffffffff1660008084815260200190815260200160002060000160009054906101000a900473ffffffffffffffffffffffffffffffffffffffff1673ffffffffffffffffffffffffffffffffffffffff16036102dd576040517f08c379a00000000000000000000000000000000000000000000000000000000081526004016102d490610bb7565b60405180910390fd5b600080838152602001908152602001600020600101543414610334576040517f08c379a000000000000000000000000000000000000000000000000000000000815260040161032b90610c49565b60405180910390fd5b336001600084815260200190815260200160002060000160006101000a81548173ffffffffffffffffffffffffffffffffffffffff021916908373ffffffffffffffffffffffffffffffffffffffff160217905550426001600084815260200190815260200160002060010181905550806001600084815260200190815260200160002060020181905550600160008084815260200190815260200160002060030160006101000a81548160ff02191690831515021790555060008083815260200190815260200160002060000160009054906101000a900473ffffffffffffffffffffffffffffffffffffffff1673ffffffffffffffffffffffffffffffffffffffff16827fb727a22534e43d337addefe6245e691859b29f7bf356bc7e6d77ff92070fe12460405160405180910390a35050565b60008160405160200161047d9190610c8a565b6040516020818303038152906040528051906020012060001c9050600033905060006001600084815260200190815260200160002060000160009054906101000a900473ffffffffffffffffffffffffffffffffffffffff169050600060016000858152602001908152602001600020600201548518905060008060008681526020019081526020016000206001015490503373ffffffffffffffffffffffffffffffffffffffff1660008087815260200190815260200160002060000160009054906101000a900473ffffffffffffffffffffffffffffffffffffffff1673ffffffffffffffffffffffffffffffffffffffff16146105b2576040517f08c379a00000000000000000000000000000000000000000000000000000000081526004016105a990610d17565b60405180910390fd5b60008086815260200190815260200160002060030160009054906101000a900460ff16610614576040517f08c379a000000000000000000000000000000000000000000000000000000000815260040161060b90610d83565b60405180910390fd5b60006002836106239190610dd2565b036106bc578373ffffffffffffffffffffffffffffffffffffffff166108fc82600261064f9190610e32565b9081150290604051600060405180830381858888f1935050505015801561067a573d6000803e3d6000fd5b50847f0de94fe793c61cadb0d5993f7621dc7abda95f3f6e7eac8044a5a9b17ba099d08585846040516106af93929190610ed3565b60405180910390a261074c565b8273ffffffffffffffffffffffffffffffffffffffff166108fc8260026106e39190610e32565b9081150290604051600060405180830381858888f1935050505015801561070e573d6000803e3d6000fd5b50847f0de94fe793c61cadb0d5993f7621dc7abda95f3f6e7eac8044a5a9b17ba099d084868460405161074393929190610ed3565b60405180910390a25b600080868152602001908152602001600020600080820160006101000a81549073ffffffffffffffffffffffffffffffffffffffff0219169055600182016000905560028201600090556003820160006101000a81549060ff0219169055505060016000868152602001908152602001600020600080820160006101000a81549073ffffffffffffffffffffffffffffffffffffffff0219169055600182016000905560028201600090555050505050505050565b60008060008381526020019081526020016000206001015414610859576040517f08c379a000000000000000000000000000000000000000000000000000000000815260040161085090610f7c565b60405180910390fd5b6000341161089c576040517f08c379a00000000000000000000000000000000000000000000000000000000081526004016108939061100e565b60405180910390fd5b3360008083815260200190815260200160002060000160006101000a81548173ffffffffffffffffffffffffffffffffffffffff021916908373ffffffffffffffffffffffffffffffffffffffff16021790555034600080838152602001908152602001600020600101819055504260008083815260200190815260200160002060020181905550807fbe20caab9fd377d44064d0b07b3f918ac14a5649351da4e9e27f29989d96a8e834604051610954919061102e565b60405180910390a250565b600080fd5b6000819050919050565b61097781610964565b811461098257600080fd5b50565b6000813590506109948161096e565b92915050565b6000602082840312156109b0576109af61095f565b5b60006109be84828501610985565b91505092915050565b600073ffffffffffffffffffffffffffffffffffffffff82169050919050565b60006109f2826109c7565b9050919050565b610a02816109e7565b82525050565b610a1181610964565b82525050565b60008115159050919050565b610a2c81610a17565b82525050565b6000608082019050610a4760008301876109f9565b610a546020830186610a08565b610a616040830185610a08565b610a6e6060830184610a23565b95945050505050565b6000606082019050610a8c60008301866109f9565b610a996020830185610a08565b610aa66040830184610a08565b949350505050565b60008060408385031215610ac557610ac461095f565b5b6000610ad385828601610985565b9250506020610ae485828601610985565b9150509250929050565b600082825260208201905092915050565b7f4265742068617320616c7265616479206265656e206163636570746564000000600082015250565b6000610b35601d83610aee565b9150610b4082610aff565b602082019050919050565b60006020820190508181036000830152610b6481610b28565b9050919050565b7f4e6f626f6479206d616465207468617420626574000000000000000000000000600082015250565b6000610ba1601483610aee565b9150610bac82610b6b565b602082019050919050565b60006020820190508181036000830152610bd081610b94565b9050919050565b7f4e65656420746f20626574207468652073616d6520616d6f756e74206173207360008201527f6964654100000000000000000000000000000000000000000000000000000000602082015250565b6000610c33602483610aee565b9150610c3e82610bd7565b604082019050919050565b60006020820190508181036000830152610c6281610c26565b9050919050565b6000819050919050565b610c84610c7f82610964565b610c69565b82525050565b6000610c968284610c73565b60208201915081905092915050565b7f4e6f7420612062657420796f7520706c61636564206f722077726f6e6720766160008201527f6c75650000000000000000000000000000000000000000000000000000000000602082015250565b6000610d01602383610aee565b9150610d0c82610ca5565b604082019050919050565b60006020820190508181036000830152610d3081610cf4565b9050919050565b7f42657420686173206e6f74206265656e20616363657074656420796574000000600082015250565b6000610d6d601d83610aee565b9150610d7882610d37565b602082019050919050565b60006020820190508181036000830152610d9c81610d60565b9050919050565b7f4e487b7100000000000000000000000000000000000000000000000000000000600052601260045260246000fd5b6000610ddd82610964565b9150610de883610964565b925082610df857610df7610da3565b5b828206905092915050565b7f4e487b7100000000000000000000000000000000000000000000000000000000600052601160045260246000fd5b6000610e3d82610964565b9150610e4883610964565b9250828202610e5681610964565b91508282048414831517610e6d57610e6c610e03565b5b5092915050565b6000819050919050565b6000610e99610e94610e8f846109c7565b610e74565b6109c7565b9050919050565b6000610eab82610e7e565b9050919050565b6000610ebd82610ea0565b9050919050565b610ecd81610eb2565b82525050565b6000606082019050610ee86000830186610ec4565b610ef56020830185610ec4565b610f026040830184610a08565b949350505050565b7f746865726520697320616c7265616479206120626574206f6e2074686174206360008201527f6f6d6d69746d656e740000000000000000000000000000000000000000000000602082015250565b6000610f66602983610aee565b9150610f7182610f0a565b604082019050919050565b60006020820190508181036000830152610f9581610f59565b9050919050565b7f796f75206e65656420746f2061637475616c6c792062657420736f6d6574686960008201527f6e67000000000000000000000000000000000000000000000000000000000000602082015250565b6000610ff8602283610aee565b915061100382610f9c565b604082019050919050565b6000602082019050818103600083015261102781610feb565b9050919050565b60006020820190506110436000830184610a08565b9291505056fea264697066735822122036c3ef64e13e575dffe6b19686690565ca49cdc30812a053d469413613e7058164736f6c63430008130033",
  "linkReferences": {},
  "deployedLinkReferences": {}
}