{
  "_format": "hh-sol-artifact-1",
  "contractName": "ChainBattlesLevels",
  "sourceName": "contracts/ChainBattlesLevels.sol",
  "abi": [
    {
      "inputs": [],
      "stateMutability": "nonpayable",
      "type": "constructor"
    },
    {
      "anonymous": false,
      "inputs": [
        {
          "indexed": true,
          "internalType": "address",
          "name": "owner",
          "type": "address"
        },
        {
          "indexed": true,
          "internalType": "address",
          "name": "approved",
          "type": "address"
        },
        {
          "indexed": true,
          "internalType": "uint256",
          "name": "tokenId",
          "type": "uint256"
        }
      ],
      "name": "Approval",
      "type": "event"
    },
    {
      "anonymous": false,
      "inputs": [
        {
          "indexed": true,
          "internalType": "address",
          "name": "owner",
          "type": "address"
        },
        {
          "indexed": true,
          "internalType": "address",
          "name": "operator",
          "type": "address"
        },
        {
          "indexed": false,
          "internalType": "bool",
          "name": "approved",
          "type": "bool"
        }
      ],
      "name": "ApprovalForAll",
      "type": "event"
    },
    {
      "anonymous": false,
      "inputs": [
        {
          "indexed": false,
          "internalType": "uint256",
          "name": "_fromTokenId",
          "type": "uint256"
        },
        {
          "indexed": false,
          "internalType": "uint256",
          "name": "_toTokenId",
          "type": "uint256"
        }
      ],
      "name": "BatchMetadataUpdate",
      "type": "event"
    },
    {
      "anonymous": false,
      "inputs": [
        {
          "indexed": false,
          "internalType": "uint256",
          "name": "_tokenId",
          "type": "uint256"
        }
      ],
      "name": "MetadataUpdate",
      "type": "event"
    },
    {
      "anonymous": false,
      "inputs": [
        {
          "indexed": true,
          "internalType": "address",
          "name": "from",
          "type": "address"
        },
        {
          "indexed": true,
          "internalType": "address",
          "name": "to",
          "type": "address"
        },
        {
          "indexed": true,
          "internalType": "uint256",
          "name": "tokenId",
          "type": "uint256"
        }
      ],
      "name": "Transfer",
      "type": "event"
    },
    {
      "inputs": [
        {
          "internalType": "address",
          "name": "to",
          "type": "address"
        },
        {
          "internalType": "uint256",
          "name": "tokenId",
          "type": "uint256"
        }
      ],
      "name": "approve",
      "outputs": [],
      "stateMutability": "nonpayable",
      "type": "function"
    },
    {
      "inputs": [
        {
          "internalType": "address",
          "name": "owner",
          "type": "address"
        }
      ],
      "name": "balanceOf",
      "outputs": [
        {
          "internalType": "uint256",
          "name": "",
          "type": "uint256"
        }
      ],
      "stateMutability": "view",
      "type": "function"
    },
    {
      "inputs": [
        {
          "internalType": "uint256",
          "name": "tokenId",
          "type": "uint256"
        }
      ],
      "name": "generateCharacter",
      "outputs": [
        {
          "internalType": "string",
          "name": "",
          "type": "string"
        }
      ],
      "stateMutability": "view",
      "type": "function"
    },
    {
      "inputs": [
        {
          "internalType": "uint256",
          "name": "tokenId",
          "type": "uint256"
        }
      ],
      "name": "getApproved",
      "outputs": [
        {
          "internalType": "address",
          "name": "",
          "type": "address"
        }
      ],
      "stateMutability": "view",
      "type": "function"
    },
    {
      "inputs": [
        {
          "internalType": "uint256",
          "name": "tokenId",
          "type": "uint256"
        }
      ],
      "name": "getLevels",
      "outputs": [
        {
          "internalType": "string",
          "name": "",
          "type": "string"
        }
      ],
      "stateMutability": "view",
      "type": "function"
    },
    {
      "inputs": [
        {
          "internalType": "uint256",
          "name": "tokenId",
          "type": "uint256"
        }
      ],
      "name": "getTokenURI",
      "outputs": [
        {
          "internalType": "string",
          "name": "",
          "type": "string"
        }
      ],
      "stateMutability": "view",
      "type": "function"
    },
    {
      "inputs": [
        {
          "internalType": "address",
          "name": "owner",
          "type": "address"
        },
        {
          "internalType": "address",
          "name": "operator",
          "type": "address"
        }
      ],
      "name": "isApprovedForAll",
      "outputs": [
        {
          "internalType": "bool",
          "name": "",
          "type": "bool"
        }
      ],
      "stateMutability": "view",
      "type": "function"
    },
    {
      "inputs": [],
      "name": "mint",
      "outputs": [],
      "stateMutability": "nonpayable",
      "type": "function"
    },
    {
      "inputs": [],
      "name": "name",
      "outputs": [
        {
          "internalType": "string",
          "name": "",
          "type": "string"
        }
      ],
      "stateMutability": "view",
      "type": "function"
    },
    {
      "inputs": [
        {
          "internalType": "uint256",
          "name": "tokenId",
          "type": "uint256"
        }
      ],
      "name": "ownerOf",
      "outputs": [
        {
          "internalType": "address",
          "name": "",
          "type": "address"
        }
      ],
      "stateMutability": "view",
      "type": "function"
    },
    {
      "inputs": [
        {
          "internalType": "address",
          "name": "from",
          "type": "address"
        },
        {
          "internalType": "address",
          "name": "to",
          "type": "address"
        },
        {
          "internalType": "uint256",
          "name": "tokenId",
          "type": "uint256"
        }
      ],
      "name": "safeTransferFrom",
      "outputs": [],
      "stateMutability": "nonpayable",
      "type": "function"
    },
    {
      "inputs": [
        {
          "internalType": "address",
          "name": "from",
          "type": "address"
        },
        {
          "internalType": "address",
          "name": "to",
          "type": "address"
        },
        {
          "internalType": "uint256",
          "name": "tokenId",
          "type": "uint256"
        },
        {
          "internalType": "bytes",
          "name": "data",
          "type": "bytes"
        }
      ],
      "name": "safeTransferFrom",
      "outputs": [],
      "stateMutability": "nonpayable",
      "type": "function"
    },
    {
      "inputs": [
        {
          "internalType": "address",
          "name": "operator",
          "type": "address"
        },
        {
          "internalType": "bool",
          "name": "approved",
          "type": "bool"
        }
      ],
      "name": "setApprovalForAll",
      "outputs": [],
      "stateMutability": "nonpayable",
      "type": "function"
    },
    {
      "inputs": [
        {
          "internalType": "bytes4",
          "name": "interfaceId",
          "type": "bytes4"
        }
      ],
      "name": "supportsInterface",
      "outputs": [
        {
          "internalType": "bool",
          "name": "",
          "type": "bool"
        }
      ],
      "stateMutability": "view",
      "type": "function"
    },
    {
      "inputs": [],
      "name": "symbol",
      "outputs": [
        {
          "internalType": "string",
          "name": "",
          "type": "string"
        }
      ],
      "stateMutability": "view",
      "type": "function"
    },
    {
      "inputs": [
        {
          "internalType": "uint256",
          "name": "",
          "type": "uint256"
        }
      ],
      "name": "tokenIdToLevels",
      "outputs": [
        {
          "internalType": "uint256",
          "name": "",
          "type": "uint256"
        }
      ],
      "stateMutability": "view",
      "type": "function"
    },
    {
      "inputs": [
        {
          "internalType": "uint256",
          "name": "tokenId",
          "type": "uint256"
        }
      ],
      "name": "tokenURI",
      "outputs": [
        {
          "internalType": "string",
          "name": "",
          "type": "string"
        }
      ],
      "stateMutability": "view",
      "type": "function"
    },
    {
      "inputs": [
        {
          "internalType": "uint256",
          "name": "tokenId",
          "type": "uint256"
        }
      ],
      "name": "train",
      "outputs": [],
      "stateMutability": "nonpayable",
      "type": "function"
    },
    {
      "inputs": [
        {
          "internalType": "address",
          "name": "from",
          "type": "address"
        },
        {
          "internalType": "address",
          "name": "to",
          "type": "address"
        },
        {
          "internalType": "uint256",
          "name": "tokenId",
          "type": "uint256"
        }
      ],
      "name": "transferFrom",
      "outputs": [],
      "stateMutability": "nonpayable",
      "type": "function"
    }
  ],
  "bytecode": "0x60806040523480156200001157600080fd5b506040518060400160405280601481526020017f436861696e20426174746c6573204c6576656c730000000000000000000000008152506040518060400160405280600581526020017f4342544c53000000000000000000000000000000000000000000000000000000815250816000908051906020019062000096929190620000b8565b508060019080519060200190620000af929190620000b8565b505050620001cd565b828054620000c69062000197565b90600052602060002090601f016020900481019282620000ea576000855562000136565b82601f106200010557805160ff191683800117855562000136565b8280016001018555821562000136579182015b828111156200013557825182559160200191906001019062000118565b5b50905062000145919062000149565b5090565b5b80821115620001645760008160009055506001016200014a565b5090565b7f4e487b7100000000000000000000000000000000000000000000000000000000600052602260045260246000fd5b60006002820490506001821680620001b057607f821691505b60208210811415620001c757620001c662000168565b5b50919050565b6137a880620001dd6000396000f3fe608060405234801561001057600080fd5b50600436106101215760003560e01c806342842e0e116100ad578063b88d4fde11610071578063b88d4fde14610318578063c6a4342f14610334578063c87b56dd14610364578063e985e9c514610394578063f43785f9146103c457610121565b806342842e0e146102625780636352211e1461027e57806370a08231146102ae57806395d89b41146102de578063a22cb465146102fc57610121565b80630daefed5116100f45780630daefed5146101c05780631249c58b146101f057806323b872dd146101fa578063368004ed146102165780633bb3a24d1461023257610121565b806301ffc9a71461012657806306fdde0314610156578063081812fc14610174578063095ea7b3146101a4575b600080fd5b610140600480360381019061013b9190611f86565b6103f4565b60405161014d9190611fce565b60405180910390f35b61015e610455565b60405161016b9190612082565b60405180910390f35b61018e600480360381019061018991906120da565b6104e7565b60405161019b9190612148565b60405180910390f35b6101be60048036038101906101b9919061218f565b61052d565b005b6101da60048036038101906101d591906120da565b610645565b6040516101e79190612082565b60405180910390f35b6101f86106a3565b005b610214600480360381019061020f91906121cf565b6106f3565b005b610230600480360381019061022b91906120da565b610753565b005b61024c600480360381019061024791906120da565b610863565b6040516102599190612082565b60405180910390f35b61027c600480360381019061027791906121cf565b6108cb565b005b610298600480360381019061029391906120da565b6108eb565b6040516102a59190612148565b60405180910390f35b6102c860048036038101906102c39190612222565b610972565b6040516102d5919061225e565b60405180910390f35b6102e6610a2a565b6040516102f39190612082565b60405180910390f35b610316600480360381019061031191906122a5565b610abc565b005b610332600480360381019061032d919061241a565b610ad2565b005b61034e600480360381019061034991906120da565b610b34565b60405161035b919061225e565b60405180910390f35b61037e600480360381019061037991906120da565b610b4c565b60405161038b9190612082565b60405180910390f35b6103ae60048036038101906103a9919061249d565b610c5f565b6040516103bb9190611fce565b60405180910390f35b6103de60048036038101906103d991906120da565b610cf3565b6040516103eb9190612082565b60405180910390f35b6000634906490660e01b7bffffffffffffffffffffffffffffffffffffffffffffffffffffffff1916827bffffffffffffffffffffffffffffffffffffffffffffffffffffffff1916148061044e575061044d82610d1e565b5b9050919050565b6060600080546104649061250c565b80601f01602080910402602001604051908101604052809291908181526020018280546104909061250c565b80156104dd5780601f106104b2576101008083540402835291602001916104dd565b820191906000526020600020905b8154815290600101906020018083116104c057829003601f168201915b5050505050905090565b60006104f282610e00565b6004600083815260200190815260200160002060009054906101000a900473ffffffffffffffffffffffffffffffffffffffff169050919050565b6000610538826108eb565b90508073ffffffffffffffffffffffffffffffffffffffff168373ffffffffffffffffffffffffffffffffffffffff1614156105a9576040517f08c379a00000000000000000000000000000000000000000000000000000000081526004016105a0906125b0565b60405180910390fd5b8073ffffffffffffffffffffffffffffffffffffffff166105c8610e4b565b73ffffffffffffffffffffffffffffffffffffffff1614806105f757506105f6816105f1610e4b565b610c5f565b5b610636576040517f08c379a000000000000000000000000000000000000000000000000000000000815260040161062d90612642565b60405180910390fd5b6106408383610e53565b505050565b6060600061065283610cf3565b6040516020016106629190612ac6565b604051602081830303815290604052905061067c81610f0c565b60405160200161068c9190612b97565b604051602081830303815290604052915050919050565b6106ad6007611070565b60006106b96007611086565b90506106c53382611094565b600060086000838152602001908152602001600020819055506106f0816106eb83610863565b6110b2565b50565b6107046106fe610e4b565b8261115d565b610743576040517f08c379a000000000000000000000000000000000000000000000000000000000815260040161073a90612c2b565b60405180910390fd5b61074e8383836111f2565b505050565b61075c816114ec565b61079b576040517f08c379a000000000000000000000000000000000000000000000000000000000815260040161079290612c97565b60405180910390fd5b3373ffffffffffffffffffffffffffffffffffffffff166107bb826108eb565b73ffffffffffffffffffffffffffffffffffffffff1614610811576040517f08c379a000000000000000000000000000000000000000000000000000000000815260040161080890612d29565b60405180910390fd5b6000600860008381526020019081526020016000205490506001816108369190612d78565b600860008481526020019081526020016000208190555061085f8261085a84610863565b6110b2565b5050565b606060006108708361152d565b61087984610645565b60405160200161088a929190613008565b60405160208183030381529060405290506108a481610f0c565b6040516020016108b491906130c5565b604051602081830303815290604052915050919050565b6108e683838360405180602001604052806000815250610ad2565b505050565b6000806108f783611605565b9050600073ffffffffffffffffffffffffffffffffffffffff168173ffffffffffffffffffffffffffffffffffffffff161415610969576040517f08c379a000000000000000000000000000000000000000000000000000000000815260040161096090613133565b60405180910390fd5b80915050919050565b60008073ffffffffffffffffffffffffffffffffffffffff168273ffffffffffffffffffffffffffffffffffffffff1614156109e3576040517f08c379a00000000000000000000000000000000000000000000000000000000081526004016109da906131c5565b60405180910390fd5b600360008373ffffffffffffffffffffffffffffffffffffffff1673ffffffffffffffffffffffffffffffffffffffff168152602001908152602001600020549050919050565b606060018054610a399061250c565b80601f0160208091040260200160405190810160405280929190818152602001828054610a659061250c565b8015610ab25780601f10610a8757610100808354040283529160200191610ab2565b820191906000526020600020905b815481529060010190602001808311610a9557829003601f168201915b5050505050905090565b610ace610ac7610e4b565b8383611642565b5050565b610ae3610add610e4b565b8361115d565b610b22576040517f08c379a0000000000000000000000000000000000000000000000000000000008152600401610b1990612c2b565b60405180910390fd5b610b2e848484846117af565b50505050565b60086020528060005260406000206000915090505481565b6060610b5782610e00565b6000600660008481526020019081526020016000208054610b779061250c565b80601f0160208091040260200160405190810160405280929190818152602001828054610ba39061250c565b8015610bf05780601f10610bc557610100808354040283529160200191610bf0565b820191906000526020600020905b815481529060010190602001808311610bd357829003601f168201915b505050505090506000610c0161180b565b9050600081511415610c17578192505050610c5a565b600082511115610c4c578082604051602001610c349291906131e5565b60405160208183030381529060405292505050610c5a565b610c5584611822565b925050505b919050565b6000600560008473ffffffffffffffffffffffffffffffffffffffff1673ffffffffffffffffffffffffffffffffffffffff16815260200190815260200160002060008373ffffffffffffffffffffffffffffffffffffffff1673ffffffffffffffffffffffffffffffffffffffff16815260200190815260200160002060009054906101000a900460ff16905092915050565b6060600060086000848152602001908152602001600020549050610d168161152d565b915050919050565b60007f80ac58cd000000000000000000000000000000000000000000000000000000007bffffffffffffffffffffffffffffffffffffffffffffffffffffffff1916827bffffffffffffffffffffffffffffffffffffffffffffffffffffffff19161480610de957507f5b5e139f000000000000000000000000000000000000000000000000000000007bffffffffffffffffffffffffffffffffffffffffffffffffffffffff1916827bffffffffffffffffffffffffffffffffffffffffffffffffffffffff1916145b80610df95750610df88261188a565b5b9050919050565b610e09816114ec565b610e48576040517f08c379a0000000000000000000000000000000000000000000000000000000008152600401610e3f90613133565b60405180910390fd5b50565b600033905090565b816004600083815260200190815260200160002060006101000a81548173ffffffffffffffffffffffffffffffffffffffff021916908373ffffffffffffffffffffffffffffffffffffffff160217905550808273ffffffffffffffffffffffffffffffffffffffff16610ec6836108eb565b73ffffffffffffffffffffffffffffffffffffffff167f8c5be1e5ebec7d5bd14f71427d1e84f3dd0314c0f7b2291e5b200ac8c7c3b92560405160405180910390a45050565b6060600082511415610f2f5760405180602001604052806000815250905061106b565b60006040518060600160405280604081526020016137336040913990506000600360028551610f5e9190612d78565b610f689190613238565b6004610f749190613269565b67ffffffffffffffff811115610f8d57610f8c6122ef565b5b6040519080825280601f01601f191660200182016040528015610fbf5781602001600182028036833780820191505090505b509050600182016020820185865187015b8082101561102b576003820191508151603f8160121c168501518453600184019350603f81600c1c168501518453600184019350603f8160061c168501518453600184019350603f8116850151845360018401935050610fd0565b5050600386510660018114611047576002811461105a57611062565b603d6001830353603d6002830353611062565b603d60018303535b50505080925050505b919050565b6001816000016000828254019250508190555050565b600081600001549050919050565b6110ae8282604051806020016040528060008152506118f4565b5050565b6110bb826114ec565b6110fa576040517f08c379a00000000000000000000000000000000000000000000000000000000081526004016110f190613335565b60405180910390fd5b80600660008481526020019081526020016000209080519060200190611121929190611e77565b507ff8e1a15aba9398e019f0b49df1a4fde98ee17ae345cb5f6b5e2c27f5033e8ce782604051611151919061225e565b60405180910390a15050565b600080611169836108eb565b90508073ffffffffffffffffffffffffffffffffffffffff168473ffffffffffffffffffffffffffffffffffffffff1614806111ab57506111aa8185610c5f565b5b806111e957508373ffffffffffffffffffffffffffffffffffffffff166111d1846104e7565b73ffffffffffffffffffffffffffffffffffffffff16145b91505092915050565b8273ffffffffffffffffffffffffffffffffffffffff16611212826108eb565b73ffffffffffffffffffffffffffffffffffffffff1614611268576040517f08c379a000000000000000000000000000000000000000000000000000000000815260040161125f906133c7565b60405180910390fd5b600073ffffffffffffffffffffffffffffffffffffffff168273ffffffffffffffffffffffffffffffffffffffff1614156112d8576040517f08c379a00000000000000000000000000000000000000000000000000000000081526004016112cf90613459565b60405180910390fd5b6112e5838383600161194f565b8273ffffffffffffffffffffffffffffffffffffffff16611305826108eb565b73ffffffffffffffffffffffffffffffffffffffff161461135b576040517f08c379a0000000000000000000000000000000000000000000000000000000008152600401611352906133c7565b60405180910390fd5b6004600082815260200190815260200160002060006101000a81549073ffffffffffffffffffffffffffffffffffffffff02191690556001600360008573ffffffffffffffffffffffffffffffffffffffff1673ffffffffffffffffffffffffffffffffffffffff168152602001908152602001600020600082825403925050819055506001600360008473ffffffffffffffffffffffffffffffffffffffff1673ffffffffffffffffffffffffffffffffffffffff16815260200190815260200160002060008282540192505081905550816002600083815260200190815260200160002060006101000a81548173ffffffffffffffffffffffffffffffffffffffff021916908373ffffffffffffffffffffffffffffffffffffffff160217905550808273ffffffffffffffffffffffffffffffffffffffff168473ffffffffffffffffffffffffffffffffffffffff167fddf252ad1be2c89b69c2b068fc378daa952ba7f163c4a11628f55a4df523b3ef60405160405180910390a46114e78383836001611955565b505050565b60008073ffffffffffffffffffffffffffffffffffffffff1661150e83611605565b73ffffffffffffffffffffffffffffffffffffffff1614159050919050565b60606000600161153c8461195b565b01905060008167ffffffffffffffff81111561155b5761155a6122ef565b5b6040519080825280601f01601f19166020018201604052801561158d5781602001600182028036833780820191505090505b509050600082602001820190505b6001156115fa578080600190039150507f3031323334353637383961626364656600000000000000000000000000000000600a86061a8153600a85816115e4576115e3613209565b5b04945060008514156115f5576115fa565b61159b565b819350505050919050565b60006002600083815260200190815260200160002060009054906101000a900473ffffffffffffffffffffffffffffffffffffffff169050919050565b8173ffffffffffffffffffffffffffffffffffffffff168373ffffffffffffffffffffffffffffffffffffffff1614156116b1576040517f08c379a00000000000000000000000000000000000000000000000000000000081526004016116a8906134c5565b60405180910390fd5b80600560008573ffffffffffffffffffffffffffffffffffffffff1673ffffffffffffffffffffffffffffffffffffffff16815260200190815260200160002060008473ffffffffffffffffffffffffffffffffffffffff1673ffffffffffffffffffffffffffffffffffffffff16815260200190815260200160002060006101000a81548160ff0219169083151502179055508173ffffffffffffffffffffffffffffffffffffffff168373ffffffffffffffffffffffffffffffffffffffff167f17307eab39ab6107e8899845ad3d59bd9653f200f220920489ca2b5937696c31836040516117a29190611fce565b60405180910390a3505050565b6117ba8484846111f2565b6117c684848484611aae565b611805576040517f08c379a00000000000000000000000000000000000000000000000000000000081526004016117fc90613557565b60405180910390fd5b50505050565b606060405180602001604052806000815250905090565b606061182d82610e00565b600061183761180b565b905060008151116118575760405180602001604052806000815250611882565b806118618461152d565b6040516020016118729291906131e5565b6040516020818303038152906040525b915050919050565b60007f01ffc9a7000000000000000000000000000000000000000000000000000000007bffffffffffffffffffffffffffffffffffffffffffffffffffffffff1916827bffffffffffffffffffffffffffffffffffffffffffffffffffffffff1916149050919050565b6118fe8383611c36565b61190b6000848484611aae565b61194a576040517f08c379a000000000000000000000000000000000000000000000000000000000815260040161194190613557565b60405180910390fd5b505050565b50505050565b50505050565b600080600090507a184f03e93ff9f4daa797ed6e38ed64bf6a1f01000000000000000083106119b9577a184f03e93ff9f4daa797ed6e38ed64bf6a1f01000000000000000083816119af576119ae613209565b5b0492506040810190505b6d04ee2d6d415b85acef810000000083106119f6576d04ee2d6d415b85acef810000000083816119ec576119eb613209565b5b0492506020810190505b662386f26fc100008310611a2557662386f26fc100008381611a1b57611a1a613209565b5b0492506010810190505b6305f5e1008310611a4e576305f5e1008381611a4457611a43613209565b5b0492506008810190505b6127108310611a73576127108381611a6957611a68613209565b5b0492506004810190505b60648310611a965760648381611a8c57611a8b613209565b5b0492506002810190505b600a8310611aa5576001810190505b80915050919050565b6000611acf8473ffffffffffffffffffffffffffffffffffffffff16611e54565b15611c29578373ffffffffffffffffffffffffffffffffffffffff1663150b7a02611af8610e4b565b8786866040518563ffffffff1660e01b8152600401611b1a94939291906135cc565b6020604051808303816000875af1925050508015611b5657506040513d601f19601f82011682018060405250810190611b53919061362d565b60015b611bd9573d8060008114611b86576040519150601f19603f3d011682016040523d82523d6000602084013e611b8b565b606091505b50600081511415611bd1576040517f08c379a0000000000000000000000000000000000000000000000000000000008152600401611bc890613557565b60405180910390fd5b805181602001fd5b63150b7a0260e01b7bffffffffffffffffffffffffffffffffffffffffffffffffffffffff1916817bffffffffffffffffffffffffffffffffffffffffffffffffffffffff191614915050611c2e565b600190505b949350505050565b600073ffffffffffffffffffffffffffffffffffffffff168273ffffffffffffffffffffffffffffffffffffffff161415611ca6576040517f08c379a0000000000000000000000000000000000000000000000000000000008152600401611c9d906136a6565b60405180910390fd5b611caf816114ec565b15611cef576040517f08c379a0000000000000000000000000000000000000000000000000000000008152600401611ce690613712565b60405180910390fd5b611cfd60008383600161194f565b611d06816114ec565b15611d46576040517f08c379a0000000000000000000000000000000000000000000000000000000008152600401611d3d90613712565b60405180910390fd5b6001600360008473ffffffffffffffffffffffffffffffffffffffff1673ffffffffffffffffffffffffffffffffffffffff16815260200190815260200160002060008282540192505081905550816002600083815260200190815260200160002060006101000a81548173ffffffffffffffffffffffffffffffffffffffff021916908373ffffffffffffffffffffffffffffffffffffffff160217905550808273ffffffffffffffffffffffffffffffffffffffff16600073ffffffffffffffffffffffffffffffffffffffff167fddf252ad1be2c89b69c2b068fc378daa952ba7f163c4a11628f55a4df523b3ef60405160405180910390a4611e50600083836001611955565b5050565b6000808273ffffffffffffffffffffffffffffffffffffffff163b119050919050565b828054611e839061250c565b90600052602060002090601f016020900481019282611ea55760008555611eec565b82601f10611ebe57805160ff1916838001178555611eec565b82800160010185558215611eec579182015b82811115611eeb578251825591602001919060010190611ed0565b5b509050611ef99190611efd565b5090565b5b80821115611f16576000816000905550600101611efe565b5090565b6000604051905090565b600080fd5b600080fd5b60007fffffffff0000000000000000000000000000000000000000000000000000000082169050919050565b611f6381611f2e565b8114611f6e57600080fd5b50565b600081359050611f8081611f5a565b92915050565b600060208284031215611f9c57611f9b611f24565b5b6000611faa84828501611f71565b91505092915050565b60008115159050919050565b611fc881611fb3565b82525050565b6000602082019050611fe36000830184611fbf565b92915050565b600081519050919050565b600082825260208201905092915050565b60005b83811015612023578082015181840152602081019050612008565b83811115612032576000848401525b50505050565b6000601f19601f8301169050919050565b600061205482611fe9565b61205e8185611ff4565b935061206e818560208601612005565b61207781612038565b840191505092915050565b6000602082019050818103600083015261209c8184612049565b905092915050565b6000819050919050565b6120b7816120a4565b81146120c257600080fd5b50565b6000813590506120d4816120ae565b92915050565b6000602082840312156120f0576120ef611f24565b5b60006120fe848285016120c5565b91505092915050565b600073ffffffffffffffffffffffffffffffffffffffff82169050919050565b600061213282612107565b9050919050565b61214281612127565b82525050565b600060208201905061215d6000830184612139565b92915050565b61216c81612127565b811461217757600080fd5b50565b60008135905061218981612163565b92915050565b600080604083850312156121a6576121a5611f24565b5b60006121b48582860161217a565b92505060206121c5858286016120c5565b9150509250929050565b6000806000606084860312156121e8576121e7611f24565b5b60006121f68682870161217a565b93505060206122078682870161217a565b9250506040612218868287016120c5565b9150509250925092565b60006020828403121561223857612237611f24565b5b60006122468482850161217a565b91505092915050565b612258816120a4565b82525050565b6000602082019050612273600083018461224f565b92915050565b61228281611fb3565b811461228d57600080fd5b50565b60008135905061229f81612279565b92915050565b600080604083850312156122bc576122bb611f24565b5b60006122ca8582860161217a565b92505060206122db85828601612290565b9150509250929050565b600080fd5b600080fd5b7f4e487b7100000000000000000000000000000000000000000000000000000000600052604160045260246000fd5b61232782612038565b810181811067ffffffffffffffff82111715612346576123456122ef565b5b80604052505050565b6000612359611f1a565b9050612365828261231e565b919050565b600067ffffffffffffffff821115612385576123846122ef565b5b61238e82612038565b9050602081019050919050565b82818337600083830152505050565b60006123bd6123b88461236a565b61234f565b9050828152602081018484840111156123d9576123d86122ea565b5b6123e484828561239b565b509392505050565b600082601f830112612401576124006122e5565b5b81356124118482602086016123aa565b91505092915050565b6000806000806080858703121561243457612433611f24565b5b60006124428782880161217a565b94505060206124538782880161217a565b9350506040612464878288016120c5565b925050606085013567ffffffffffffffff81111561248557612484611f29565b5b612491878288016123ec565b91505092959194509250565b600080604083850312156124b4576124b3611f24565b5b60006124c28582860161217a565b92505060206124d38582860161217a565b9150509250929050565b7f4e487b7100000000000000000000000000000000000000000000000000000000600052602260045260246000fd5b6000600282049050600182168061252457607f821691505b60208210811415612538576125376124dd565b5b50919050565b7f4552433732313a20617070726f76616c20746f2063757272656e74206f776e6560008201527f7200000000000000000000000000000000000000000000000000000000000000602082015250565b600061259a602183611ff4565b91506125a58261253e565b604082019050919050565b600060208201905081810360008301526125c98161258d565b9050919050565b7f4552433732313a20617070726f76652063616c6c6572206973206e6f7420746f60008201527f6b656e206f776e6572206f7220617070726f76656420666f7220616c6c000000602082015250565b600061262c603d83611ff4565b9150612637826125d0565b604082019050919050565b6000602082019050818103600083015261265b8161261f565b9050919050565b600081905092915050565b7f3c73766720786d6c6e733d22687474703a2f2f7777772e77332e6f72672f323060008201527f30302f73766722207072657365727665417370656374526174696f3d22784d6960208201527f6e594d696e206d656574222076696577426f783d22302030203335302033353060408201527f223e000000000000000000000000000000000000000000000000000000000000606082015250565b6000612715606283612662565b91506127208261266d565b606282019050919050565b7f3c7374796c653e2e62617365207b2066696c6c3a2077686974653b20666f6e7460008201527f2d66616d696c793a2073657269663b20666f6e742d73697a653a20313470783b60208201527f207d3c2f7374796c653e00000000000000000000000000000000000000000000604082015250565b60006127ad604a83612662565b91506127b88261272b565b604a82019050919050565b7f3c726563742077696474683d223130302522206865696768743d22313030252260008201527f2066696c6c3d22626c61636b22202f3e00000000000000000000000000000000602082015250565b600061281f603083612662565b915061282a826127c3565b603082019050919050565b7f3c7465787420783d223530252220793d223430252220636c6173733d2262617360008201527f652220646f6d696e616e742d626173656c696e653d226d6964646c652220746560208201527f78742d616e63686f723d226d6964646c65223e00000000000000000000000000604082015250565b60006128b7605383612662565b91506128c282612835565b605382019050919050565b7f57617272696f7200000000000000000000000000000000000000000000000000600082015250565b6000612903600783612662565b915061290e826128cd565b600782019050919050565b7f3c2f746578743e00000000000000000000000000000000000000000000000000600082015250565b600061294f600783612662565b915061295a82612919565b600782019050919050565b7f3c7465787420783d223530252220793d223530252220636c6173733d2262617360008201527f652220646f6d696e616e742d626173656c696e653d226d6964646c652220746560208201527f78742d616e63686f723d226d6964646c65223e00000000000000000000000000604082015250565b60006129e7605383612662565b91506129f282612965565b605382019050919050565b7f4c6576656c733a20000000000000000000000000000000000000000000000000600082015250565b6000612a33600883612662565b9150612a3e826129fd565b600882019050919050565b6000612a5482611fe9565b612a5e8185612662565b9350612a6e818560208601612005565b80840191505092915050565b7f3c2f7376673e0000000000000000000000000000000000000000000000000000600082015250565b6000612ab0600683612662565b9150612abb82612a7a565b600682019050919050565b6000612ad182612708565b9150612adc826127a0565b9150612ae782612812565b9150612af2826128aa565b9150612afd826128f6565b9150612b0882612942565b9150612b13826129da565b9150612b1e82612a26565b9150612b2a8284612a49565b9150612b3582612942565b9150612b4082612aa3565b915081905092915050565b7f646174613a696d6167652f7376672b786d6c3b6261736536342c000000000000600082015250565b6000612b81601a83612662565b9150612b8c82612b4b565b601a82019050919050565b6000612ba282612b74565b9150612bae8284612a49565b915081905092915050565b7f4552433732313a2063616c6c6572206973206e6f7420746f6b656e206f776e6560008201527f72206f7220617070726f76656400000000000000000000000000000000000000602082015250565b6000612c15602d83611ff4565b9150612c2082612bb9565b604082019050919050565b60006020820190508181036000830152612c4481612c08565b9050919050565b7f506c656173652075736520616e206578697374696e6720746f6b656e00000000600082015250565b6000612c81601c83611ff4565b9150612c8c82612c4b565b602082019050919050565b60006020820190508181036000830152612cb081612c74565b9050919050565b7f596f75206d757374206f776e207468697320746f6b656e20746f20747261696e60008201527f2069740000000000000000000000000000000000000000000000000000000000602082015250565b6000612d13602383611ff4565b9150612d1e82612cb7565b604082019050919050565b60006020820190508181036000830152612d4281612d06565b9050919050565b7f4e487b7100000000000000000000000000000000000000000000000000000000600052601160045260246000fd5b6000612d83826120a4565b9150612d8e836120a4565b9250827fffffffffffffffffffffffffffffffffffffffffffffffffffffffffffffffff03821115612dc357612dc2612d49565b5b828201905092915050565b7f7b00000000000000000000000000000000000000000000000000000000000000600082015250565b6000612e04600183612662565b9150612e0f82612dce565b600182019050919050565b7f226e616d65223a2022436861696e20426174746c657320230000000000000000600082015250565b6000612e50601883612662565b9150612e5b82612e1a565b601882019050919050565b7f222c000000000000000000000000000000000000000000000000000000000000600082015250565b6000612e9c600283612662565b9150612ea782612e66565b600282019050919050565b7f226465736372697074696f6e223a2022426174746c6573206f6e20636861696e60008201527f222c000000000000000000000000000000000000000000000000000000000000602082015250565b6000612f0e602283612662565b9150612f1982612eb2565b602282019050919050565b7f22696d616765223a202200000000000000000000000000000000000000000000600082015250565b6000612f5a600a83612662565b9150612f6582612f24565b600a82019050919050565b7f2200000000000000000000000000000000000000000000000000000000000000600082015250565b6000612fa6600183612662565b9150612fb182612f70565b600182019050919050565b7f7d00000000000000000000000000000000000000000000000000000000000000600082015250565b6000612ff2600183612662565b9150612ffd82612fbc565b600182019050919050565b600061301382612df7565b915061301e82612e43565b915061302a8285612a49565b915061303582612e8f565b915061304082612f01565b915061304b82612f4d565b91506130578284612a49565b915061306282612f99565b915061306d82612fe5565b91508190509392505050565b7f646174613a6170706c69636174696f6e2f6a736f6e3b6261736536342c000000600082015250565b60006130af601d83612662565b91506130ba82613079565b601d82019050919050565b60006130d0826130a2565b91506130dc8284612a49565b915081905092915050565b7f4552433732313a20696e76616c696420746f6b656e2049440000000000000000600082015250565b600061311d601883611ff4565b9150613128826130e7565b602082019050919050565b6000602082019050818103600083015261314c81613110565b9050919050565b7f4552433732313a2061646472657373207a65726f206973206e6f74206120766160008201527f6c6964206f776e65720000000000000000000000000000000000000000000000602082015250565b60006131af602983611ff4565b91506131ba82613153565b604082019050919050565b600060208201905081810360008301526131de816131a2565b9050919050565b60006131f18285612a49565b91506131fd8284612a49565b91508190509392505050565b7f4e487b7100000000000000000000000000000000000000000000000000000000600052601260045260246000fd5b6000613243826120a4565b915061324e836120a4565b92508261325e5761325d613209565b5b828204905092915050565b6000613274826120a4565b915061327f836120a4565b9250817fffffffffffffffffffffffffffffffffffffffffffffffffffffffffffffffff04831182151516156132b8576132b7612d49565b5b828202905092915050565b7f45524337323155524953746f726167653a2055524920736574206f66206e6f6e60008201527f6578697374656e7420746f6b656e000000000000000000000000000000000000602082015250565b600061331f602e83611ff4565b915061332a826132c3565b604082019050919050565b6000602082019050818103600083015261334e81613312565b9050919050565b7f4552433732313a207472616e736665722066726f6d20696e636f72726563742060008201527f6f776e6572000000000000000000000000000000000000000000000000000000602082015250565b60006133b1602583611ff4565b91506133bc82613355565b604082019050919050565b600060208201905081810360008301526133e0816133a4565b9050919050565b7f4552433732313a207472616e7366657220746f20746865207a65726f2061646460008201527f7265737300000000000000000000000000000000000000000000000000000000602082015250565b6000613443602483611ff4565b915061344e826133e7565b604082019050919050565b6000602082019050818103600083015261347281613436565b9050919050565b7f4552433732313a20617070726f766520746f2063616c6c657200000000000000600082015250565b60006134af601983611ff4565b91506134ba82613479565b602082019050919050565b600060208201905081810360008301526134de816134a2565b9050919050565b7f4552433732313a207472616e7366657220746f206e6f6e20455243373231526560008201527f63656976657220696d706c656d656e7465720000000000000000000000000000602082015250565b6000613541603283611ff4565b915061354c826134e5565b604082019050919050565b6000602082019050818103600083015261357081613534565b9050919050565b600081519050919050565b600082825260208201905092915050565b600061359e82613577565b6135a88185613582565b93506135b8818560208601612005565b6135c181612038565b840191505092915050565b60006080820190506135e16000830187612139565b6135ee6020830186612139565b6135fb604083018561224f565b818103606083015261360d8184613593565b905095945050505050565b60008151905061362781611f5a565b92915050565b60006020828403121561364357613642611f24565b5b600061365184828501613618565b91505092915050565b7f4552433732313a206d696e7420746f20746865207a65726f2061646472657373600082015250565b6000613690602083611ff4565b915061369b8261365a565b602082019050919050565b600060208201905081810360008301526136bf81613683565b9050919050565b7f4552433732313a20746f6b656e20616c7265616479206d696e74656400000000600082015250565b60006136fc601c83611ff4565b9150613707826136c6565b602082019050919050565b6000602082019050818103600083015261372b816136ef565b905091905056fe4142434445464748494a4b4c4d4e4f505152535455565758595a6162636465666768696a6b6c6d6e6f707172737475767778797a303132333435363738392b2fa264697066735822122076b649984ba209f1d0a70dcf2a8f1105933fe7143db3da290a07f17f5eb715a564736f6c634300080a0033",
  "linkReferences": {},
  "deployedLinkReferences": {}
}