{
  "_format": "hh-sol-artifact-1",
  "contractName": "NFTMarketplaceWithoutRoyalties",
  "sourceName": "contracts/NFTMarketplaceWithoutRoyalties.sol",
  "abi": [
    {
      "inputs": [],
      "stateMutability": "nonpayable",
      "type": "constructor"
    },
    {
      "anonymous": false,
      "inputs": [
        {
          "indexed": true,
          "internalType": "address",
          "name": "owner",
          "type": "address"
        },
        {
          "indexed": true,
          "internalType": "address",
          "name": "approved",
          "type": "address"
        },
        {
          "indexed": true,
          "internalType": "uint256",
          "name": "tokenId",
          "type": "uint256"
        }
      ],
      "name": "Approval",
      "type": "event"
    },
    {
      "anonymous": false,
      "inputs": [
        {
          "indexed": true,
          "internalType": "address",
          "name": "owner",
          "type": "address"
        },
        {
          "indexed": true,
          "internalType": "address",
          "name": "operator",
          "type": "address"
        },
        {
          "indexed": false,
          "internalType": "bool",
          "name": "approved",
          "type": "bool"
        }
      ],
      "name": "ApprovalForAll",
      "type": "event"
    },
    {
      "anonymous": false,
      "inputs": [
        {
          "indexed": false,
          "internalType": "uint256",
          "name": "_fromTokenId",
          "type": "uint256"
        },
        {
          "indexed": false,
          "internalType": "uint256",
          "name": "_toTokenId",
          "type": "uint256"
        }
      ],
      "name": "BatchMetadataUpdate",
      "type": "event"
    },
    {
      "anonymous": false,
      "inputs": [
        {
          "indexed": false,
          "internalType": "uint256",
          "name": "_tokenId",
          "type": "uint256"
        }
      ],
      "name": "MetadataUpdate",
      "type": "event"
    },
    {
      "anonymous": false,
      "inputs": [
        {
          "indexed": true,
          "internalType": "address",
          "name": "from",
          "type": "address"
        },
        {
          "indexed": true,
          "internalType": "address",
          "name": "to",
          "type": "address"
        },
        {
          "indexed": true,
          "internalType": "uint256",
          "name": "tokenId",
          "type": "uint256"
        }
      ],
      "name": "Transfer",
      "type": "event"
    },
    {
      "inputs": [
        {
          "internalType": "address",
          "name": "to",
          "type": "address"
        },
        {
          "internalType": "uint256",
          "name": "tokenId",
          "type": "uint256"
        }
      ],
      "name": "approve",
      "outputs": [],
      "stateMutability": "nonpayable",
      "type": "function"
    },
    {
      "inputs": [
        {
          "internalType": "address",
          "name": "owner",
          "type": "address"
        }
      ],
      "name": "balanceOf",
      "outputs": [
        {
          "internalType": "uint256",
          "name": "",
          "type": "uint256"
        }
      ],
      "stateMutability": "view",
      "type": "function"
    },
    {
      "inputs": [
        {
          "internalType": "string",
          "name": "_tokenURI",
          "type": "string"
        },
        {
          "internalType": "uint256",
          "name": "_price",
          "type": "uint256"
        }
      ],
      "name": "createToken",
      "outputs": [
        {
          "internalType": "uint256",
          "name": "",
          "type": "uint256"
        }
      ],
      "stateMutability": "payable",
      "type": "function"
    },
    {
      "inputs": [
        {
          "internalType": "uint256",
          "name": "_tokenId",
          "type": "uint256"
        }
      ],
      "name": "executeSale",
      "outputs": [],
      "stateMutability": "payable",
      "type": "function"
    },
    {
      "inputs": [],
      "name": "getAllNFTs",
      "outputs": [
        {
          "components": [
            {
              "internalType": "uint256",
              "name": "tokenId",
              "type": "uint256"
            },
            {
              "internalType": "address payable",
              "name": "tokenOwner",
              "type": "address"
            },
            {
              "internalType": "address payable",
              "name": "seller",
              "type": "address"
            },
            {
              "internalType": "uint256",
              "name": "price",
              "type": "uint256"
            },
            {
              "internalType": "bool",
              "name": "currentlyListed",
              "type": "bool"
            }
          ],
          "internalType": "struct NFTMarketplaceWithoutRoyalties.ListedToken[]",
          "name": "",
          "type": "tuple[]"
        }
      ],
      "stateMutability": "view",
      "type": "function"
    },
    {
      "inputs": [
        {
          "internalType": "uint256",
          "name": "tokenId",
          "type": "uint256"
        }
      ],
      "name": "getApproved",
      "outputs": [
        {
          "internalType": "address",
          "name": "",
          "type": "address"
        }
      ],
      "stateMutability": "view",
      "type": "function"
    },
    {
      "inputs": [],
      "name": "getCurrentTokenId",
      "outputs": [
        {
          "internalType": "uint256",
          "name": "",
          "type": "uint256"
        }
      ],
      "stateMutability": "view",
      "type": "function"
    },
    {
      "inputs": [],
      "name": "getLatestListedIdToListedToken",
      "outputs": [
        {
          "components": [
            {
              "internalType": "uint256",
              "name": "tokenId",
              "type": "uint256"
            },
            {
              "internalType": "address payable",
              "name": "tokenOwner",
              "type": "address"
            },
            {
              "internalType": "address payable",
              "name": "seller",
              "type": "address"
            },
            {
              "internalType": "uint256",
              "name": "price",
              "type": "uint256"
            },
            {
              "internalType": "bool",
              "name": "currentlyListed",
              "type": "bool"
            }
          ],
          "internalType": "struct NFTMarketplaceWithoutRoyalties.ListedToken",
          "name": "",
          "type": "tuple"
        }
      ],
      "stateMutability": "view",
      "type": "function"
    },
    {
      "inputs": [],
      "name": "getListPrice",
      "outputs": [
        {
          "internalType": "uint256",
          "name": "",
          "type": "uint256"
        }
      ],
      "stateMutability": "view",
      "type": "function"
    },
    {
      "inputs": [
        {
          "internalType": "uint256",
          "name": "_tokenId",
          "type": "uint256"
        }
      ],
      "name": "getListedForTokenId",
      "outputs": [
        {
          "components": [
            {
              "internalType": "uint256",
              "name": "tokenId",
              "type": "uint256"
            },
            {
              "internalType": "address payable",
              "name": "tokenOwner",
              "type": "address"
            },
            {
              "internalType": "address payable",
              "name": "seller",
              "type": "address"
            },
            {
              "internalType": "uint256",
              "name": "price",
              "type": "uint256"
            },
            {
              "internalType": "bool",
              "name": "currentlyListed",
              "type": "bool"
            }
          ],
          "internalType": "struct NFTMarketplaceWithoutRoyalties.ListedToken",
          "name": "",
          "type": "tuple"
        }
      ],
      "stateMutability": "view",
      "type": "function"
    },
    {
      "inputs": [],
      "name": "getMyNFTs",
      "outputs": [
        {
          "components": [
            {
              "internalType": "uint256",
              "name": "tokenId",
              "type": "uint256"
            },
            {
              "internalType": "address payable",
              "name": "tokenOwner",
              "type": "address"
            },
            {
              "internalType": "address payable",
              "name": "seller",
              "type": "address"
            },
            {
              "internalType": "uint256",
              "name": "price",
              "type": "uint256"
            },
            {
              "internalType": "bool",
              "name": "currentlyListed",
              "type": "bool"
            }
          ],
          "internalType": "struct NFTMarketplaceWithoutRoyalties.ListedToken[]",
          "name": "",
          "type": "tuple[]"
        }
      ],
      "stateMutability": "view",
      "type": "function"
    },
    {
      "inputs": [
        {
          "internalType": "address",
          "name": "owner",
          "type": "address"
        },
        {
          "internalType": "address",
          "name": "operator",
          "type": "address"
        }
      ],
      "name": "isApprovedForAll",
      "outputs": [
        {
          "internalType": "bool",
          "name": "",
          "type": "bool"
        }
      ],
      "stateMutability": "view",
      "type": "function"
    },
    {
      "inputs": [],
      "name": "name",
      "outputs": [
        {
          "internalType": "string",
          "name": "",
          "type": "string"
        }
      ],
      "stateMutability": "view",
      "type": "function"
    },
    {
      "inputs": [
        {
          "internalType": "uint256",
          "name": "tokenId",
          "type": "uint256"
        }
      ],
      "name": "ownerOf",
      "outputs": [
        {
          "internalType": "address",
          "name": "",
          "type": "address"
        }
      ],
      "stateMutability": "view",
      "type": "function"
    },
    {
      "inputs": [
        {
          "internalType": "address",
          "name": "from",
          "type": "address"
        },
        {
          "internalType": "address",
          "name": "to",
          "type": "address"
        },
        {
          "internalType": "uint256",
          "name": "tokenId",
          "type": "uint256"
        }
      ],
      "name": "safeTransferFrom",
      "outputs": [],
      "stateMutability": "nonpayable",
      "type": "function"
    },
    {
      "inputs": [
        {
          "internalType": "address",
          "name": "from",
          "type": "address"
        },
        {
          "internalType": "address",
          "name": "to",
          "type": "address"
        },
        {
          "internalType": "uint256",
          "name": "tokenId",
          "type": "uint256"
        },
        {
          "internalType": "bytes",
          "name": "data",
          "type": "bytes"
        }
      ],
      "name": "safeTransferFrom",
      "outputs": [],
      "stateMutability": "nonpayable",
      "type": "function"
    },
    {
      "inputs": [
        {
          "internalType": "address",
          "name": "operator",
          "type": "address"
        },
        {
          "internalType": "bool",
          "name": "approved",
          "type": "bool"
        }
      ],
      "name": "setApprovalForAll",
      "outputs": [],
      "stateMutability": "nonpayable",
      "type": "function"
    },
    {
      "inputs": [
        {
          "internalType": "bytes4",
          "name": "interfaceId",
          "type": "bytes4"
        }
      ],
      "name": "supportsInterface",
      "outputs": [
        {
          "internalType": "bool",
          "name": "",
          "type": "bool"
        }
      ],
      "stateMutability": "view",
      "type": "function"
    },
    {
      "inputs": [],
      "name": "symbol",
      "outputs": [
        {
          "internalType": "string",
          "name": "",
          "type": "string"
        }
      ],
      "stateMutability": "view",
      "type": "function"
    },
    {
      "inputs": [
        {
          "internalType": "uint256",
          "name": "tokenId",
          "type": "uint256"
        }
      ],
      "name": "tokenURI",
      "outputs": [
        {
          "internalType": "string",
          "name": "",
          "type": "string"
        }
      ],
      "stateMutability": "view",
      "type": "function"
    },
    {
      "inputs": [
        {
          "internalType": "address",
          "name": "from",
          "type": "address"
        },
        {
          "internalType": "address",
          "name": "to",
          "type": "address"
        },
        {
          "internalType": "uint256",
          "name": "tokenId",
          "type": "uint256"
        }
      ],
      "name": "transferFrom",
      "outputs": [],
      "stateMutability": "nonpayable",
      "type": "function"
    },
    {
      "inputs": [
        {
          "internalType": "uint256",
          "name": "_listPrice",
          "type": "uint256"
        }
      ],
      "name": "updateListPrice",
      "outputs": [],
      "stateMutability": "payable",
      "type": "function"
    }
  ],
  "bytecode": "0x6080604052662386f26fc10000600a553480156200001c57600080fd5b50604080518082018252600e81526d4e46544d61726b6574706c61636560901b6020808301918252835180850190945260048452634e46544d60e01b9084015281519192916200006f91600091620000a0565b50805162000085906001906020840190620000a0565b5050600780546001600160a01b031916331790555062000183565b828054620000ae9062000146565b90600052602060002090601f016020900481019282620000d257600085556200011d565b82601f10620000ed57805160ff19168380011785556200011d565b828001600101855582156200011d579182015b828111156200011d57825182559160200191906001019062000100565b506200012b9291506200012f565b5090565b5b808211156200012b576000815560010162000130565b600181811c908216806200015b57607f821691505b602082108114156200017d57634e487b7160e01b600052602260045260246000fd5b50919050565b61209a80620001936000396000f3fe6080604052600436106101355760003560e01c806372b3b620116100ab578063b88d4fde1161006f578063b88d4fde1461034d578063c322579c1461036d578063c87b56dd14610380578063d2fb42de146103a0578063e0391b09146103b5578063e985e9c5146103ca57600080fd5b806372b3b620146102c557806395d89b41146102d857806398c3df16146102ed5780639b1225c41461031a578063a22cb4651461032d57600080fd5b806342842e0e116100fd57806342842e0e1461020b578063561892361461022b578063629cb2e41461024e5780636352211e1461027057806368f1945f1461029057806370a08231146102a557600080fd5b806301ffc9a71461013a57806306fdde031461016f578063081812fc14610191578063095ea7b3146101c957806323b872dd146101eb575b600080fd5b34801561014657600080fd5b5061015a610155366004611cb7565b610413565b60405190151581526020015b60405180910390f35b34801561017b57600080fd5b5061018461043e565b6040516101669190611e83565b34801561019d57600080fd5b506101b16101ac366004611d45565b6104d0565b6040516001600160a01b039091168152602001610166565b3480156101d557600080fd5b506101e96101e4366004611c8e565b6104f7565b005b3480156101f757600080fd5b506101e9610206366004611ba0565b610612565b34801561021757600080fd5b506101e9610226366004611ba0565b610643565b34801561023757600080fd5b5061024061065e565b604051908152602001610166565b34801561025a57600080fd5b5061026361066e565b6040516101669190611e35565b34801561027c57600080fd5b506101b161028b366004611d45565b61087f565b34801561029c57600080fd5b50600a54610240565b3480156102b157600080fd5b506102406102c0366004611b54565b6108df565b6102406102d3366004611cef565b610965565b3480156102e457600080fd5b50610184610a5e565b3480156102f957600080fd5b5061030d610308366004611d45565b610a6d565b6040516101669190611f7a565b6101e9610328366004611d45565b610ad7565b34801561033957600080fd5b506101e9610348366004611c54565b610c2e565b34801561035957600080fd5b506101e9610368366004611bdb565b610c3d565b6101e961037b366004611d45565b610c6f565b34801561038c57600080fd5b5061018461039b366004611d45565b610cde565b3480156103ac57600080fd5b5061030d610def565b3480156103c157600080fd5b50610263610e66565b3480156103d657600080fd5b5061015a6103e5366004611b6e565b6001600160a01b03918216600090815260056020908152604080832093909416825291909152205460ff1690565b60006001600160e01b03198216632483248360e11b1480610438575061043882610fad565b92915050565b60606000805461044d90611fcc565b80601f016020809104026020016040519081016040528092919081815260200182805461047990611fcc565b80156104c65780601f1061049b576101008083540402835291602001916104c6565b820191906000526020600020905b8154815290600101906020018083116104a957829003601f168201915b5050505050905090565b60006104db82610ffd565b506000908152600460205260409020546001600160a01b031690565b60006105028261087f565b9050806001600160a01b0316836001600160a01b031614156105755760405162461bcd60e51b815260206004820152602160248201527f4552433732313a20617070726f76616c20746f2063757272656e74206f776e656044820152603960f91b60648201526084015b60405180910390fd5b336001600160a01b0382161480610591575061059181336103e5565b6106035760405162461bcd60e51b815260206004820152603d60248201527f4552433732313a20617070726f76652063616c6c6572206973206e6f7420746f60448201527f6b656e206f776e6572206f7220617070726f76656420666f7220616c6c000000606482015260840161056c565b61060d838361105f565b505050565b61061c33826110cd565b6106385760405162461bcd60e51b815260040161056c90611e96565b61060d83838361114b565b61060d83838360405180602001604052806000815250610c3d565b600061066960085490565b905090565b6060600061067b60085490565b905060008060005b83811015610702576000610698826001611f88565b6000818152600b60205260409020600101549091506001600160a01b03163314806106dc57506000818152600b60205260409020600201546001600160a01b031633145b156106ef57836106eb81612007565b9450505b50806106fa81612007565b915050610683565b5060008267ffffffffffffffff81111561072c57634e487b7160e01b600052604160045260246000fd5b60405190808252806020026020018201604052801561076557816020015b6107526119fb565b81526020019060019003908161074a5790505b50905060005b84811015610876576000610780826001611f88565b6000818152600b60205260409020600101549091506001600160a01b03163314806107c457506000818152600b60205260409020600201546001600160a01b031633145b15610863576000818152600b6020908152604091829020825160a0810184528154815260018201546001600160a01b039081169382019390935260028201549092169282019290925260038201546060820152600482015460ff1615156080820152845185908790811061084857634e487b7160e01b600052603260045260246000fd5b6020026020010181905250848061085e90612007565b955050505b508061086e81612007565b91505061076b565b50949350505050565b6000818152600260205260408120546001600160a01b0316806104385760405162461bcd60e51b8152602060048201526018602482015277115490cdcc8c4e881a5b9d985b1a59081d1bdad95b88125160421b604482015260640161056c565b60006001600160a01b0382166109495760405162461bcd60e51b815260206004820152602960248201527f4552433732313a2061646472657373207a65726f206973206e6f7420612076616044820152683634b21037bbb732b960b91b606482015260840161056c565b506001600160a01b031660009081526003602052604090205490565b6000600a5434146109c35760405162461bcd60e51b815260206004820152602260248201527f53656e6420656e6f75676820657468657220746f206c69737420796f7572204e604482015261119560f21b606482015260840161056c565b60008211610a1e5760405162461bcd60e51b815260206004820152602260248201527f4d616b652073757265207468652070726963652069736e2774206e6567617469604482015261766560f01b606482015260840161056c565b610a2c600880546001019055565b6000610a3760085490565b9050610a4333826112af565b610a4d81856112c9565b610a57818461139b565b9392505050565b60606001805461044d90611fcc565b610a756119fb565b506000908152600b6020908152604091829020825160a0810184528154815260018201546001600160a01b03908116938201939093526002820154909216928201929092526003820154606082015260049091015460ff161515608082015290565b6000818152600b6020526040902060030154348114610b575760405162461bcd60e51b815260206004820152603660248201527f53656e64207468652061736b696e6720707269636520666f7220746865204e466044820152755420696e206f7264657220746f20707572636861736560501b606482015260840161056c565b6000828152600b602052604090206002810180546004909201805460ff191660011790556001600160a01b03198216331790556001600160a01b0316610ba1600980546001019055565b610bac30338561114b565b610bb630846104f7565b600754600a546040516001600160a01b039092169181156108fc0291906000818181858888f19350505050158015610bf2573d6000803e3d6000fd5b506040516001600160a01b038216903480156108fc02916000818181858888f19350505050158015610c28573d6000803e3d6000fd5b50505050565b610c39338383611438565b5050565b610c4733836110cd565b610c635760405162461bcd60e51b815260040161056c90611e96565b610c2884848484611507565b6007546001600160a01b03163314610cd95760405162461bcd60e51b815260206004820152602760248201527f4f6e6c79206f776e65722063616e2075706461746520746865206c697374696e6044820152666720707269636560c81b606482015260840161056c565b600a55565b6060610ce982610ffd565b60008281526006602052604081208054610d0290611fcc565b80601f0160208091040260200160405190810160405280929190818152602001828054610d2e90611fcc565b8015610d7b5780601f10610d5057610100808354040283529160200191610d7b565b820191906000526020600020905b815481529060010190602001808311610d5e57829003601f168201915b505050505090506000610d9960408051602081019091526000815290565b9050805160001415610dac575092915050565b815115610dde578082604051602001610dc6929190611dc9565b60405160208183030381529060405292505050919050565b610de78461153a565b949350505050565b610df76119fb565b6000610e0260085490565b6000908152600b6020908152604091829020825160a0810184528154815260018201546001600160a01b03908116938201939093526002820154909216928201929092526003820154606082015260049091015460ff161515608082015292915050565b60606000610e7360085490565b905060008167ffffffffffffffff811115610e9e57634e487b7160e01b600052604160045260246000fd5b604051908082528060200260200182016040528015610ed757816020015b610ec46119fb565b815260200190600190039081610ebc5790505b5090506000805b83811015610fa4576000610ef3826001611f88565b6000818152600b6020908152604091829020825160a0810184528154815260018201546001600160a01b039081169382019390935260028201549092169282019290925260038201546060820152600482015460ff161515608082015286519293509091869086908110610f7757634e487b7160e01b600052603260045260246000fd5b6020908102919091010152610f8d600185611f88565b935050508080610f9c90612007565b915050610ede565b50909392505050565b60006001600160e01b031982166380ac58cd60e01b1480610fde57506001600160e01b03198216635b5e139f60e01b145b8061043857506301ffc9a760e01b6001600160e01b0319831614610438565b6000818152600260205260409020546001600160a01b031661105c5760405162461bcd60e51b8152602060048201526018602482015277115490cdcc8c4e881a5b9d985b1a59081d1bdad95b88125160421b604482015260640161056c565b50565b600081815260046020526040902080546001600160a01b0319166001600160a01b03841690811790915581906110948261087f565b6001600160a01b03167f8c5be1e5ebec7d5bd14f71427d1e84f3dd0314c0f7b2291e5b200ac8c7c3b92560405160405180910390a45050565b6000806110d98361087f565b9050806001600160a01b0316846001600160a01b0316148061112057506001600160a01b0380821660009081526005602090815260408083209388168352929052205460ff165b80610de75750836001600160a01b0316611139846104d0565b6001600160a01b031614949350505050565b826001600160a01b031661115e8261087f565b6001600160a01b0316146111845760405162461bcd60e51b815260040161056c90611f35565b6001600160a01b0382166111e65760405162461bcd60e51b8152602060048201526024808201527f4552433732313a207472616e7366657220746f20746865207a65726f206164646044820152637265737360e01b606482015260840161056c565b826001600160a01b03166111f98261087f565b6001600160a01b03161461121f5760405162461bcd60e51b815260040161056c90611f35565b600081815260046020908152604080832080546001600160a01b03199081169091556001600160a01b0387811680865260038552838620805460001901905590871680865283862080546001019055868652600290945282852080549092168417909155905184937fddf252ad1be2c89b69c2b068fc378daa952ba7f163c4a11628f55a4df523b3ef91a4505050565b610c398282604051806020016040528060008152506115ad565b6000828152600260205260409020546001600160a01b03166113445760405162461bcd60e51b815260206004820152602e60248201527f45524337323155524953746f726167653a2055524920736574206f66206e6f6e60448201526d32bc34b9ba32b73a103a37b5b2b760911b606482015260840161056c565b6000828152600660209081526040909120825161136392840190611a29565b506040518281527ff8e1a15aba9398e019f0b49df1a4fde98ee17ae345cb5f6b5e2c27f5033e8ce79060200160405180910390a15050565b6040805160a081018252838152306020808301828152338486018181526060860188815260016080880181815260008c8152600b9097529890952096518755925193860180546001600160a01b039586166001600160a01b03199182161790915590516002870180549190951691161790925551600384015592516004909201805492151560ff1990931692909217909155610c3991908461114b565b816001600160a01b0316836001600160a01b0316141561149a5760405162461bcd60e51b815260206004820152601960248201527f4552433732313a20617070726f766520746f2063616c6c657200000000000000604482015260640161056c565b6001600160a01b03838116600081815260056020908152604080832094871680845294825291829020805460ff191686151590811790915591519182527f17307eab39ab6107e8899845ad3d59bd9653f200f220920489ca2b5937696c31910160405180910390a3505050565b61151284848461114b565b61151e848484846115e0565b610c285760405162461bcd60e51b815260040161056c90611ee3565b606061154582610ffd565b600061155c60408051602081019091526000815290565b9050600081511161157c5760405180602001604052806000815250610a57565b80611586846116ed565b604051602001611597929190611dc9565b6040516020818303038152906040529392505050565b6115b78383611798565b6115c460008484846115e0565b61060d5760405162461bcd60e51b815260040161056c90611ee3565b60006001600160a01b0384163b156116e257604051630a85bd0160e11b81526001600160a01b0385169063150b7a0290611624903390899088908890600401611df8565b602060405180830381600087803b15801561163e57600080fd5b505af192505050801561166e575060408051601f3d908101601f1916820190925261166b91810190611cd3565b60015b6116c8573d80801561169c576040519150601f19603f3d011682016040523d82523d6000602084013e6116a1565b606091505b5080516116c05760405162461bcd60e51b815260040161056c90611ee3565b805181602001fd5b6001600160e01b031916630a85bd0160e11b149050610de7565b506001949350505050565b606060006116fa83611923565b600101905060008167ffffffffffffffff81111561172857634e487b7160e01b600052604160045260246000fd5b6040519080825280601f01601f191660200182016040528015611752576020820181803683370190505b5090508181016020015b600019016f181899199a1a9b1b9c1cb0b131b232b360811b600a86061a8153600a850494508461178b57611790565b61175c565b509392505050565b6001600160a01b0382166117ee5760405162461bcd60e51b815260206004820181905260248201527f4552433732313a206d696e7420746f20746865207a65726f2061646472657373604482015260640161056c565b6000818152600260205260409020546001600160a01b0316156118535760405162461bcd60e51b815260206004820152601c60248201527f4552433732313a20746f6b656e20616c7265616479206d696e74656400000000604482015260640161056c565b6000818152600260205260409020546001600160a01b0316156118b85760405162461bcd60e51b815260206004820152601c60248201527f4552433732313a20746f6b656e20616c7265616479206d696e74656400000000604482015260640161056c565b6001600160a01b038216600081815260036020908152604080832080546001019055848352600290915280822080546001600160a01b0319168417905551839291907fddf252ad1be2c89b69c2b068fc378daa952ba7f163c4a11628f55a4df523b3ef908290a45050565b60008072184f03e93ff9f4daa797ed6e38ed64bf6a1f0160401b83106119625772184f03e93ff9f4daa797ed6e38ed64bf6a1f0160401b830492506040015b6d04ee2d6d415b85acef8100000000831061198e576d04ee2d6d415b85acef8100000000830492506020015b662386f26fc1000083106119ac57662386f26fc10000830492506010015b6305f5e10083106119c4576305f5e100830492506008015b61271083106119d857612710830492506004015b606483106119ea576064830492506002015b600a83106104385760010192915050565b6040805160a08101825260008082526020820181905291810182905260608101829052608081019190915290565b828054611a3590611fcc565b90600052602060002090601f016020900481019282611a575760008555611a9d565b82601f10611a7057805160ff1916838001178555611a9d565b82800160010185558215611a9d579182015b82811115611a9d578251825591602001919060010190611a82565b50611aa9929150611aad565b5090565b5b80821115611aa95760008155600101611aae565b600067ffffffffffffffff80841115611add57611add612038565b604051601f8501601f19908116603f01168101908282118183101715611b0557611b05612038565b81604052809350858152868686011115611b1e57600080fd5b858560208301376000602087830101525050509392505050565b80356001600160a01b0381168114611b4f57600080fd5b919050565b600060208284031215611b65578081fd5b610a5782611b38565b60008060408385031215611b80578081fd5b611b8983611b38565b9150611b9760208401611b38565b90509250929050565b600080600060608486031215611bb4578081fd5b611bbd84611b38565b9250611bcb60208501611b38565b9150604084013590509250925092565b60008060008060808587031215611bf0578081fd5b611bf985611b38565b9350611c0760208601611b38565b925060408501359150606085013567ffffffffffffffff811115611c29578182fd5b8501601f81018713611c39578182fd5b611c4887823560208401611ac2565b91505092959194509250565b60008060408385031215611c66578182fd5b611c6f83611b38565b915060208301358015158114611c83578182fd5b809150509250929050565b60008060408385031215611ca0578182fd5b611ca983611b38565b946020939093013593505050565b600060208284031215611cc8578081fd5b8135610a578161204e565b600060208284031215611ce4578081fd5b8151610a578161204e565b60008060408385031215611d01578182fd5b823567ffffffffffffffff811115611d17578283fd5b8301601f81018513611d27578283fd5b611d3685823560208401611ac2565b95602094909401359450505050565b600060208284031215611d56578081fd5b5035919050565b60008151808452611d75816020860160208601611fa0565b601f01601f19169290920160200192915050565b805182526020808201516001600160a01b039081169184019190915260408083015190911690830152606080820151908301526080908101511515910152565b60008351611ddb818460208801611fa0565b835190830190611def818360208801611fa0565b01949350505050565b6001600160a01b0385811682528416602082015260408101839052608060608201819052600090611e2b90830184611d5d565b9695505050505050565b6020808252825182820181905260009190848201906040850190845b81811015611e7757611e64838551611d89565b9284019260a09290920191600101611e51565b50909695505050505050565b602081526000610a576020830184611d5d565b6020808252602d908201527f4552433732313a2063616c6c6572206973206e6f7420746f6b656e206f776e6560408201526c1c881bdc88185c1c1c9bdd9959609a1b606082015260800190565b60208082526032908201527f4552433732313a207472616e7366657220746f206e6f6e20455243373231526560408201527131b2b4bb32b91034b6b83632b6b2b73a32b960711b606082015260800190565b60208082526025908201527f4552433732313a207472616e736665722066726f6d20696e636f72726563742060408201526437bbb732b960d91b606082015260800190565b60a081016104388284611d89565b60008219821115611f9b57611f9b612022565b500190565b60005b83811015611fbb578181015183820152602001611fa3565b83811115610c285750506000910152565b600181811c90821680611fe057607f821691505b6020821081141561200157634e487b7160e01b600052602260045260246000fd5b50919050565b600060001982141561201b5761201b612022565b5060010190565b634e487b7160e01b600052601160045260246000fd5b634e487b7160e01b600052604160045260246000fd5b6001600160e01b03198116811461105c57600080fdfea2646970667358221220959aa5541e6657e9dd8617116558ff9acb761133408c76b9df033a53afce642c64736f6c63430008040033",
  "linkReferences": {},
  "deployedLinkReferences": {}
}