{
  "_format": "hh-sol-artifact-1",
  "contractName": "NFTMarketplace",
  "sourceName": "contracts/NFTMarketplace.sol",
  "abi": [
    {
      "inputs": [],
      "stateMutability": "nonpayable",
      "type": "constructor"
    },
    {
      "anonymous": false,
      "inputs": [
        {
          "indexed": true,
          "internalType": "address",
          "name": "owner",
          "type": "address"
        },
        {
          "indexed": true,
          "internalType": "address",
          "name": "approved",
          "type": "address"
        },
        {
          "indexed": true,
          "internalType": "uint256",
          "name": "tokenId",
          "type": "uint256"
        }
      ],
      "name": "Approval",
      "type": "event"
    },
    {
      "anonymous": false,
      "inputs": [
        {
          "indexed": true,
          "internalType": "address",
          "name": "owner",
          "type": "address"
        },
        {
          "indexed": true,
          "internalType": "address",
          "name": "operator",
          "type": "address"
        },
        {
          "indexed": false,
          "internalType": "bool",
          "name": "approved",
          "type": "bool"
        }
      ],
      "name": "ApprovalForAll",
      "type": "event"
    },
    {
      "anonymous": false,
      "inputs": [
        {
          "indexed": false,
          "internalType": "uint256",
          "name": "_fromTokenId",
          "type": "uint256"
        },
        {
          "indexed": false,
          "internalType": "uint256",
          "name": "_toTokenId",
          "type": "uint256"
        }
      ],
      "name": "BatchMetadataUpdate",
      "type": "event"
    },
    {
      "anonymous": false,
      "inputs": [
        {
          "indexed": false,
          "internalType": "uint256",
          "name": "_tokenId",
          "type": "uint256"
        }
      ],
      "name": "MetadataUpdate",
      "type": "event"
    },
    {
      "anonymous": false,
      "inputs": [
        {
          "indexed": true,
          "internalType": "address",
          "name": "from",
          "type": "address"
        },
        {
          "indexed": true,
          "internalType": "address",
          "name": "to",
          "type": "address"
        },
        {
          "indexed": true,
          "internalType": "uint256",
          "name": "tokenId",
          "type": "uint256"
        }
      ],
      "name": "Transfer",
      "type": "event"
    },
    {
      "inputs": [
        {
          "internalType": "address",
          "name": "to",
          "type": "address"
        },
        {
          "internalType": "uint256",
          "name": "tokenId",
          "type": "uint256"
        }
      ],
      "name": "approve",
      "outputs": [],
      "stateMutability": "nonpayable",
      "type": "function"
    },
    {
      "inputs": [
        {
          "internalType": "address",
          "name": "owner",
          "type": "address"
        }
      ],
      "name": "balanceOf",
      "outputs": [
        {
          "internalType": "uint256",
          "name": "",
          "type": "uint256"
        }
      ],
      "stateMutability": "view",
      "type": "function"
    },
    {
      "inputs": [
        {
          "internalType": "string",
          "name": "_tokenURI",
          "type": "string"
        },
        {
          "internalType": "uint256",
          "name": "_price",
          "type": "uint256"
        }
      ],
      "name": "createToken",
      "outputs": [
        {
          "internalType": "uint256",
          "name": "",
          "type": "uint256"
        }
      ],
      "stateMutability": "payable",
      "type": "function"
    },
    {
      "inputs": [
        {
          "internalType": "uint256",
          "name": "_tokenId",
          "type": "uint256"
        }
      ],
      "name": "executeSale",
      "outputs": [],
      "stateMutability": "payable",
      "type": "function"
    },
    {
      "inputs": [],
      "name": "getAllNFTs",
      "outputs": [
        {
          "components": [
            {
              "internalType": "uint256",
              "name": "tokenId",
              "type": "uint256"
            },
            {
              "internalType": "address payable",
              "name": "tokenOwner",
              "type": "address"
            },
            {
              "internalType": "address payable",
              "name": "seller",
              "type": "address"
            },
            {
              "internalType": "address payable",
              "name": "originalNFTCreator",
              "type": "address"
            },
            {
              "internalType": "uint256",
              "name": "price",
              "type": "uint256"
            },
            {
              "internalType": "bool",
              "name": "currentlyListed",
              "type": "bool"
            }
          ],
          "internalType": "struct NFTMarketplace.ListedToken[]",
          "name": "",
          "type": "tuple[]"
        }
      ],
      "stateMutability": "view",
      "type": "function"
    },
    {
      "inputs": [
        {
          "internalType": "uint256",
          "name": "tokenId",
          "type": "uint256"
        }
      ],
      "name": "getApproved",
      "outputs": [
        {
          "internalType": "address",
          "name": "",
          "type": "address"
        }
      ],
      "stateMutability": "view",
      "type": "function"
    },
    {
      "inputs": [],
      "name": "getCurrentTokenId",
      "outputs": [
        {
          "internalType": "uint256",
          "name": "",
          "type": "uint256"
        }
      ],
      "stateMutability": "view",
      "type": "function"
    },
    {
      "inputs": [],
      "name": "getLatestListedIdToListedToken",
      "outputs": [
        {
          "components": [
            {
              "internalType": "uint256",
              "name": "tokenId",
              "type": "uint256"
            },
            {
              "internalType": "address payable",
              "name": "tokenOwner",
              "type": "address"
            },
            {
              "internalType": "address payable",
              "name": "seller",
              "type": "address"
            },
            {
              "internalType": "address payable",
              "name": "originalNFTCreator",
              "type": "address"
            },
            {
              "internalType": "uint256",
              "name": "price",
              "type": "uint256"
            },
            {
              "internalType": "bool",
              "name": "currentlyListed",
              "type": "bool"
            }
          ],
          "internalType": "struct NFTMarketplace.ListedToken",
          "name": "",
          "type": "tuple"
        }
      ],
      "stateMutability": "view",
      "type": "function"
    },
    {
      "inputs": [],
      "name": "getListPrice",
      "outputs": [
        {
          "internalType": "uint256",
          "name": "",
          "type": "uint256"
        }
      ],
      "stateMutability": "view",
      "type": "function"
    },
    {
      "inputs": [
        {
          "internalType": "uint256",
          "name": "_tokenId",
          "type": "uint256"
        }
      ],
      "name": "getListedForTokenId",
      "outputs": [
        {
          "components": [
            {
              "internalType": "uint256",
              "name": "tokenId",
              "type": "uint256"
            },
            {
              "internalType": "address payable",
              "name": "tokenOwner",
              "type": "address"
            },
            {
              "internalType": "address payable",
              "name": "seller",
              "type": "address"
            },
            {
              "internalType": "address payable",
              "name": "originalNFTCreator",
              "type": "address"
            },
            {
              "internalType": "uint256",
              "name": "price",
              "type": "uint256"
            },
            {
              "internalType": "bool",
              "name": "currentlyListed",
              "type": "bool"
            }
          ],
          "internalType": "struct NFTMarketplace.ListedToken",
          "name": "",
          "type": "tuple"
        }
      ],
      "stateMutability": "view",
      "type": "function"
    },
    {
      "inputs": [],
      "name": "getMyNFTs",
      "outputs": [
        {
          "components": [
            {
              "internalType": "uint256",
              "name": "tokenId",
              "type": "uint256"
            },
            {
              "internalType": "address payable",
              "name": "tokenOwner",
              "type": "address"
            },
            {
              "internalType": "address payable",
              "name": "seller",
              "type": "address"
            },
            {
              "internalType": "address payable",
              "name": "originalNFTCreator",
              "type": "address"
            },
            {
              "internalType": "uint256",
              "name": "price",
              "type": "uint256"
            },
            {
              "internalType": "bool",
              "name": "currentlyListed",
              "type": "bool"
            }
          ],
          "internalType": "struct NFTMarketplace.ListedToken[]",
          "name": "",
          "type": "tuple[]"
        }
      ],
      "stateMutability": "view",
      "type": "function"
    },
    {
      "inputs": [
        {
          "internalType": "address",
          "name": "owner",
          "type": "address"
        },
        {
          "internalType": "address",
          "name": "operator",
          "type": "address"
        }
      ],
      "name": "isApprovedForAll",
      "outputs": [
        {
          "internalType": "bool",
          "name": "",
          "type": "bool"
        }
      ],
      "stateMutability": "view",
      "type": "function"
    },
    {
      "inputs": [],
      "name": "name",
      "outputs": [
        {
          "internalType": "string",
          "name": "",
          "type": "string"
        }
      ],
      "stateMutability": "view",
      "type": "function"
    },
    {
      "inputs": [
        {
          "internalType": "uint256",
          "name": "tokenId",
          "type": "uint256"
        }
      ],
      "name": "ownerOf",
      "outputs": [
        {
          "internalType": "address",
          "name": "",
          "type": "address"
        }
      ],
      "stateMutability": "view",
      "type": "function"
    },
    {
      "inputs": [
        {
          "internalType": "address",
          "name": "from",
          "type": "address"
        },
        {
          "internalType": "address",
          "name": "to",
          "type": "address"
        },
        {
          "internalType": "uint256",
          "name": "tokenId",
          "type": "uint256"
        }
      ],
      "name": "safeTransferFrom",
      "outputs": [],
      "stateMutability": "nonpayable",
      "type": "function"
    },
    {
      "inputs": [
        {
          "internalType": "address",
          "name": "from",
          "type": "address"
        },
        {
          "internalType": "address",
          "name": "to",
          "type": "address"
        },
        {
          "internalType": "uint256",
          "name": "tokenId",
          "type": "uint256"
        },
        {
          "internalType": "bytes",
          "name": "data",
          "type": "bytes"
        }
      ],
      "name": "safeTransferFrom",
      "outputs": [],
      "stateMutability": "nonpayable",
      "type": "function"
    },
    {
      "inputs": [
        {
          "internalType": "address",
          "name": "operator",
          "type": "address"
        },
        {
          "internalType": "bool",
          "name": "approved",
          "type": "bool"
        }
      ],
      "name": "setApprovalForAll",
      "outputs": [],
      "stateMutability": "nonpayable",
      "type": "function"
    },
    {
      "inputs": [
        {
          "internalType": "bytes4",
          "name": "interfaceId",
          "type": "bytes4"
        }
      ],
      "name": "supportsInterface",
      "outputs": [
        {
          "internalType": "bool",
          "name": "",
          "type": "bool"
        }
      ],
      "stateMutability": "view",
      "type": "function"
    },
    {
      "inputs": [],
      "name": "symbol",
      "outputs": [
        {
          "internalType": "string",
          "name": "",
          "type": "string"
        }
      ],
      "stateMutability": "view",
      "type": "function"
    },
    {
      "inputs": [
        {
          "internalType": "uint256",
          "name": "tokenId",
          "type": "uint256"
        }
      ],
      "name": "tokenURI",
      "outputs": [
        {
          "internalType": "string",
          "name": "",
          "type": "string"
        }
      ],
      "stateMutability": "view",
      "type": "function"
    },
    {
      "inputs": [
        {
          "internalType": "address",
          "name": "from",
          "type": "address"
        },
        {
          "internalType": "address",
          "name": "to",
          "type": "address"
        },
        {
          "internalType": "uint256",
          "name": "tokenId",
          "type": "uint256"
        }
      ],
      "name": "transferFrom",
      "outputs": [],
      "stateMutability": "nonpayable",
      "type": "function"
    },
    {
      "inputs": [
        {
          "internalType": "uint256",
          "name": "_listPrice",
          "type": "uint256"
        }
      ],
      "name": "updateListPrice",
      "outputs": [],
      "stateMutability": "payable",
      "type": "function"
    }
  ],
  "bytecode": "0x6080604052662386f26fc10000600a553480156200001c57600080fd5b50604080518082018252600e81526d4e46544d61726b6574706c61636560901b6020808301918252835180850190945260048452634e46544d60e01b9084015281519192916200006f91600091620000a0565b50805162000085906001906020840190620000a0565b5050600780546001600160a01b031916331790555062000183565b828054620000ae9062000146565b90600052602060002090601f016020900481019282620000d257600085556200011d565b82601f10620000ed57805160ff19168380011785556200011d565b828001600101855582156200011d579182015b828111156200011d57825182559160200191906001019062000100565b506200012b9291506200012f565b5090565b5b808211156200012b576000815560010162000130565b600181811c908216806200015b57607f821691505b602082108114156200017d57634e487b7160e01b600052602260045260246000fd5b50919050565b61253c80620001936000396000f3fe6080604052600436106101355760003560e01c806372b3b620116100ab578063b88d4fde1161006f578063b88d4fde1461034d578063c322579c1461036d578063c87b56dd14610380578063d2fb42de146103a0578063e0391b09146103b5578063e985e9c5146103ca57600080fd5b806372b3b620146102c557806395d89b41146102d857806398c3df16146102ed5780639b1225c41461031a578063a22cb4651461032d57600080fd5b806342842e0e116100fd57806342842e0e1461020b578063561892361461022b578063629cb2e41461024e5780636352211e1461027057806368f1945f1461029057806370a08231146102a557600080fd5b806301ffc9a71461013a57806306fdde031461016f578063081812fc14610191578063095ea7b3146101c957806323b872dd146101eb575b600080fd5b34801561014657600080fd5b5061015a6101553660046120cc565b610413565b60405190151581526020015b60405180910390f35b34801561017b57600080fd5b5061018461043e565b60405161016691906122a4565b34801561019d57600080fd5b506101b16101ac36600461215a565b6104d0565b6040516001600160a01b039091168152602001610166565b3480156101d557600080fd5b506101e96101e43660046120a3565b6104f7565b005b3480156101f757600080fd5b506101e9610206366004611fb5565b610612565b34801561021757600080fd5b506101e9610226366004611fb5565b610643565b34801561023757600080fd5b5061024061065e565b604051908152602001610166565b34801561025a57600080fd5b5061026361066e565b6040516101669190612256565b34801561027c57600080fd5b506101b161028b36600461215a565b61088e565b34801561029c57600080fd5b50600a54610240565b3480156102b157600080fd5b506102406102c0366004611f69565b6108ee565b6102406102d3366004612104565b610974565b3480156102e457600080fd5b50610184610a6d565b3480156102f957600080fd5b5061030d61030836600461215a565b610a7c565b604051610166919061239b565b6101e961032836600461215a565b610af0565b34801561033957600080fd5b506101e9610348366004612069565b610f53565b34801561035957600080fd5b506101e9610368366004611ff0565b610f62565b6101e961037b36600461215a565b610f9a565b34801561038c57600080fd5b5061018461039b36600461215a565b611009565b3480156103ac57600080fd5b5061030d61111a565b3480156103c157600080fd5b5061026361119b565b3480156103d657600080fd5b5061015a6103e5366004611f83565b6001600160a01b03918216600090815260056020908152604080832093909416825291909152205460ff1690565b60006001600160e01b03198216632483248360e11b14806104385750610438826112ed565b92915050565b60606000805461044d9061242c565b80601f01602080910402602001604051908101604052809291908181526020018280546104799061242c565b80156104c65780601f1061049b576101008083540402835291602001916104c6565b820191906000526020600020905b8154815290600101906020018083116104a957829003601f168201915b5050505050905090565b60006104db8261133d565b506000908152600460205260409020546001600160a01b031690565b60006105028261088e565b9050806001600160a01b0316836001600160a01b031614156105755760405162461bcd60e51b815260206004820152602160248201527f4552433732313a20617070726f76616c20746f2063757272656e74206f776e656044820152603960f91b60648201526084015b60405180910390fd5b336001600160a01b0382161480610591575061059181336103e5565b6106035760405162461bcd60e51b815260206004820152603d60248201527f4552433732313a20617070726f76652063616c6c6572206973206e6f7420746f60448201527f6b656e206f776e6572206f7220617070726f76656420666f7220616c6c000000606482015260840161056c565b61060d838361139f565b505050565b61061c338261140d565b6106385760405162461bcd60e51b815260040161056c906122b7565b61060d83838361148b565b61060d83838360405180602001604052806000815250610f62565b600061066960085490565b905090565b6060600061067b60085490565b905060008060005b838110156107025760006106988260016123a9565b6000818152600b60205260409020600101549091506001600160a01b03163314806106dc57506000818152600b60205260409020600201546001600160a01b031633145b156106ef57836106eb81612467565b9450505b50806106fa81612467565b915050610683565b5060008267ffffffffffffffff81111561072c57634e487b7160e01b600052604160045260246000fd5b60405190808252806020026020018201604052801561076557816020015b610752611e09565b81526020019060019003908161074a5790505b50905060005b848110156108855760006107808260016123a9565b6000818152600b60205260409020600101549091506001600160a01b03163314806107c457506000818152600b60205260409020600201546001600160a01b031633145b15610872576000818152600b6020908152604091829020825160c0810184528154815260018201546001600160a01b039081169382019390935260028201548316938101939093526003810154909116606083015260048101546080830152600581015460ff16151560a0830152845190919085908790811061085757634e487b7160e01b600052603260045260246000fd5b6020026020010181905250848061086d90612467565b955050505b508061087d81612467565b91505061076b565b50949350505050565b6000818152600260205260408120546001600160a01b0316806104385760405162461bcd60e51b8152602060048201526018602482015277115490cdcc8c4e881a5b9d985b1a59081d1bdad95b88125160421b604482015260640161056c565b60006001600160a01b0382166109585760405162461bcd60e51b815260206004820152602960248201527f4552433732313a2061646472657373207a65726f206973206e6f7420612076616044820152683634b21037bbb732b960b91b606482015260840161056c565b506001600160a01b031660009081526003602052604090205490565b6000600a5434146109d25760405162461bcd60e51b815260206004820152602260248201527f53656e6420656e6f75676820657468657220746f206c69737420796f7572204e604482015261119560f21b606482015260840161056c565b60008211610a2d5760405162461bcd60e51b815260206004820152602260248201527f4d616b652073757265207468652070726963652069736e2774206e6567617469604482015261766560f01b606482015260840161056c565b610a3b600880546001019055565b6000610a4660085490565b9050610a5233826115ef565b610a5c8185611609565b610a6681846116db565b9392505050565b60606001805461044d9061242c565b610a84611e09565b506000908152600b6020908152604091829020825160c0810184528154815260018201546001600160a01b0390811693820193909352600282015483169381019390935260038101549091166060830152600481015460808301526005015460ff16151560a082015290565b6000818152600b6020526040902060040154348114610b705760405162461bcd60e51b815260206004820152603660248201527f53656e64207468652061736b696e6720707269636520666f7220746865204e466044820152755420696e206f7264657220746f20707572636861736560501b606482015260840161056c565b6000828152600b60205260409020600101546001600160a01b031630811415610ddc57600754600a546040516001600160a01b039092169181156108fc0291906000818181858888f19350505050158015610bcf573d6000803e3d6000fd5b506000838152600b60205260408120600201546001600160a01b0316906064610bf934605a6123e1565b610c0391906123c1565b6040519091506001600160a01b0383169082156108fc029083906000818181858888f19350505050158015610c3c573d6000803e3d6000fd5b506000858152600b60205260408120600301546001600160a01b0316906064610c6634600a6123e1565b610c7091906123c1565b6040519091506001600160a01b0383169082156108fc029083906000818181858888f19350505050158015610ca9573d6000803e3d6000fd5b506000878152600b6020526040902060058101805460ff1916600117905560020180546001600160a01b03191633179055610ce8600980546001019055565b610d096040518060600160405280602181526020016124c560219139611791565b610d12856117d4565b610d336040518060600160405280602181526020016124e660219139611791565b610d3c336117d4565b610d4730338961148b565b610d5130886104f7565b6000878152600b602090815260409182902060010180546001600160a01b0319163317905581518083019092528082527f546f6b656e204f776e65722076616c7565206166746572207472616e7366657290820152610daf90611791565b6000878152600b6020526040902060010154610dd3906001600160a01b03166117d4565b50505050505050565b6000838152600b60205260408120600201546001600160a01b0316906064610e0534605a6123e1565b610e0f91906123c1565b6040519091506001600160a01b0383169082156108fc029083906000818181858888f19350505050158015610e48573d6000803e3d6000fd5b506000858152600b60205260408120600301546001600160a01b0316906064610e7234600a6123e1565b610e7c91906123c1565b6040519091506001600160a01b0383169082156108fc029083906000818181858888f19350505050158015610eb5573d6000803e3d6000fd5b506000878152600b6020526040902060058101805460ff1916600117905560020180546001600160a01b03191633179055610ef4600980546001019055565b610f156040518060600160405280602181526020016124c560219139611791565b610f1e856117d4565b610f3f6040518060600160405280602181526020016124e660219139611791565b610f48336117d4565b610d4785338961148b565b610f5e33838361181c565b5050565b610f6c338361140d565b610f885760405162461bcd60e51b815260040161056c906122b7565b610f94848484846118eb565b50505050565b6007546001600160a01b031633146110045760405162461bcd60e51b815260206004820152602760248201527f4f6e6c79206f776e65722063616e2075706461746520746865206c697374696e6044820152666720707269636560c81b606482015260840161056c565b600a55565b60606110148261133d565b6000828152600660205260408120805461102d9061242c565b80601f01602080910402602001604051908101604052809291908181526020018280546110599061242c565b80156110a65780601f1061107b576101008083540402835291602001916110a6565b820191906000526020600020905b81548152906001019060200180831161108957829003601f168201915b5050505050905060006110c460408051602081019091526000815290565b90508051600014156110d7575092915050565b8151156111095780826040516020016110f19291906121ea565b60405160208183030381529060405292505050919050565b6111128461191e565b949350505050565b611122611e09565b600061112d60085490565b6000908152600b6020908152604091829020825160c0810184528154815260018201546001600160a01b0390811693820193909352600282015483169381019390935260038101549091166060830152600481015460808301526005015460ff16151560a082015292915050565b606060006111a860085490565b905060008167ffffffffffffffff8111156111d357634e487b7160e01b600052604160045260246000fd5b60405190808252806020026020018201604052801561120c57816020015b6111f9611e09565b8152602001906001900390816111f15790505b5090506000805b838110156112e45760006112288260016123a9565b6000818152600b6020908152604091829020825160c0810184528154815260018201546001600160a01b039081169382019390935260028201548316938101939093526003810154909116606083015260048101546080830152600581015460ff16151560a08301528651929350918690869081106112b757634e487b7160e01b600052603260045260246000fd5b60209081029190910101526112cd6001856123a9565b9350505080806112dc90612467565b915050611213565b50909392505050565b60006001600160e01b031982166380ac58cd60e01b148061131e57506001600160e01b03198216635b5e139f60e01b145b8061043857506301ffc9a760e01b6001600160e01b0319831614610438565b6000818152600260205260409020546001600160a01b031661139c5760405162461bcd60e51b8152602060048201526018602482015277115490cdcc8c4e881a5b9d985b1a59081d1bdad95b88125160421b604482015260640161056c565b50565b600081815260046020526040902080546001600160a01b0319166001600160a01b03841690811790915581906113d48261088e565b6001600160a01b03167f8c5be1e5ebec7d5bd14f71427d1e84f3dd0314c0f7b2291e5b200ac8c7c3b92560405160405180910390a45050565b6000806114198361088e565b9050806001600160a01b0316846001600160a01b0316148061146057506001600160a01b0380821660009081526005602090815260408083209388168352929052205460ff165b806111125750836001600160a01b0316611479846104d0565b6001600160a01b031614949350505050565b826001600160a01b031661149e8261088e565b6001600160a01b0316146114c45760405162461bcd60e51b815260040161056c90612356565b6001600160a01b0382166115265760405162461bcd60e51b8152602060048201526024808201527f4552433732313a207472616e7366657220746f20746865207a65726f206164646044820152637265737360e01b606482015260840161056c565b826001600160a01b03166115398261088e565b6001600160a01b03161461155f5760405162461bcd60e51b815260040161056c90612356565b600081815260046020908152604080832080546001600160a01b03199081169091556001600160a01b0387811680865260038552838620805460001901905590871680865283862080546001019055868652600290945282852080549092168417909155905184937fddf252ad1be2c89b69c2b068fc378daa952ba7f163c4a11628f55a4df523b3ef91a4505050565b610f5e828260405180602001604052806000815250611991565b6000828152600260205260409020546001600160a01b03166116845760405162461bcd60e51b815260206004820152602e60248201527f45524337323155524953746f726167653a2055524920736574206f66206e6f6e60448201526d32bc34b9ba32b73a103a37b5b2b760911b606482015260840161056c565b600082815260066020908152604090912082516116a392840190611e3e565b506040518281527ff8e1a15aba9398e019f0b49df1a4fde98ee17ae345cb5f6b5e2c27f5033e8ce79060200160405180910390a15050565b6040805160c081018252838152306020808301828152338486018181526060860182815260808701898152600160a0890181815260008d8152600b9098529990962097518855935194870180546001600160a01b03199081166001600160a01b0397881617909155915160028801805484169187169190911790555160038701805490921694169390931790925551600484015592516005909201805460ff191692151592909217909155610f5e91908461148b565b61139c816040516024016117a591906122a4565b60408051601f198184030181529190526020810180516001600160e01b031663104c13eb60e21b1790526119c4565b6040516001600160a01b038216602482015261139c9060440160408051601f198184030181529190526020810180516001600160e01b031663161765e160e11b1790526119c4565b816001600160a01b0316836001600160a01b0316141561187e5760405162461bcd60e51b815260206004820152601960248201527f4552433732313a20617070726f766520746f2063616c6c657200000000000000604482015260640161056c565b6001600160a01b03838116600081815260056020908152604080832094871680845294825291829020805460ff191686151590811790915591519182527f17307eab39ab6107e8899845ad3d59bd9653f200f220920489ca2b5937696c31910160405180910390a3505050565b6118f684848461148b565b611902848484846119cd565b610f945760405162461bcd60e51b815260040161056c90612304565b60606119298261133d565b600061194060408051602081019091526000815290565b905060008151116119605760405180602001604052806000815250610a66565b8061196a84611ada565b60405160200161197b9291906121ea565b6040516020818303038152906040529392505050565b61199b8383611b85565b6119a860008484846119cd565b61060d5760405162461bcd60e51b815260040161056c90612304565b61139c81611d10565b60006001600160a01b0384163b15611acf57604051630a85bd0160e11b81526001600160a01b0385169063150b7a0290611a11903390899088908890600401612219565b602060405180830381600087803b158015611a2b57600080fd5b505af1925050508015611a5b575060408051601f3d908101601f19168201909252611a58918101906120e8565b60015b611ab5573d808015611a89576040519150601f19603f3d011682016040523d82523d6000602084013e611a8e565b606091505b508051611aad5760405162461bcd60e51b815260040161056c90612304565b805181602001fd5b6001600160e01b031916630a85bd0160e11b149050611112565b506001949350505050565b60606000611ae783611d31565b600101905060008167ffffffffffffffff811115611b1557634e487b7160e01b600052604160045260246000fd5b6040519080825280601f01601f191660200182016040528015611b3f576020820181803683370190505b5090508181016020015b600019016f181899199a1a9b1b9c1cb0b131b232b360811b600a86061a8153600a8504945084611b7857611b7d565b611b49565b509392505050565b6001600160a01b038216611bdb5760405162461bcd60e51b815260206004820181905260248201527f4552433732313a206d696e7420746f20746865207a65726f2061646472657373604482015260640161056c565b6000818152600260205260409020546001600160a01b031615611c405760405162461bcd60e51b815260206004820152601c60248201527f4552433732313a20746f6b656e20616c7265616479206d696e74656400000000604482015260640161056c565b6000818152600260205260409020546001600160a01b031615611ca55760405162461bcd60e51b815260206004820152601c60248201527f4552433732313a20746f6b656e20616c7265616479206d696e74656400000000604482015260640161056c565b6001600160a01b038216600081815260036020908152604080832080546001019055848352600290915280822080546001600160a01b0319168417905551839291907fddf252ad1be2c89b69c2b068fc378daa952ba7f163c4a11628f55a4df523b3ef908290a45050565b60006a636f6e736f6c652e6c6f679050600080835160208501845afa505050565b60008072184f03e93ff9f4daa797ed6e38ed64bf6a1f0160401b8310611d705772184f03e93ff9f4daa797ed6e38ed64bf6a1f0160401b830492506040015b6d04ee2d6d415b85acef81000000008310611d9c576d04ee2d6d415b85acef8100000000830492506020015b662386f26fc100008310611dba57662386f26fc10000830492506010015b6305f5e1008310611dd2576305f5e100830492506008015b6127108310611de657612710830492506004015b60648310611df8576064830492506002015b600a83106104385760010192915050565b6040805160c081018252600080825260208201819052918101829052606081018290526080810182905260a081019190915290565b828054611e4a9061242c565b90600052602060002090601f016020900481019282611e6c5760008555611eb2565b82601f10611e8557805160ff1916838001178555611eb2565b82800160010185558215611eb2579182015b82811115611eb2578251825591602001919060010190611e97565b50611ebe929150611ec2565b5090565b5b80821115611ebe5760008155600101611ec3565b600067ffffffffffffffff80841115611ef257611ef2612498565b604051601f8501601f19908116603f01168101908282118183101715611f1a57611f1a612498565b81604052809350858152868686011115611f3357600080fd5b858560208301376000602087830101525050509392505050565b80356001600160a01b0381168114611f6457600080fd5b919050565b600060208284031215611f7a578081fd5b610a6682611f4d565b60008060408385031215611f95578081fd5b611f9e83611f4d565b9150611fac60208401611f4d565b90509250929050565b600080600060608486031215611fc9578081fd5b611fd284611f4d565b9250611fe060208501611f4d565b9150604084013590509250925092565b60008060008060808587031215612005578081fd5b61200e85611f4d565b935061201c60208601611f4d565b925060408501359150606085013567ffffffffffffffff81111561203e578182fd5b8501601f8101871361204e578182fd5b61205d87823560208401611ed7565b91505092959194509250565b6000806040838503121561207b578182fd5b61208483611f4d565b915060208301358015158114612098578182fd5b809150509250929050565b600080604083850312156120b5578182fd5b6120be83611f4d565b946020939093013593505050565b6000602082840312156120dd578081fd5b8135610a66816124ae565b6000602082840312156120f9578081fd5b8151610a66816124ae565b60008060408385031215612116578182fd5b823567ffffffffffffffff81111561212c578283fd5b8301601f8101851361213c578283fd5b61214b85823560208401611ed7565b95602094909401359450505050565b60006020828403121561216b578081fd5b5035919050565b6000815180845261218a816020860160208601612400565b601f01601f19169290920160200192915050565b80518252602081015160018060a01b03808216602085015280604084015116604085015280606084015116606085015250506080810151608083015260a0810151151560a08301525050565b600083516121fc818460208801612400565b835190830190612210818360208801612400565b01949350505050565b6001600160a01b038581168252841660208201526040810183905260806060820181905260009061224c90830184612172565b9695505050505050565b6020808252825182820181905260009190848201906040850190845b818110156122985761228583855161219e565b9284019260c09290920191600101612272565b50909695505050505050565b602081526000610a666020830184612172565b6020808252602d908201527f4552433732313a2063616c6c6572206973206e6f7420746f6b656e206f776e6560408201526c1c881bdc88185c1c1c9bdd9959609a1b606082015260800190565b60208082526032908201527f4552433732313a207472616e7366657220746f206e6f6e20455243373231526560408201527131b2b4bb32b91034b6b83632b6b2b73a32b960711b606082015260800190565b60208082526025908201527f4552433732313a207472616e736665722066726f6d20696e636f72726563742060408201526437bbb732b960d91b606082015260800190565b60c08101610438828461219e565b600082198211156123bc576123bc612482565b500190565b6000826123dc57634e487b7160e01b81526012600452602481fd5b500490565b60008160001904831182151516156123fb576123fb612482565b500290565b60005b8381101561241b578181015183820152602001612403565b83811115610f945750506000910152565b600181811c9082168061244057607f821691505b6020821081141561246157634e487b7160e01b600052602260045260246000fd5b50919050565b600060001982141561247b5761247b612482565b5060010190565b634e487b7160e01b600052601160045260246000fd5b634e487b7160e01b600052604160045260246000fd5b6001600160e01b03198116811461139c57600080fdfe546f6b656e204f776e65722076616c7565206265666f7265207472616e7366657241646472657373206f6620746865207472616e73616374696f6e2073656e646572a2646970667358221220277f4deae31265f1a9e8388a0489f79544e6f26fa968dd1a6db338c41c66683464736f6c63430008040033",
  "linkReferences": {},
  "deployedLinkReferences": {}
}