{
  "_format": "hh-sol-artifact-1",
  "contractName": "Casino",
  "sourceName": "contracts/Casino.sol",
  "abi": [
    {
      "anonymous": false,
      "inputs": [
        {
          "indexed": true,
          "internalType": "uint256",
          "name": "_commitment",
          "type": "uint256"
        },
        {
          "indexed": true,
          "internalType": "address",
          "name": "_sideA",
          "type": "address"
        }
      ],
      "name": "BetAccepted",
      "type": "event"
    },
    {
      "anonymous": false,
      "inputs": [
        {
          "indexed": true,
          "internalType": "uint256",
          "name": "_commitment",
          "type": "uint256"
        },
        {
          "indexed": false,
          "internalType": "uint256",
          "name": "value",
          "type": "uint256"
        }
      ],
      "name": "BetProposed",
      "type": "event"
    },
    {
      "anonymous": false,
      "inputs": [
        {
          "indexed": true,
          "internalType": "uint256",
          "name": "_commitment",
          "type": "uint256"
        },
        {
          "indexed": false,
          "internalType": "address",
          "name": "winner",
          "type": "address"
        },
        {
          "indexed": false,
          "internalType": "address",
          "name": "loser",
          "type": "address"
        },
        {
          "indexed": false,
          "internalType": "uint256",
          "name": "value",
          "type": "uint256"
        }
      ],
      "name": "BetSettled",
      "type": "event"
    },
    {
      "inputs": [
        {
          "internalType": "uint256",
          "name": "_commitment",
          "type": "uint256"
        },
        {
          "internalType": "uint256",
          "name": "_random",
          "type": "uint256"
        }
      ],
      "name": "acceptBet",
      "outputs": [],
      "stateMutability": "payable",
      "type": "function"
    },
    {
      "inputs": [
        {
          "internalType": "uint256",
          "name": "",
          "type": "uint256"
        }
      ],
      "name": "acceptedBet",
      "outputs": [
        {
          "internalType": "address",
          "name": "sideB",
          "type": "address"
        },
        {
          "internalType": "uint256",
          "name": "acceptedAt",
          "type": "uint256"
        },
        {
          "internalType": "uint256",
          "name": "randomB",
          "type": "uint256"
        }
      ],
      "stateMutability": "view",
      "type": "function"
    },
    {
      "inputs": [
        {
          "internalType": "uint256",
          "name": "_commitment",
          "type": "uint256"
        }
      ],
      "name": "executeForfeit",
      "outputs": [],
      "stateMutability": "nonpayable",
      "type": "function"
    },
    {
      "inputs": [
        {
          "internalType": "uint256",
          "name": "_commitment",
          "type": "uint256"
        }
      ],
      "name": "proposeBet",
      "outputs": [],
      "stateMutability": "payable",
      "type": "function"
    },
    {
      "inputs": [
        {
          "internalType": "uint256",
          "name": "",
          "type": "uint256"
        }
      ],
      "name": "proposedBet",
      "outputs": [
        {
          "internalType": "address",
          "name": "sideA",
          "type": "address"
        },
        {
          "internalType": "uint256",
          "name": "value",
          "type": "uint256"
        },
        {
          "internalType": "uint256",
          "name": "placedAt",
          "type": "uint256"
        },
        {
          "internalType": "bool",
          "name": "accepted",
          "type": "bool"
        }
      ],
      "stateMutability": "view",
      "type": "function"
    },
    {
      "inputs": [
        {
          "internalType": "uint256",
          "name": "_random",
          "type": "uint256"
        }
      ],
      "name": "reveal",
      "outputs": [],
      "stateMutability": "nonpayable",
      "type": "function"
    }
  ],
  "bytecode": "0x6080604052601460025534801561001557600080fd5b50611611806100256000396000f3fe6080604052600436106100555760003560e01c80630a3f297a1461005a578063427051c81461009a57806386e30f2e146100d9578063c2ca0ac5146100f5578063d43faafd1461011e578063ef3bf5691461013a575b600080fd5b34801561006657600080fd5b50610081600480360381019061007c9190610d0b565b610163565b6040516100919493929190610da3565b60405180910390f35b3480156100a657600080fd5b506100c160048036038101906100bc9190610d0b565b6101c0565b6040516100d093929190610de8565b60405180910390f35b6100f360048036038101906100ee9190610e1f565b61020a565b005b34801561010157600080fd5b5061011c60048036038101906101179190610d0b565b61049e565b005b61013860048036038101906101339190610d0b565b610835565b005b34801561014657600080fd5b50610161600480360381019061015c9190610d0b565b610993565b005b60006020528060005260406000206000915090508060000160009054906101000a900473ffffffffffffffffffffffffffffffffffffffff16908060010154908060020154908060030160009054906101000a900460ff16905084565b60016020528060005260406000206000915090508060000160009054906101000a900473ffffffffffffffffffffffffffffffffffffffff16908060010154908060020154905083565b60008083815260200190815260200160002060030160009054906101000a900460ff161561026d576040517f08c379a000000000000000000000000000000000000000000000000000000000815260040161026490610ebc565b60405180910390fd5b600073ffffffffffffffffffffffffffffffffffffffff1660008084815260200190815260200160002060000160009054906101000a900473ffffffffffffffffffffffffffffffffffffffff1673ffffffffffffffffffffffffffffffffffffffff1603610311576040517f08c379a000000000000000000000000000000000000000000000000000000000815260040161030890610f28565b60405180910390fd5b600080838152602001908152602001600020600101543414610368576040517f08c379a000000000000000000000000000000000000000000000000000000000815260040161035f90610fba565b60405180910390fd5b336001600084815260200190815260200160002060000160006101000a81548173ffffffffffffffffffffffffffffffffffffffff021916908373ffffffffffffffffffffffffffffffffffffffff160217905550426001600084815260200190815260200160002060010181905550806001600084815260200190815260200160002060020181905550600160008084815260200190815260200160002060030160006101000a81548160ff02191690831515021790555060008083815260200190815260200160002060000160009054906101000a900473ffffffffffffffffffffffffffffffffffffffff1673ffffffffffffffffffffffffffffffffffffffff16827fb727a22534e43d337addefe6245e691859b29f7bf356bc7e6d77ff92070fe12460405160405180910390a35050565b6000816040516020016104b19190610ffb565b6040516020818303038152906040528051906020012060001c9050600033905060006001600084815260200190815260200160002060000160009054906101000a900473ffffffffffffffffffffffffffffffffffffffff169050600060016000858152602001908152602001600020600201548518905060008060008681526020019081526020016000206001015490503373ffffffffffffffffffffffffffffffffffffffff1660008087815260200190815260200160002060000160009054906101000a900473ffffffffffffffffffffffffffffffffffffffff1673ffffffffffffffffffffffffffffffffffffffff16146105e6576040517f08c379a00000000000000000000000000000000000000000000000000000000081526004016105dd90611088565b60405180910390fd5b60008086815260200190815260200160002060030160009054906101000a900460ff16610648576040517f08c379a000000000000000000000000000000000000000000000000000000000815260040161063f906110f4565b60405180910390fd5b60006002836106579190611143565b036106f0578373ffffffffffffffffffffffffffffffffffffffff166108fc82600261068391906111a3565b9081150290604051600060405180830381858888f193505050501580156106ae573d6000803e3d6000fd5b50847f0de94fe793c61cadb0d5993f7621dc7abda95f3f6e7eac8044a5a9b17ba099d08585846040516106e393929190611244565b60405180910390a2610780565b8273ffffffffffffffffffffffffffffffffffffffff166108fc82600261071791906111a3565b9081150290604051600060405180830381858888f19350505050158015610742573d6000803e3d6000fd5b50847f0de94fe793c61cadb0d5993f7621dc7abda95f3f6e7eac8044a5a9b17ba099d084868460405161077793929190611244565b60405180910390a25b600080868152602001908152602001600020600080820160006101000a81549073ffffffffffffffffffffffffffffffffffffffff0219169055600182016000905560028201600090556003820160006101000a81549060ff0219169055505060016000868152602001908152602001600020600080820160006101000a81549073ffffffffffffffffffffffffffffffffffffffff0219169055600182016000905560028201600090555050505050505050565b6000806000838152602001908152602001600020600101541461088d576040517f08c379a0000000000000000000000000000000000000000000000000000000008152600401610884906112ed565b60405180910390fd5b600034116108d0576040517f08c379a00000000000000000000000000000000000000000000000000000000081526004016108c79061137f565b60405180910390fd5b3360008083815260200190815260200160002060000160006101000a81548173ffffffffffffffffffffffffffffffffffffffff021916908373ffffffffffffffffffffffffffffffffffffffff16021790555034600080838152602001908152602001600020600101819055504260008083815260200190815260200160002060020181905550807fbe20caab9fd377d44064d0b07b3f918ac14a5649351da4e9e27f29989d96a8e834604051610988919061139f565b60405180910390a250565b60008082815260200190815260200160002060030160009054906101000a900460ff166109f5576040517f08c379a00000000000000000000000000000000000000000000000000000000081526004016109ec9061142c565b60405180910390fd5b3373ffffffffffffffffffffffffffffffffffffffff166001600083815260200190815260200160002060000160009054906101000a900473ffffffffffffffffffffffffffffffffffffffff1673ffffffffffffffffffffffffffffffffffffffff1614610a99576040517f08c379a0000000000000000000000000000000000000000000000000000000008152600401610a90906114be565b60405180910390fd5b6002546001600083815260200190815260200160002060010154610abd91906114de565b421015610aff576040517f08c379a0000000000000000000000000000000000000000000000000000000008152600401610af690611584565b60405180910390fd5b600080600083815260200190815260200160002060000160009054906101000a900473ffffffffffffffffffffffffffffffffffffffff16905060006001600084815260200190815260200160002060000160009054906101000a900473ffffffffffffffffffffffffffffffffffffffff16905060008060008581526020019081526020016000206001015490508173ffffffffffffffffffffffffffffffffffffffff166108fc826002610bb591906111a3565b9081150290604051600060405180830381858888f19350505050158015610be0573d6000803e3d6000fd5b50837f0de94fe793c61cadb0d5993f7621dc7abda95f3f6e7eac8044a5a9b17ba099d0838584604051610c15939291906115a4565b60405180910390a2600080858152602001908152602001600020600080820160006101000a81549073ffffffffffffffffffffffffffffffffffffffff0219169055600182016000905560028201600090556003820160006101000a81549060ff0219169055505060016000858152602001908152602001600020600080820160006101000a81549073ffffffffffffffffffffffffffffffffffffffff021916905560018201600090556002820160009055505050505050565b600080fd5b6000819050919050565b610ce881610cd5565b8114610cf357600080fd5b50565b600081359050610d0581610cdf565b92915050565b600060208284031215610d2157610d20610cd0565b5b6000610d2f84828501610cf6565b91505092915050565b600073ffffffffffffffffffffffffffffffffffffffff82169050919050565b6000610d6382610d38565b9050919050565b610d7381610d58565b82525050565b610d8281610cd5565b82525050565b60008115159050919050565b610d9d81610d88565b82525050565b6000608082019050610db86000830187610d6a565b610dc56020830186610d79565b610dd26040830185610d79565b610ddf6060830184610d94565b95945050505050565b6000606082019050610dfd6000830186610d6a565b610e0a6020830185610d79565b610e176040830184610d79565b949350505050565b60008060408385031215610e3657610e35610cd0565b5b6000610e4485828601610cf6565b9250506020610e5585828601610cf6565b9150509250929050565b600082825260208201905092915050565b7f4265742068617320616c7265616479206265656e206163636570746564000000600082015250565b6000610ea6601d83610e5f565b9150610eb182610e70565b602082019050919050565b60006020820190508181036000830152610ed581610e99565b9050919050565b7f4e6f626f6479206d616465207468617420626574000000000000000000000000600082015250565b6000610f12601483610e5f565b9150610f1d82610edc565b602082019050919050565b60006020820190508181036000830152610f4181610f05565b9050919050565b7f4e65656420746f20626574207468652073616d6520616d6f756e74206173207360008201527f6964654100000000000000000000000000000000000000000000000000000000602082015250565b6000610fa4602483610e5f565b9150610faf82610f48565b604082019050919050565b60006020820190508181036000830152610fd381610f97565b9050919050565b6000819050919050565b610ff5610ff082610cd5565b610fda565b82525050565b60006110078284610fe4565b60208201915081905092915050565b7f4e6f7420612062657420796f7520706c61636564206f722077726f6e6720766160008201527f6c75650000000000000000000000000000000000000000000000000000000000602082015250565b6000611072602383610e5f565b915061107d82611016565b604082019050919050565b600060208201905081810360008301526110a181611065565b9050919050565b7f42657420686173206e6f74206265656e20616363657074656420796574000000600082015250565b60006110de601d83610e5f565b91506110e9826110a8565b602082019050919050565b6000602082019050818103600083015261110d816110d1565b9050919050565b7f4e487b7100000000000000000000000000000000000000000000000000000000600052601260045260246000fd5b600061114e82610cd5565b915061115983610cd5565b92508261116957611168611114565b5b828206905092915050565b7f4e487b7100000000000000000000000000000000000000000000000000000000600052601160045260246000fd5b60006111ae82610cd5565b91506111b983610cd5565b92508282026111c781610cd5565b915082820484148315176111de576111dd611174565b5b5092915050565b6000819050919050565b600061120a61120561120084610d38565b6111e5565b610d38565b9050919050565b600061121c826111ef565b9050919050565b600061122e82611211565b9050919050565b61123e81611223565b82525050565b60006060820190506112596000830186611235565b6112666020830185611235565b6112736040830184610d79565b949350505050565b7f746865726520697320616c7265616479206120626574206f6e2074686174206360008201527f6f6d6d69746d656e740000000000000000000000000000000000000000000000602082015250565b60006112d7602983610e5f565b91506112e28261127b565b604082019050919050565b60006020820190508181036000830152611306816112ca565b9050919050565b7f796f75206e65656420746f2061637475616c6c792062657420736f6d6574686960008201527f6e67000000000000000000000000000000000000000000000000000000000000602082015250565b6000611369602283610e5f565b91506113748261130d565b604082019050919050565b600060208201905081810360008301526113988161135c565b9050919050565b60006020820190506113b46000830184610d79565b92915050565b7f42657420686173206e6f74206576656e206265656e206163636570746564207960008201527f6574000000000000000000000000000000000000000000000000000000000000602082015250565b6000611416602283610e5f565b9150611421826113ba565b604082019050919050565b6000602082019050818103600083015261144581611409565b9050919050565b7f4e6f7420612062657420796f752061636365707465642061732073696465422c60008201527f206f722077726f6e672076616c75650000000000000000000000000000000000602082015250565b60006114a8602f83610e5f565b91506114b38261144c565b604082019050919050565b600060208201905081810360008301526114d78161149b565b9050919050565b60006114e982610cd5565b91506114f483610cd5565b925082820190508082111561150c5761150b611174565b5b92915050565b7f54686520666f726665697420706572696f6420686173206e6f7420656c61707360008201527f6564207965740000000000000000000000000000000000000000000000000000602082015250565b600061156e602683610e5f565b915061157982611512565b604082019050919050565b6000602082019050818103600083015261159d81611561565b9050919050565b60006060820190506115b96000830186611235565b6115c66020830185610d6a565b6115d36040830184610d79565b94935050505056fea264697066735822122009d6a5da3a2f8da280d0138144da94e6741685a9bdda6808251e509ea2f2cfd064736f6c63430008130033",
  "linkReferences": {},
  "deployedLinkReferences": {}
}