{"contracts/ChainBattles.sol":{"ChainBattles":{"abi":[{"inputs":[],"stateMutability":"nonpayable","type":"constructor"},{"anonymous":false,"inputs":[{"indexed":true,"internalType":"address","name":"owner","type":"address"},{"indexed":true,"internalType":"address","name":"approved","type":"address"},{"indexed":true,"internalType":"uint256","name":"tokenId","type":"uint256"}],"name":"Approval","type":"event"},{"anonymous":false,"inputs":[{"indexed":true,"internalType":"address","name":"owner","type":"address"},{"indexed":true,"internalType":"address","name":"operator","type":"address"},{"indexed":false,"internalType":"bool","name":"approved","type":"bool"}],"name":"ApprovalForAll","type":"event"},{"anonymous":false,"inputs":[{"indexed":false,"internalType":"uint256","name":"_fromTokenId","type":"uint256"},{"indexed":false,"internalType":"uint256","name":"_toTokenId","type":"uint256"}],"name":"BatchMetadataUpdate","type":"event"},{"anonymous":false,"inputs":[{"indexed":false,"internalType":"uint256","name":"_tokenId","type":"uint256"}],"name":"MetadataUpdate","type":"event"},{"anonymous":false,"inputs":[{"indexed":true,"internalType":"address","name":"from","type":"address"},{"indexed":true,"internalType":"address","name":"to","type":"address"},{"indexed":true,"internalType":"uint256","name":"tokenId","type":"uint256"}],"name":"Transfer","type":"event"},{"inputs":[{"internalType":"address","name":"to","type":"address"},{"internalType":"uint256","name":"tokenId","type":"uint256"}],"name":"approve","outputs":[],"stateMutability":"nonpayable","type":"function"},{"inputs":[{"internalType":"address","name":"owner","type":"address"}],"name":"balanceOf","outputs":[{"internalType":"uint256","name":"","type":"uint256"}],"stateMutability":"view","type":"function"},{"inputs":[{"internalType":"uint256","name":"number","type":"uint256"}],"name":"createRandom","outputs":[{"internalType":"uint256","name":"","type":"uint256"}],"stateMutability":"view","type":"function"},{"inputs":[{"internalType":"uint256","name":"tokenId","type":"uint256"}],"name":"generateCharacter","outputs":[{"internalType":"string","name":"","type":"string"}],"stateMutability":"view","type":"function"},{"inputs":[{"internalType":"uint256","name":"tokenId","type":"uint256"}],"name":"getApproved","outputs":[{"internalType":"address","name":"","type":"address"}],"stateMutability":"view","type":"function"},{"inputs":[{"internalType":"uint256","name":"tokenId","type":"uint256"}],"name":"getLevels","outputs":[{"internalType":"string","name":"","type":"string"}],"stateMutability":"view","type":"function"},{"inputs":[{"internalType":"uint256","name":"tokenId","type":"uint256"}],"name":"getLife","outputs":[{"internalType":"string","name":"","type":"string"}],"stateMutability":"view","type":"function"},{"inputs":[{"internalType":"uint256","name":"tokenId","type":"uint256"}],"name":"getSpeed","outputs":[{"internalType":"string","name":"","type":"string"}],"stateMutability":"view","type":"function"},{"inputs":[{"internalType":"uint256","name":"tokenId","type":"uint256"}],"name":"getStregth","outputs":[{"internalType":"string","name":"","type":"string"}],"stateMutability":"view","type":"function"},{"inputs":[{"internalType":"uint256","name":"tokenId","type":"uint256"}],"name":"getTokenURI","outputs":[{"internalType":"string","name":"","type":"string"}],"stateMutability":"view","type":"function"},{"inputs":[{"internalType":"address","name":"owner","type":"address"},{"internalType":"address","name":"operator","type":"address"}],"name":"isApprovedForAll","outputs":[{"internalType":"bool","name":"","type":"bool"}],"stateMutability":"view","type":"function"},{"inputs":[],"name":"mint","outputs":[],"stateMutability":"nonpayable","type":"function"},{"inputs":[],"name":"name","outputs":[{"internalType":"string","name":"","type":"string"}],"stateMutability":"view","type":"function"},{"inputs":[{"internalType":"uint256","name":"tokenId","type":"uint256"}],"name":"ownerOf","outputs":[{"internalType":"address","name":"","type":"address"}],"stateMutability":"view","type":"function"},{"inputs":[{"internalType":"address","name":"from","type":"address"},{"internalType":"address","name":"to","type":"address"},{"internalType":"uint256","name":"tokenId","type":"uint256"}],"name":"safeTransferFrom","outputs":[],"stateMutability":"nonpayable","type":"function"},{"inputs":[{"internalType":"address","name":"from","type":"address"},{"internalType":"address","name":"to","type":"address"},{"internalType":"uint256","name":"tokenId","type":"uint256"},{"internalType":"bytes","name":"data","type":"bytes"}],"name":"safeTransferFrom","outputs":[],"stateMutability":"nonpayable","type":"function"},{"inputs":[{"internalType":"address","name":"operator","type":"address"},{"internalType":"bool","name":"approved","type":"bool"}],"name":"setApprovalForAll","outputs":[],"stateMutability":"nonpayable","type":"function"},{"inputs":[{"internalType":"bytes4","name":"interfaceId","type":"bytes4"}],"name":"supportsInterface","outputs":[{"internalType":"bool","name":"","type":"bool"}],"stateMutability":"view","type":"function"},{"inputs":[],"name":"symbol","outputs":[{"internalType":"string","name":"","type":"string"}],"stateMutability":"view","type":"function"},{"inputs":[{"internalType":"uint256","name":"","type":"uint256"}],"name":"tokenIdToStats","outputs":[{"internalType":"uint256","name":"level","type":"uint256"},{"internalType":"uint256","name":"speed","type":"uint256"},{"internalType":"uint256","name":"strength","type":"uint256"},{"internalType":"uint256","name":"life","type":"uint256"}],"stateMutability":"view","type":"function"},{"inputs":[{"internalType":"uint256","name":"tokenId","type":"uint256"}],"name":"tokenURI","outputs":[{"internalType":"string","name":"","type":"string"}],"stateMutability":"view","type":"function"},{"inputs":[{"internalType":"uint256","name":"tokenId","type":"uint256"}],"name":"train","outputs":[],"stateMutability":"nonpayable","type":"function"},{"inputs":[{"internalType":"address","name":"from","type":"address"},{"internalType":"address","name":"to","type":"address"},{"internalType":"uint256","name":"tokenId","type":"uint256"}],"name":"transferFrom","outputs":[],"stateMutability":"nonpayable","type":"function"}],"evm":{"bytecode":{"linkReferences":{},"object":"60806040523480156200001157600080fd5b506040518060400160405280600d81526020017f436861696e20426174746c6573000000000000000000000000000000000000008152506040518060400160405280600581526020017f4342544c53000000000000000000000000000000000000000000000000000000815250816000908051906020019062000096929190620000b8565b508060019080519060200190620000af929190620000b8565b505050620001cd565b828054620000c69062000197565b90600052602060002090601f016020900481019282620000ea576000855562000136565b82601f106200010557805160ff191683800117855562000136565b8280016001018555821562000136579182015b828111156200013557825182559160200191906001019062000118565b5b50905062000145919062000149565b5090565b5b80821115620001645760008160009055506001016200014a565b5090565b7f4e487b7100000000000000000000000000000000000000000000000000000000600052602260045260246000fd5b60006002820490506001821680620001b057607f821691505b60208210811415620001c757620001c662000168565b5b50919050565b613ddc80620001dd6000396000f3fe608060405234801561001057600080fd5b506004361061014d5760003560e01c80634b93f753116100c3578063c87b56dd1161007c578063c87b56dd146103c0578063c87bfc7f146103f0578063def301b114610423578063e09a0f9b14610453578063e985e9c514610483578063f43785f9146104b35761014d565b80634b93f753146102da5780636352211e1461030a57806370a082311461033a57806395d89b411461036a578063a22cb46514610388578063b88d4fde146103a45761014d565b806311251f1c1161011557806311251f1c1461021c5780631249c58b1461024c57806323b872dd14610256578063368004ed146102725780633bb3a24d1461028e57806342842e0e146102be5761014d565b806301ffc9a71461015257806306fdde0314610182578063081812fc146101a0578063095ea7b3146101d05780630daefed5146101ec575b600080fd5b61016c600480360381019061016791906121da565b6104e3565b6040516101799190612222565b60405180910390f35b61018a610544565b60405161019791906122d6565b60405180910390f35b6101ba60048036038101906101b5919061232e565b6105d6565b6040516101c7919061239c565b60405180910390f35b6101ea60048036038101906101e591906123e3565b61061c565b005b6102066004803603810190610201919061232e565b610734565b60405161021391906122d6565b60405180910390f35b6102366004803603810190610231919061232e565b6107b0565b60405161024391906122d6565b60405180910390f35b6102546107de565b005b610270600480360381019061026b9190612423565b6108a5565b005b61028c6004803603810190610287919061232e565b610905565b005b6102a860048036038101906102a3919061232e565b610a1b565b6040516102b591906122d6565b60405180910390f35b6102d860048036038101906102d39190612423565b610a83565b005b6102f460048036038101906102ef919061232e565b610aa3565b60405161030191906122d6565b60405180910390f35b610324600480360381019061031f919061232e565b610ad1565b604051610331919061239c565b60405180910390f35b610354600480360381019061034f9190612476565b610b58565b60405161036191906124b2565b60405180910390f35b610372610c10565b60405161037f91906122d6565b60405180910390f35b6103a2600480360381019061039d91906124f9565b610ca2565b005b6103be60048036038101906103b9919061266e565b610cb8565b005b6103da60048036038101906103d5919061232e565b610d1a565b6040516103e791906122d6565b60405180910390f35b61040a6004803603810190610405919061232e565b610e2d565b60405161041a94939291906126f1565b60405180910390f35b61043d6004803603810190610438919061232e565b610e5d565b60405161044a91906122d6565b60405180910390f35b61046d6004803603810190610468919061232e565b610e8b565b60405161047a91906124b2565b60405180910390f35b61049d60048036038101906104989190612736565b610eb0565b6040516104aa9190612222565b60405180910390f35b6104cd60048036038101906104c8919061232e565b610f44565b6040516104da91906122d6565b60405180910390f35b6000634906490660e01b7bffffffffffffffffffffffffffffffffffffffffffffffffffffffff1916827bffffffffffffffffffffffffffffffffffffffffffffffffffffffff1916148061053d575061053c82610f72565b5b9050919050565b606060008054610553906127a5565b80601f016020809104026020016040519081016040528092919081815260200182805461057f906127a5565b80156105cc5780601f106105a1576101008083540402835291602001916105cc565b820191906000526020600020905b8154815290600101906020018083116105af57829003601f168201915b5050505050905090565b60006105e182611054565b6004600083815260200190815260200160002060009054906101000a900473ffffffffffffffffffffffffffffffffffffffff169050919050565b600061062782610ad1565b90508073ffffffffffffffffffffffffffffffffffffffff168373ffffffffffffffffffffffffffffffffffffffff161415610698576040517f08c379a000000000000000000000000000000000000000000000000000000000815260040161068f90612849565b60405180910390fd5b8073ffffffffffffffffffffffffffffffffffffffff166106b761109f565b73ffffffffffffffffffffffffffffffffffffffff1614806106e657506106e5816106e061109f565b610eb0565b5b610725576040517f08c379a000000000000000000000000000000000000000000000000000000000815260040161071c906128db565b60405180910390fd5b61072f83836110a7565b505050565b6060600061074183610f44565b61074a84610aa3565b61075385610e5d565b61075c866107b0565b60405160200161076f949392919061300b565b604051602081830303815290604052905061078981611160565b6040516020016107999190613166565b604051602081830303815290604052915050919050565b60606000600860008481526020019081526020016000206003015490506107d6816112c4565b915050919050565b6107e8600761139c565b60006107f460076113b2565b905061080033826113c0565b61080a600a610e8b565b600860008381526020019081526020016000206000018190555061082e6009610e8b565b60086000838152602001908152602001600020600101819055506108526008610e8b565b60086000838152602001908152602001600020600201819055506108766007610e8b565b60086000838152602001908152602001600020600301819055506108a28161089d83610a1b565b6113de565b50565b6108b66108b061109f565b82611489565b6108f5576040517f08c379a00000000000000000000000000000000000000000000000000000000081526004016108ec906131fa565b60405180910390fd5b61090083838361151e565b505050565b61090e81611818565b61094d576040517f08c379a000000000000000000000000000000000000000000000000000000000815260040161094490613266565b60405180910390fd5b3373ffffffffffffffffffffffffffffffffffffffff1661096d82610ad1565b73ffffffffffffffffffffffffffffffffffffffff16146109c3576040517f08c379a00000000000000000000000000000000000000000000000000000000081526004016109ba906132f8565b60405180910390fd5b6000600860008381526020019081526020016000206000015490506001816109eb9190613347565b6008600084815260200190815260200160002060000181905550610a1782610a1284610a1b565b6113de565b5050565b60606000610a28836112c4565b610a3184610734565b604051602001610a429291906135d7565b6040516020818303038152906040529050610a5c81611160565b604051602001610a6c9190613694565b604051602081830303815290604052915050919050565b610a9e83838360405180602001604052806000815250610cb8565b505050565b6060600060086000848152602001908152602001600020600101549050610ac9816112c4565b915050919050565b600080610add83611859565b9050600073ffffffffffffffffffffffffffffffffffffffff168173ffffffffffffffffffffffffffffffffffffffff161415610b4f576040517f08c379a0000000000000000000000000000000000000000000000000000000008152600401610b4690613702565b60405180910390fd5b80915050919050565b60008073ffffffffffffffffffffffffffffffffffffffff168273ffffffffffffffffffffffffffffffffffffffff161415610bc9576040517f08c379a0000000000000000000000000000000000000000000000000000000008152600401610bc090613794565b60405180910390fd5b600360008373ffffffffffffffffffffffffffffffffffffffff1673ffffffffffffffffffffffffffffffffffffffff168152602001908152602001600020549050919050565b606060018054610c1f906127a5565b80601f0160208091040260200160405190810160405280929190818152602001828054610c4b906127a5565b8015610c985780601f10610c6d57610100808354040283529160200191610c98565b820191906000526020600020905b815481529060010190602001808311610c7b57829003601f168201915b5050505050905090565b610cb4610cad61109f565b8383611896565b5050565b610cc9610cc361109f565b83611489565b610d08576040517f08c379a0000000000000000000000000000000000000000000000000000000008152600401610cff906131fa565b60405180910390fd5b610d1484848484611a03565b50505050565b6060610d2582611054565b6000600660008481526020019081526020016000208054610d45906127a5565b80601f0160208091040260200160405190810160405280929190818152602001828054610d71906127a5565b8015610dbe5780601f10610d9357610100808354040283529160200191610dbe565b820191906000526020600020905b815481529060010190602001808311610da157829003601f168201915b505050505090506000610dcf611a5f565b9050600081511415610de5578192505050610e28565b600082511115610e1a578082604051602001610e029291906137b4565b60405160208183030381529060405292505050610e28565b610e2384611a76565b925050505b919050565b60086020528060005260406000206000915090508060000154908060010154908060020154908060030154905084565b6060600060086000848152602001908152602001600020600201549050610e83816112c4565b915050919050565b600081600143610e9b91906137d8565b4060001c610ea9919061383b565b9050919050565b6000600560008473ffffffffffffffffffffffffffffffffffffffff1673ffffffffffffffffffffffffffffffffffffffff16815260200190815260200160002060008373ffffffffffffffffffffffffffffffffffffffff1673ffffffffffffffffffffffffffffffffffffffff16815260200190815260200160002060009054906101000a900460ff16905092915050565b6060600060086000848152602001908152602001600020600001549050610f6a816112c4565b915050919050565b60007f80ac58cd000000000000000000000000000000000000000000000000000000007bffffffffffffffffffffffffffffffffffffffffffffffffffffffff1916827bffffffffffffffffffffffffffffffffffffffffffffffffffffffff1916148061103d57507f5b5e139f000000000000000000000000000000000000000000000000000000007bffffffffffffffffffffffffffffffffffffffffffffffffffffffff1916827bffffffffffffffffffffffffffffffffffffffffffffffffffffffff1916145b8061104d575061104c82611ade565b5b9050919050565b61105d81611818565b61109c576040517f08c379a000000000000000000000000000000000000000000000000000000000815260040161109390613702565b60405180910390fd5b50565b600033905090565b816004600083815260200190815260200160002060006101000a81548173ffffffffffffffffffffffffffffffffffffffff021916908373ffffffffffffffffffffffffffffffffffffffff160217905550808273ffffffffffffffffffffffffffffffffffffffff1661111a83610ad1565b73ffffffffffffffffffffffffffffffffffffffff167f8c5be1e5ebec7d5bd14f71427d1e84f3dd0314c0f7b2291e5b200ac8c7c3b92560405160405180910390a45050565b6060600082511415611183576040518060200160405280600081525090506112bf565b6000604051806060016040528060408152602001613d6760409139905060006003600285516111b29190613347565b6111bc919061386c565b60046111c8919061389d565b67ffffffffffffffff8111156111e1576111e0612543565b5b6040519080825280601f01601f1916602001820160405280156112135781602001600182028036833780820191505090505b509050600182016020820185865187015b8082101561127f576003820191508151603f8160121c168501518453600184019350603f81600c1c168501518453600184019350603f8160061c168501518453600184019350603f8116850151845360018401935050611224565b505060038651066001811461129b57600281146112ae576112b6565b603d6001830353603d60028303536112b6565b603d60018303535b50505080925050505b919050565b6060600060016112d384611b48565b01905060008167ffffffffffffffff8111156112f2576112f1612543565b5b6040519080825280601f01601f1916602001820160405280156113245781602001600182028036833780820191505090505b509050600082602001820190505b600115611391578080600190039150507f3031323334353637383961626364656600000000000000000000000000000000600a86061a8153600a858161137b5761137a61380c565b5b049450600085141561138c57611391565b611332565b819350505050919050565b6001816000016000828254019250508190555050565b600081600001549050919050565b6113da828260405180602001604052806000815250611c9b565b5050565b6113e782611818565b611426576040517f08c379a000000000000000000000000000000000000000000000000000000000815260040161141d90613969565b60405180910390fd5b8060066000848152602001908152602001600020908051906020019061144d9291906120cb565b507ff8e1a15aba9398e019f0b49df1a4fde98ee17ae345cb5f6b5e2c27f5033e8ce78260405161147d91906124b2565b60405180910390a15050565b60008061149583610ad1565b90508073ffffffffffffffffffffffffffffffffffffffff168473ffffffffffffffffffffffffffffffffffffffff1614806114d757506114d68185610eb0565b5b8061151557508373ffffffffffffffffffffffffffffffffffffffff166114fd846105d6565b73ffffffffffffffffffffffffffffffffffffffff16145b91505092915050565b8273ffffffffffffffffffffffffffffffffffffffff1661153e82610ad1565b73ffffffffffffffffffffffffffffffffffffffff1614611594576040517f08c379a000000000000000000000000000000000000000000000000000000000815260040161158b906139fb565b60405180910390fd5b600073ffffffffffffffffffffffffffffffffffffffff168273ffffffffffffffffffffffffffffffffffffffff161415611604576040517f08c379a00000000000000000000000000000000000000000000000000000000081526004016115fb90613a8d565b60405180910390fd5b6116118383836001611cf6565b8273ffffffffffffffffffffffffffffffffffffffff1661163182610ad1565b73ffffffffffffffffffffffffffffffffffffffff1614611687576040517f08c379a000000000000000000000000000000000000000000000000000000000815260040161167e906139fb565b60405180910390fd5b6004600082815260200190815260200160002060006101000a81549073ffffffffffffffffffffffffffffffffffffffff02191690556001600360008573ffffffffffffffffffffffffffffffffffffffff1673ffffffffffffffffffffffffffffffffffffffff168152602001908152602001600020600082825403925050819055506001600360008473ffffffffffffffffffffffffffffffffffffffff1673ffffffffffffffffffffffffffffffffffffffff16815260200190815260200160002060008282540192505081905550816002600083815260200190815260200160002060006101000a81548173ffffffffffffffffffffffffffffffffffffffff021916908373ffffffffffffffffffffffffffffffffffffffff160217905550808273ffffffffffffffffffffffffffffffffffffffff168473ffffffffffffffffffffffffffffffffffffffff167fddf252ad1be2c89b69c2b068fc378daa952ba7f163c4a11628f55a4df523b3ef60405160405180910390a46118138383836001611cfc565b505050565b60008073ffffffffffffffffffffffffffffffffffffffff1661183a83611859565b73ffffffffffffffffffffffffffffffffffffffff1614159050919050565b60006002600083815260200190815260200160002060009054906101000a900473ffffffffffffffffffffffffffffffffffffffff169050919050565b8173ffffffffffffffffffffffffffffffffffffffff168373ffffffffffffffffffffffffffffffffffffffff161415611905576040517f08c379a00000000000000000000000000000000000000000000000000000000081526004016118fc90613af9565b60405180910390fd5b80600560008573ffffffffffffffffffffffffffffffffffffffff1673ffffffffffffffffffffffffffffffffffffffff16815260200190815260200160002060008473ffffffffffffffffffffffffffffffffffffffff1673ffffffffffffffffffffffffffffffffffffffff16815260200190815260200160002060006101000a81548160ff0219169083151502179055508173ffffffffffffffffffffffffffffffffffffffff168373ffffffffffffffffffffffffffffffffffffffff167f17307eab39ab6107e8899845ad3d59bd9653f200f220920489ca2b5937696c31836040516119f69190612222565b60405180910390a3505050565b611a0e84848461151e565b611a1a84848484611d02565b611a59576040517f08c379a0000000000000000000000000000000000000000000000000000000008152600401611a5090613b8b565b60405180910390fd5b50505050565b606060405180602001604052806000815250905090565b6060611a8182611054565b6000611a8b611a5f565b90506000815111611aab5760405180602001604052806000815250611ad6565b80611ab5846112c4565b604051602001611ac69291906137b4565b6040516020818303038152906040525b915050919050565b60007f01ffc9a7000000000000000000000000000000000000000000000000000000007bffffffffffffffffffffffffffffffffffffffffffffffffffffffff1916827bffffffffffffffffffffffffffffffffffffffffffffffffffffffff1916149050919050565b600080600090507a184f03e93ff9f4daa797ed6e38ed64bf6a1f0100000000000000008310611ba6577a184f03e93ff9f4daa797ed6e38ed64bf6a1f0100000000000000008381611b9c57611b9b61380c565b5b0492506040810190505b6d04ee2d6d415b85acef81000000008310611be3576d04ee2d6d415b85acef81000000008381611bd957611bd861380c565b5b0492506020810190505b662386f26fc100008310611c1257662386f26fc100008381611c0857611c0761380c565b5b0492506010810190505b6305f5e1008310611c3b576305f5e1008381611c3157611c3061380c565b5b0492506008810190505b6127108310611c60576127108381611c5657611c5561380c565b5b0492506004810190505b60648310611c835760648381611c7957611c7861380c565b5b0492506002810190505b600a8310611c92576001810190505b80915050919050565b611ca58383611e8a565b611cb26000848484611d02565b611cf1576040517f08c379a0000000000000000000000000000000000000000000000000000000008152600401611ce890613b8b565b60405180910390fd5b505050565b50505050565b50505050565b6000611d238473ffffffffffffffffffffffffffffffffffffffff166120a8565b15611e7d578373ffffffffffffffffffffffffffffffffffffffff1663150b7a02611d4c61109f565b8786866040518563ffffffff1660e01b8152600401611d6e9493929190613c00565b6020604051808303816000875af1925050508015611daa57506040513d601f19601f82011682018060405250810190611da79190613c61565b60015b611e2d573d8060008114611dda576040519150601f19603f3d011682016040523d82523d6000602084013e611ddf565b606091505b50600081511415611e25576040517f08c379a0000000000000000000000000000000000000000000000000000000008152600401611e1c90613b8b565b60405180910390fd5b805181602001fd5b63150b7a0260e01b7bffffffffffffffffffffffffffffffffffffffffffffffffffffffff1916817bffffffffffffffffffffffffffffffffffffffffffffffffffffffff191614915050611e82565b600190505b949350505050565b600073ffffffffffffffffffffffffffffffffffffffff168273ffffffffffffffffffffffffffffffffffffffff161415611efa576040517f08c379a0000000000000000000000000000000000000000000000000000000008152600401611ef190613cda565b60405180910390fd5b611f0381611818565b15611f43576040517f08c379a0000000000000000000000000000000000000000000000000000000008152600401611f3a90613d46565b60405180910390fd5b611f51600083836001611cf6565b611f5a81611818565b15611f9a576040517f08c379a0000000000000000000000000000000000000000000000000000000008152600401611f9190613d46565b60405180910390fd5b6001600360008473ffffffffffffffffffffffffffffffffffffffff1673ffffffffffffffffffffffffffffffffffffffff16815260200190815260200160002060008282540192505081905550816002600083815260200190815260200160002060006101000a81548173ffffffffffffffffffffffffffffffffffffffff021916908373ffffffffffffffffffffffffffffffffffffffff160217905550808273ffffffffffffffffffffffffffffffffffffffff16600073ffffffffffffffffffffffffffffffffffffffff167fddf252ad1be2c89b69c2b068fc378daa952ba7f163c4a11628f55a4df523b3ef60405160405180910390a46120a4600083836001611cfc565b5050565b6000808273ffffffffffffffffffffffffffffffffffffffff163b119050919050565b8280546120d7906127a5565b90600052602060002090601f0160209004810192826120f95760008555612140565b82601f1061211257805160ff1916838001178555612140565b82800160010185558215612140579182015b8281111561213f578251825591602001919060010190612124565b5b50905061214d9190612151565b5090565b5b8082111561216a576000816000905550600101612152565b5090565b6000604051905090565b600080fd5b600080fd5b60007fffffffff0000000000000000000000000000000000000000000000000000000082169050919050565b6121b781612182565b81146121c257600080fd5b50565b6000813590506121d4816121ae565b92915050565b6000602082840312156121f0576121ef612178565b5b60006121fe848285016121c5565b91505092915050565b60008115159050919050565b61221c81612207565b82525050565b60006020820190506122376000830184612213565b92915050565b600081519050919050565b600082825260208201905092915050565b60005b8381101561227757808201518184015260208101905061225c565b83811115612286576000848401525b50505050565b6000601f19601f8301169050919050565b60006122a88261223d565b6122b28185612248565b93506122c2818560208601612259565b6122cb8161228c565b840191505092915050565b600060208201905081810360008301526122f0818461229d565b905092915050565b6000819050919050565b61230b816122f8565b811461231657600080fd5b50565b60008135905061232881612302565b92915050565b60006020828403121561234457612343612178565b5b600061235284828501612319565b91505092915050565b600073ffffffffffffffffffffffffffffffffffffffff82169050919050565b60006123868261235b565b9050919050565b6123968161237b565b82525050565b60006020820190506123b1600083018461238d565b92915050565b6123c08161237b565b81146123cb57600080fd5b50565b6000813590506123dd816123b7565b92915050565b600080604083850312156123fa576123f9612178565b5b6000612408858286016123ce565b925050602061241985828601612319565b9150509250929050565b60008060006060848603121561243c5761243b612178565b5b600061244a868287016123ce565b935050602061245b868287016123ce565b925050604061246c86828701612319565b9150509250925092565b60006020828403121561248c5761248b612178565b5b600061249a848285016123ce565b91505092915050565b6124ac816122f8565b82525050565b60006020820190506124c760008301846124a3565b92915050565b6124d681612207565b81146124e157600080fd5b50565b6000813590506124f3816124cd565b92915050565b600080604083850312156125105761250f612178565b5b600061251e858286016123ce565b925050602061252f858286016124e4565b9150509250929050565b600080fd5b600080fd5b7f4e487b7100000000000000000000000000000000000000000000000000000000600052604160045260246000fd5b61257b8261228c565b810181811067ffffffffffffffff8211171561259a57612599612543565b5b80604052505050565b60006125ad61216e565b90506125b98282612572565b919050565b600067ffffffffffffffff8211156125d9576125d8612543565b5b6125e28261228c565b9050602081019050919050565b82818337600083830152505050565b600061261161260c846125be565b6125a3565b90508281526020810184848401111561262d5761262c61253e565b5b6126388482856125ef565b509392505050565b600082601f83011261265557612654612539565b5b81356126658482602086016125fe565b91505092915050565b6000806000806080858703121561268857612687612178565b5b6000612696878288016123ce565b94505060206126a7878288016123ce565b93505060406126b887828801612319565b925050606085013567ffffffffffffffff8111156126d9576126d861217d565b5b6126e587828801612640565b91505092959194509250565b600060808201905061270660008301876124a3565b61271360208301866124a3565b61272060408301856124a3565b61272d60608301846124a3565b95945050505050565b6000806040838503121561274d5761274c612178565b5b600061275b858286016123ce565b925050602061276c858286016123ce565b9150509250929050565b7f4e487b7100000000000000000000000000000000000000000000000000000000600052602260045260246000fd5b600060028204905060018216806127bd57607f821691505b602082108114156127d1576127d0612776565b5b50919050565b7f4552433732313a20617070726f76616c20746f2063757272656e74206f776e6560008201527f7200000000000000000000000000000000000000000000000000000000000000602082015250565b6000612833602183612248565b915061283e826127d7565b604082019050919050565b6000602082019050818103600083015261286281612826565b9050919050565b7f4552433732313a20617070726f76652063616c6c6572206973206e6f7420746f60008201527f6b656e206f776e6572206f7220617070726f76656420666f7220616c6c000000602082015250565b60006128c5603d83612248565b91506128d082612869565b604082019050919050565b600060208201905081810360008301526128f4816128b8565b9050919050565b600081905092915050565b7f3c73766720786d6c6e733d22687474703a2f2f7777772e77332e6f72672f323060008201527f30302f73766722207072657365727665417370656374526174696f3d22784d6960208201527f6e594d696e206d656574222076696577426f783d22302030203335302033353060408201527f223e000000000000000000000000000000000000000000000000000000000000606082015250565b60006129ae6062836128fb565b91506129b982612906565b606282019050919050565b7f3c7374796c653e2e62617365207b2066696c6c3a2077686974653b20666f6e7460008201527f2d66616d696c793a2073657269663b20666f6e742d73697a653a20313470783b60208201527f207d3c2f7374796c653e00000000000000000000000000000000000000000000604082015250565b6000612a46604a836128fb565b9150612a51826129c4565b604a82019050919050565b7f3c726563742077696474683d223130302522206865696768743d22313030252260008201527f2066696c6c3d22626c61636b22202f3e00000000000000000000000000000000602082015250565b6000612ab86030836128fb565b9150612ac382612a5c565b603082019050919050565b7f3c7465787420783d223530252220793d223330252220636c6173733d2262617360008201527f652220646f6d696e616e742d626173656c696e653d226d6964646c652220746560208201527f78742d616e63686f723d226d6964646c65223e00000000000000000000000000604082015250565b6000612b506053836128fb565b9150612b5b82612ace565b605382019050919050565b7f57617272696f7200000000000000000000000000000000000000000000000000600082015250565b6000612b9c6007836128fb565b9150612ba782612b66565b600782019050919050565b7f3c2f746578743e00000000000000000000000000000000000000000000000000600082015250565b6000612be86007836128fb565b9150612bf382612bb2565b600782019050919050565b7f3c7465787420783d223530252220793d223430252220636c6173733d2262617360008201527f652220646f6d696e616e742d626173656c696e653d226d6964646c652220746560208201527f78742d616e63686f723d226d6964646c65223e00000000000000000000000000604082015250565b6000612c806053836128fb565b9150612c8b82612bfe565b605382019050919050565b7f4c6576656c733a20000000000000000000000000000000000000000000000000600082015250565b6000612ccc6008836128fb565b9150612cd782612c96565b600882019050919050565b6000612ced8261223d565b612cf781856128fb565b9350612d07818560208601612259565b80840191505092915050565b7f3c7465787420783d223530252220793d223530252220636c6173733d2262617360008201527f652220646f6d696e616e742d626173656c696e653d226d6964646c652220746560208201527f78742d616e63686f723d226d6964646c65223e00000000000000000000000000604082015250565b6000612d956053836128fb565b9150612da082612d13565b605382019050919050565b7f53706565643a2000000000000000000000000000000000000000000000000000600082015250565b6000612de16007836128fb565b9150612dec82612dab565b600782019050919050565b7f3c7465787420783d223530252220793d223630252220636c6173733d2262617360008201527f652220646f6d696e616e742d626173656c696e653d226d6964646c652220746560208201527f78742d616e63686f723d226d6964646c65223e00000000000000000000000000604082015250565b6000612e796053836128fb565b9150612e8482612df7565b605382019050919050565b7f537472656e6774683a2000000000000000000000000000000000000000000000600082015250565b6000612ec5600a836128fb565b9150612ed082612e8f565b600a82019050919050565b7f3c7465787420783d223530252220793d223730252220636c6173733d2262617360008201527f652220646f6d696e616e742d626173656c696e653d226d6964646c652220746560208201527f78742d616e63686f723d226d6964646c65223e00000000000000000000000000604082015250565b6000612f5d6053836128fb565b9150612f6882612edb565b605382019050919050565b7f4c6966653a200000000000000000000000000000000000000000000000000000600082015250565b6000612fa96006836128fb565b9150612fb482612f73565b600682019050919050565b7f3c2f7376673e0000000000000000000000000000000000000000000000000000600082015250565b6000612ff56006836128fb565b915061300082612fbf565b600682019050919050565b6000613016826129a1565b915061302182612a39565b915061302c82612aab565b915061303782612b43565b915061304282612b8f565b915061304d82612bdb565b915061305882612c73565b915061306382612cbf565b915061306f8287612ce2565b915061307a82612bdb565b915061308582612d88565b915061309082612dd4565b915061309c8286612ce2565b91506130a782612bdb565b91506130b282612e6c565b91506130bd82612eb8565b91506130c98285612ce2565b91506130d482612bdb565b91506130df82612f50565b91506130ea82612f9c565b91506130f68284612ce2565b915061310182612bdb565b915061310c82612fe8565b915081905095945050505050565b7f646174613a696d6167652f7376672b786d6c3b6261736536342c000000000000600082015250565b6000613150601a836128fb565b915061315b8261311a565b601a82019050919050565b600061317182613143565b915061317d8284612ce2565b915081905092915050565b7f4552433732313a2063616c6c6572206973206e6f7420746f6b656e206f776e6560008201527f72206f7220617070726f76656400000000000000000000000000000000000000602082015250565b60006131e4602d83612248565b91506131ef82613188565b604082019050919050565b60006020820190508181036000830152613213816131d7565b9050919050565b7f506c656173652075736520616e206578697374696e6720746f6b656e00000000600082015250565b6000613250601c83612248565b915061325b8261321a565b602082019050919050565b6000602082019050818103600083015261327f81613243565b9050919050565b7f596f75206d757374206f776e207468697320746f6b656e20746f20747261696e60008201527f2069740000000000000000000000000000000000000000000000000000000000602082015250565b60006132e2602383612248565b91506132ed82613286565b604082019050919050565b60006020820190508181036000830152613311816132d5565b9050919050565b7f4e487b7100000000000000000000000000000000000000000000000000000000600052601160045260246000fd5b6000613352826122f8565b915061335d836122f8565b9250827fffffffffffffffffffffffffffffffffffffffffffffffffffffffffffffffff0382111561339257613391613318565b5b828201905092915050565b7f7b00000000000000000000000000000000000000000000000000000000000000600082015250565b60006133d36001836128fb565b91506133de8261339d565b600182019050919050565b7f226e616d65223a2022436861696e20426174746c657320230000000000000000600082015250565b600061341f6018836128fb565b915061342a826133e9565b601882019050919050565b7f222c000000000000000000000000000000000000000000000000000000000000600082015250565b600061346b6002836128fb565b915061347682613435565b600282019050919050565b7f226465736372697074696f6e223a2022426174746c6573206f6e20636861696e60008201527f222c000000000000000000000000000000000000000000000000000000000000602082015250565b60006134dd6022836128fb565b91506134e882613481565b602282019050919050565b7f22696d616765223a202200000000000000000000000000000000000000000000600082015250565b6000613529600a836128fb565b9150613534826134f3565b600a82019050919050565b7f2200000000000000000000000000000000000000000000000000000000000000600082015250565b60006135756001836128fb565b91506135808261353f565b600182019050919050565b7f7d00000000000000000000000000000000000000000000000000000000000000600082015250565b60006135c16001836128fb565b91506135cc8261358b565b600182019050919050565b60006135e2826133c6565b91506135ed82613412565b91506135f98285612ce2565b91506136048261345e565b915061360f826134d0565b915061361a8261351c565b91506136268284612ce2565b915061363182613568565b915061363c826135b4565b91508190509392505050565b7f646174613a6170706c69636174696f6e2f6a736f6e3b6261736536342c000000600082015250565b600061367e601d836128fb565b915061368982613648565b601d82019050919050565b600061369f82613671565b91506136ab8284612ce2565b915081905092915050565b7f4552433732313a20696e76616c696420746f6b656e2049440000000000000000600082015250565b60006136ec601883612248565b91506136f7826136b6565b602082019050919050565b6000602082019050818103600083015261371b816136df565b9050919050565b7f4552433732313a2061646472657373207a65726f206973206e6f74206120766160008201527f6c6964206f776e65720000000000000000000000000000000000000000000000602082015250565b600061377e602983612248565b915061378982613722565b604082019050919050565b600060208201905081810360008301526137ad81613771565b9050919050565b60006137c08285612ce2565b91506137cc8284612ce2565b91508190509392505050565b60006137e3826122f8565b91506137ee836122f8565b92508282101561380157613800613318565b5b828203905092915050565b7f4e487b7100000000000000000000000000000000000000000000000000000000600052601260045260246000fd5b6000613846826122f8565b9150613851836122f8565b9250826138615761386061380c565b5b828206905092915050565b6000613877826122f8565b9150613882836122f8565b9250826138925761389161380c565b5b828204905092915050565b60006138a8826122f8565b91506138b3836122f8565b9250817fffffffffffffffffffffffffffffffffffffffffffffffffffffffffffffffff04831182151516156138ec576138eb613318565b5b828202905092915050565b7f45524337323155524953746f726167653a2055524920736574206f66206e6f6e60008201527f6578697374656e7420746f6b656e000000000000000000000000000000000000602082015250565b6000613953602e83612248565b915061395e826138f7565b604082019050919050565b6000602082019050818103600083015261398281613946565b9050919050565b7f4552433732313a207472616e736665722066726f6d20696e636f72726563742060008201527f6f776e6572000000000000000000000000000000000000000000000000000000602082015250565b60006139e5602583612248565b91506139f082613989565b604082019050919050565b60006020820190508181036000830152613a14816139d8565b9050919050565b7f4552433732313a207472616e7366657220746f20746865207a65726f2061646460008201527f7265737300000000000000000000000000000000000000000000000000000000602082015250565b6000613a77602483612248565b9150613a8282613a1b565b604082019050919050565b60006020820190508181036000830152613aa681613a6a565b9050919050565b7f4552433732313a20617070726f766520746f2063616c6c657200000000000000600082015250565b6000613ae3601983612248565b9150613aee82613aad565b602082019050919050565b60006020820190508181036000830152613b1281613ad6565b9050919050565b7f4552433732313a207472616e7366657220746f206e6f6e20455243373231526560008201527f63656976657220696d706c656d656e7465720000000000000000000000000000602082015250565b6000613b75603283612248565b9150613b8082613b19565b604082019050919050565b60006020820190508181036000830152613ba481613b68565b9050919050565b600081519050919050565b600082825260208201905092915050565b6000613bd282613bab565b613bdc8185613bb6565b9350613bec818560208601612259565b613bf58161228c565b840191505092915050565b6000608082019050613c15600083018761238d565b613c22602083018661238d565b613c2f60408301856124a3565b8181036060830152613c418184613bc7565b905095945050505050565b600081519050613c5b816121ae565b92915050565b600060208284031215613c7757613c76612178565b5b6000613c8584828501613c4c565b91505092915050565b7f4552433732313a206d696e7420746f20746865207a65726f2061646472657373600082015250565b6000613cc4602083612248565b9150613ccf82613c8e565b602082019050919050565b60006020820190508181036000830152613cf381613cb7565b9050919050565b7f4552433732313a20746f6b656e20616c7265616479206d696e74656400000000600082015250565b6000613d30601c83612248565b9150613d3b82613cfa565b602082019050919050565b60006020820190508181036000830152613d5f81613d23565b905091905056fe4142434445464748494a4b4c4d4e4f505152535455565758595a6162636465666768696a6b6c6d6e6f707172737475767778797a303132333435363738392b2fa2646970667358221220449f941e111f3bca91beec1a4c2a7dfe8f27364b4ceb953bf4b06e0063e8ccea64736f6c634300080a0033","opcodes":"PUSH1 0x80 PUSH1 0x40 MSTORE CALLVALUE DUP1 ISZERO PUSH3 0x11 JUMPI PUSH1 0x0 DUP1 REVERT JUMPDEST POP PUSH1 0x40 MLOAD DUP1 PUSH1 0x40 ADD PUSH1 0x40 MSTORE DUP1 PUSH1 0xD DUP2 MSTORE PUSH1 0x20 ADD PUSH32 0x436861696E20426174746C657300000000000000000000000000000000000000 DUP2 MSTORE POP PUSH1 0x40 MLOAD DUP1 PUSH1 0x40 ADD PUSH1 0x40 MSTORE DUP1 PUSH1 0x5 DUP2 MSTORE PUSH1 0x20 ADD PUSH32 0x4342544C53000000000000000000000000000000000000000000000000000000 DUP2 MSTORE POP DUP2 PUSH1 0x0 SWAP1 DUP1 MLOAD SWAP1 PUSH1 0x20 ADD SWAP1 PUSH3 0x96 SWAP3 SWAP2 SWAP1 PUSH3 0xB8 JUMP JUMPDEST POP DUP1 PUSH1 0x1 SWAP1 DUP1 MLOAD SWAP1 PUSH1 0x20 ADD SWAP1 PUSH3 0xAF SWAP3 SWAP2 SWAP1 PUSH3 0xB8 JUMP JUMPDEST POP POP POP PUSH3 0x1CD JUMP JUMPDEST DUP3 DUP1 SLOAD PUSH3 0xC6 SWAP1 PUSH3 0x197 JUMP JUMPDEST SWAP1 PUSH1 0x0 MSTORE PUSH1 0x20 PUSH1 0x0 KECCAK256 SWAP1 PUSH1 0x1F ADD PUSH1 0x20 SWAP1 DIV DUP2 ADD SWAP3 DUP3 PUSH3 0xEA JUMPI PUSH1 0x0 DUP6 SSTORE PUSH3 0x136 JUMP JUMPDEST DUP3 PUSH1 0x1F LT PUSH3 0x105 JUMPI DUP1 MLOAD PUSH1 0xFF NOT AND DUP4 DUP1 ADD OR DUP6 SSTORE PUSH3 0x136 JUMP JUMPDEST DUP3 DUP1 ADD PUSH1 0x1 ADD DUP6 SSTORE DUP3 ISZERO PUSH3 0x136 JUMPI SWAP2 DUP3 ADD JUMPDEST DUP3 DUP2 GT ISZERO PUSH3 0x135 JUMPI DUP3 MLOAD DUP3 SSTORE SWAP2 PUSH1 0x20 ADD SWAP2 SWAP1 PUSH1 0x1 ADD SWAP1 PUSH3 0x118 JUMP JUMPDEST JUMPDEST POP SWAP1 POP PUSH3 0x145 SWAP2 SWAP1 PUSH3 0x149 JUMP JUMPDEST POP SWAP1 JUMP JUMPDEST JUMPDEST DUP1 DUP3 GT ISZERO PUSH3 0x164 JUMPI PUSH1 0x0 DUP2 PUSH1 0x0 SWAP1 SSTORE POP PUSH1 0x1 ADD PUSH3 0x14A JUMP JUMPDEST POP SWAP1 JUMP JUMPDEST PUSH32 0x4E487B7100000000000000000000000000000000000000000000000000000000 PUSH1 0x0 MSTORE PUSH1 0x22 PUSH1 0x4 MSTORE PUSH1 0x24 PUSH1 0x0 REVERT JUMPDEST PUSH1 0x0 PUSH1 0x2 DUP3 DIV SWAP1 POP PUSH1 0x1 DUP3 AND DUP1 PUSH3 0x1B0 JUMPI PUSH1 0x7F DUP3 AND SWAP2 POP JUMPDEST PUSH1 0x20 DUP3 LT DUP2 EQ ISZERO PUSH3 0x1C7 JUMPI PUSH3 0x1C6 PUSH3 0x168 JUMP JUMPDEST JUMPDEST POP SWAP2 SWAP1 POP JUMP JUMPDEST PUSH2 0x3DDC DUP1 PUSH3 0x1DD PUSH1 0x0 CODECOPY PUSH1 0x0 RETURN INVALID PUSH1 0x80 PUSH1 0x40 MSTORE CALLVALUE DUP1 ISZERO PUSH2 0x10 JUMPI PUSH1 0x0 DUP1 REVERT JUMPDEST POP PUSH1 0x4 CALLDATASIZE LT PUSH2 0x14D JUMPI PUSH1 0x0 CALLDATALOAD PUSH1 0xE0 SHR DUP1 PUSH4 0x4B93F753 GT PUSH2 0xC3 JUMPI DUP1 PUSH4 0xC87B56DD GT PUSH2 0x7C JUMPI DUP1 PUSH4 0xC87B56DD EQ PUSH2 0x3C0 JUMPI DUP1 PUSH4 0xC87BFC7F EQ PUSH2 0x3F0 JUMPI DUP1 PUSH4 0xDEF301B1 EQ PUSH2 0x423 JUMPI DUP1 PUSH4 0xE09A0F9B EQ PUSH2 0x453 JUMPI DUP1 PUSH4 0xE985E9C5 EQ PUSH2 0x483 JUMPI DUP1 PUSH4 0xF43785F9 EQ PUSH2 0x4B3 JUMPI PUSH2 0x14D JUMP JUMPDEST DUP1 PUSH4 0x4B93F753 EQ PUSH2 0x2DA JUMPI DUP1 PUSH4 0x6352211E EQ PUSH2 0x30A JUMPI DUP1 PUSH4 0x70A08231 EQ PUSH2 0x33A JUMPI DUP1 PUSH4 0x95D89B41 EQ PUSH2 0x36A JUMPI DUP1 PUSH4 0xA22CB465 EQ PUSH2 0x388 JUMPI DUP1 PUSH4 0xB88D4FDE EQ PUSH2 0x3A4 JUMPI PUSH2 0x14D JUMP JUMPDEST DUP1 PUSH4 0x11251F1C GT PUSH2 0x115 JUMPI DUP1 PUSH4 0x11251F1C EQ PUSH2 0x21C JUMPI DUP1 PUSH4 0x1249C58B EQ PUSH2 0x24C JUMPI DUP1 PUSH4 0x23B872DD EQ PUSH2 0x256 JUMPI DUP1 PUSH4 0x368004ED EQ PUSH2 0x272 JUMPI DUP1 PUSH4 0x3BB3A24D EQ PUSH2 0x28E JUMPI DUP1 PUSH4 0x42842E0E EQ PUSH2 0x2BE JUMPI PUSH2 0x14D JUMP JUMPDEST DUP1 PUSH4 0x1FFC9A7 EQ PUSH2 0x152 JUMPI DUP1 PUSH4 0x6FDDE03 EQ PUSH2 0x182 JUMPI DUP1 PUSH4 0x81812FC EQ PUSH2 0x1A0 JUMPI DUP1 PUSH4 0x95EA7B3 EQ PUSH2 0x1D0 JUMPI DUP1 PUSH4 0xDAEFED5 EQ PUSH2 0x1EC JUMPI JUMPDEST PUSH1 0x0 DUP1 REVERT JUMPDEST PUSH2 0x16C PUSH1 0x4 DUP1 CALLDATASIZE SUB DUP2 ADD SWAP1 PUSH2 0x167 SWAP2 SWAP1 PUSH2 0x21DA JUMP JUMPDEST PUSH2 0x4E3 JUMP JUMPDEST PUSH1 0x40 MLOAD PUSH2 0x179 SWAP2 SWAP1 PUSH2 0x2222 JUMP JUMPDEST PUSH1 0x40 MLOAD DUP1 SWAP2 SUB SWAP1 RETURN JUMPDEST PUSH2 0x18A PUSH2 0x544 JUMP JUMPDEST PUSH1 0x40 MLOAD PUSH2 0x197 SWAP2 SWAP1 PUSH2 0x22D6 JUMP JUMPDEST PUSH1 0x40 MLOAD DUP1 SWAP2 SUB SWAP1 RETURN JUMPDEST PUSH2 0x1BA PUSH1 0x4 DUP1 CALLDATASIZE SUB DUP2 ADD SWAP1 PUSH2 0x1B5 SWAP2 SWAP1 PUSH2 0x232E JUMP JUMPDEST PUSH2 0x5D6 JUMP JUMPDEST PUSH1 0x40 MLOAD PUSH2 0x1C7 SWAP2 SWAP1 PUSH2 0x239C JUMP JUMPDEST PUSH1 0x40 MLOAD DUP1 SWAP2 SUB SWAP1 RETURN JUMPDEST PUSH2 0x1EA PUSH1 0x4 DUP1 CALLDATASIZE SUB DUP2 ADD SWAP1 PUSH2 0x1E5 SWAP2 SWAP1 PUSH2 0x23E3 JUMP JUMPDEST PUSH2 0x61C JUMP JUMPDEST STOP JUMPDEST PUSH2 0x206 PUSH1 0x4 DUP1 CALLDATASIZE SUB DUP2 ADD SWAP1 PUSH2 0x201 SWAP2 SWAP1 PUSH2 0x232E JUMP JUMPDEST PUSH2 0x734 JUMP JUMPDEST PUSH1 0x40 MLOAD PUSH2 0x213 SWAP2 SWAP1 PUSH2 0x22D6 JUMP JUMPDEST PUSH1 0x40 MLOAD DUP1 SWAP2 SUB SWAP1 RETURN JUMPDEST PUSH2 0x236 PUSH1 0x4 DUP1 CALLDATASIZE SUB DUP2 ADD SWAP1 PUSH2 0x231 SWAP2 SWAP1 PUSH2 0x232E JUMP JUMPDEST PUSH2 0x7B0 JUMP JUMPDEST PUSH1 0x40 MLOAD PUSH2 0x243 SWAP2 SWAP1 PUSH2 0x22D6 JUMP JUMPDEST PUSH1 0x40 MLOAD DUP1 SWAP2 SUB SWAP1 RETURN JUMPDEST PUSH2 0x254 PUSH2 0x7DE JUMP JUMPDEST STOP JUMPDEST PUSH2 0x270 PUSH1 0x4 DUP1 CALLDATASIZE SUB DUP2 ADD SWAP1 PUSH2 0x26B SWAP2 SWAP1 PUSH2 0x2423 JUMP JUMPDEST PUSH2 0x8A5 JUMP JUMPDEST STOP JUMPDEST PUSH2 0x28C PUSH1 0x4 DUP1 CALLDATASIZE SUB DUP2 ADD SWAP1 PUSH2 0x287 SWAP2 SWAP1 PUSH2 0x232E JUMP JUMPDEST PUSH2 0x905 JUMP JUMPDEST STOP JUMPDEST PUSH2 0x2A8 PUSH1 0x4 DUP1 CALLDATASIZE SUB DUP2 ADD SWAP1 PUSH2 0x2A3 SWAP2 SWAP1 PUSH2 0x232E JUMP JUMPDEST PUSH2 0xA1B JUMP JUMPDEST PUSH1 0x40 MLOAD PUSH2 0x2B5 SWAP2 SWAP1 PUSH2 0x22D6 JUMP JUMPDEST PUSH1 0x40 MLOAD DUP1 SWAP2 SUB SWAP1 RETURN JUMPDEST PUSH2 0x2D8 PUSH1 0x4 DUP1 CALLDATASIZE SUB DUP2 ADD SWAP1 PUSH2 0x2D3 SWAP2 SWAP1 PUSH2 0x2423 JUMP JUMPDEST PUSH2 0xA83 JUMP JUMPDEST STOP JUMPDEST PUSH2 0x2F4 PUSH1 0x4 DUP1 CALLDATASIZE SUB DUP2 ADD SWAP1 PUSH2 0x2EF SWAP2 SWAP1 PUSH2 0x232E JUMP JUMPDEST PUSH2 0xAA3 JUMP JUMPDEST PUSH1 0x40 MLOAD PUSH2 0x301 SWAP2 SWAP1 PUSH2 0x22D6 JUMP JUMPDEST PUSH1 0x40 MLOAD DUP1 SWAP2 SUB SWAP1 RETURN JUMPDEST PUSH2 0x324 PUSH1 0x4 DUP1 CALLDATASIZE SUB DUP2 ADD SWAP1 PUSH2 0x31F SWAP2 SWAP1 PUSH2 0x232E JUMP JUMPDEST PUSH2 0xAD1 JUMP JUMPDEST PUSH1 0x40 MLOAD PUSH2 0x331 SWAP2 SWAP1 PUSH2 0x239C JUMP JUMPDEST PUSH1 0x40 MLOAD DUP1 SWAP2 SUB SWAP1 RETURN JUMPDEST PUSH2 0x354 PUSH1 0x4 DUP1 CALLDATASIZE SUB DUP2 ADD SWAP1 PUSH2 0x34F SWAP2 SWAP1 PUSH2 0x2476 JUMP JUMPDEST PUSH2 0xB58 JUMP JUMPDEST PUSH1 0x40 MLOAD PUSH2 0x361 SWAP2 SWAP1 PUSH2 0x24B2 JUMP JUMPDEST PUSH1 0x40 MLOAD DUP1 SWAP2 SUB SWAP1 RETURN JUMPDEST PUSH2 0x372 PUSH2 0xC10 JUMP JUMPDEST PUSH1 0x40 MLOAD PUSH2 0x37F SWAP2 SWAP1 PUSH2 0x22D6 JUMP JUMPDEST PUSH1 0x40 MLOAD DUP1 SWAP2 SUB SWAP1 RETURN JUMPDEST PUSH2 0x3A2 PUSH1 0x4 DUP1 CALLDATASIZE SUB DUP2 ADD SWAP1 PUSH2 0x39D SWAP2 SWAP1 PUSH2 0x24F9 JUMP JUMPDEST PUSH2 0xCA2 JUMP JUMPDEST STOP JUMPDEST PUSH2 0x3BE PUSH1 0x4 DUP1 CALLDATASIZE SUB DUP2 ADD SWAP1 PUSH2 0x3B9 SWAP2 SWAP1 PUSH2 0x266E JUMP JUMPDEST PUSH2 0xCB8 JUMP JUMPDEST STOP JUMPDEST PUSH2 0x3DA PUSH1 0x4 DUP1 CALLDATASIZE SUB DUP2 ADD SWAP1 PUSH2 0x3D5 SWAP2 SWAP1 PUSH2 0x232E JUMP JUMPDEST PUSH2 0xD1A JUMP JUMPDEST PUSH1 0x40 MLOAD PUSH2 0x3E7 SWAP2 SWAP1 PUSH2 0x22D6 JUMP JUMPDEST PUSH1 0x40 MLOAD DUP1 SWAP2 SUB SWAP1 RETURN JUMPDEST PUSH2 0x40A PUSH1 0x4 DUP1 CALLDATASIZE SUB DUP2 ADD SWAP1 PUSH2 0x405 SWAP2 SWAP1 PUSH2 0x232E JUMP JUMPDEST PUSH2 0xE2D JUMP JUMPDEST PUSH1 0x40 MLOAD PUSH2 0x41A SWAP5 SWAP4 SWAP3 SWAP2 SWAP1 PUSH2 0x26F1 JUMP JUMPDEST PUSH1 0x40 MLOAD DUP1 SWAP2 SUB SWAP1 RETURN JUMPDEST PUSH2 0x43D PUSH1 0x4 DUP1 CALLDATASIZE SUB DUP2 ADD SWAP1 PUSH2 0x438 SWAP2 SWAP1 PUSH2 0x232E JUMP JUMPDEST PUSH2 0xE5D JUMP JUMPDEST PUSH1 0x40 MLOAD PUSH2 0x44A SWAP2 SWAP1 PUSH2 0x22D6 JUMP JUMPDEST PUSH1 0x40 MLOAD DUP1 SWAP2 SUB SWAP1 RETURN JUMPDEST PUSH2 0x46D PUSH1 0x4 DUP1 CALLDATASIZE SUB DUP2 ADD SWAP1 PUSH2 0x468 SWAP2 SWAP1 PUSH2 0x232E JUMP JUMPDEST PUSH2 0xE8B JUMP JUMPDEST PUSH1 0x40 MLOAD PUSH2 0x47A SWAP2 SWAP1 PUSH2 0x24B2 JUMP JUMPDEST PUSH1 0x40 MLOAD DUP1 SWAP2 SUB SWAP1 RETURN JUMPDEST PUSH2 0x49D PUSH1 0x4 DUP1 CALLDATASIZE SUB DUP2 ADD SWAP1 PUSH2 0x498 SWAP2 SWAP1 PUSH2 0x2736 JUMP JUMPDEST PUSH2 0xEB0 JUMP JUMPDEST PUSH1 0x40 MLOAD PUSH2 0x4AA SWAP2 SWAP1 PUSH2 0x2222 JUMP JUMPDEST PUSH1 0x40 MLOAD DUP1 SWAP2 SUB SWAP1 RETURN JUMPDEST PUSH2 0x4CD PUSH1 0x4 DUP1 CALLDATASIZE SUB DUP2 ADD SWAP1 PUSH2 0x4C8 SWAP2 SWAP1 PUSH2 0x232E JUMP JUMPDEST PUSH2 0xF44 JUMP JUMPDEST PUSH1 0x40 MLOAD PUSH2 0x4DA SWAP2 SWAP1 PUSH2 0x22D6 JUMP JUMPDEST PUSH1 0x40 MLOAD DUP1 SWAP2 SUB SWAP1 RETURN JUMPDEST PUSH1 0x0 PUSH4 0x49064906 PUSH1 0xE0 SHL PUSH28 0xFFFFFFFFFFFFFFFFFFFFFFFFFFFFFFFFFFFFFFFFFFFFFFFFFFFFFFFF NOT AND DUP3 PUSH28 0xFFFFFFFFFFFFFFFFFFFFFFFFFFFFFFFFFFFFFFFFFFFFFFFFFFFFFFFF NOT AND EQ DUP1 PUSH2 0x53D JUMPI POP PUSH2 0x53C DUP3 PUSH2 0xF72 JUMP JUMPDEST JUMPDEST SWAP1 POP SWAP2 SWAP1 POP JUMP JUMPDEST PUSH1 0x60 PUSH1 0x0 DUP1 SLOAD PUSH2 0x553 SWAP1 PUSH2 0x27A5 JUMP JUMPDEST DUP1 PUSH1 0x1F ADD PUSH1 0x20 DUP1 SWAP2 DIV MUL PUSH1 0x20 ADD PUSH1 0x40 MLOAD SWAP1 DUP2 ADD PUSH1 0x40 MSTORE DUP1 SWAP3 SWAP2 SWAP1 DUP2 DUP2 MSTORE PUSH1 0x20 ADD DUP3 DUP1 SLOAD PUSH2 0x57F SWAP1 PUSH2 0x27A5 JUMP JUMPDEST DUP1 ISZERO PUSH2 0x5CC JUMPI DUP1 PUSH1 0x1F LT PUSH2 0x5A1 JUMPI PUSH2 0x100 DUP1 DUP4 SLOAD DIV MUL DUP4 MSTORE SWAP2 PUSH1 0x20 ADD SWAP2 PUSH2 0x5CC JUMP JUMPDEST DUP3 ADD SWAP2 SWAP1 PUSH1 0x0 MSTORE PUSH1 0x20 PUSH1 0x0 KECCAK256 SWAP1 JUMPDEST DUP2 SLOAD DUP2 MSTORE SWAP1 PUSH1 0x1 ADD SWAP1 PUSH1 0x20 ADD DUP1 DUP4 GT PUSH2 0x5AF JUMPI DUP3 SWAP1 SUB PUSH1 0x1F AND DUP3 ADD SWAP2 JUMPDEST POP POP POP POP POP SWAP1 POP SWAP1 JUMP JUMPDEST PUSH1 0x0 PUSH2 0x5E1 DUP3 PUSH2 0x1054 JUMP JUMPDEST PUSH1 0x4 PUSH1 0x0 DUP4 DUP2 MSTORE PUSH1 0x20 ADD SWAP1 DUP2 MSTORE PUSH1 0x20 ADD PUSH1 0x0 KECCAK256 PUSH1 0x0 SWAP1 SLOAD SWAP1 PUSH2 0x100 EXP SWAP1 DIV PUSH20 0xFFFFFFFFFFFFFFFFFFFFFFFFFFFFFFFFFFFFFFFF AND SWAP1 POP SWAP2 SWAP1 POP JUMP JUMPDEST PUSH1 0x0 PUSH2 0x627 DUP3 PUSH2 0xAD1 JUMP JUMPDEST SWAP1 POP DUP1 PUSH20 0xFFFFFFFFFFFFFFFFFFFFFFFFFFFFFFFFFFFFFFFF AND DUP4 PUSH20 0xFFFFFFFFFFFFFFFFFFFFFFFFFFFFFFFFFFFFFFFF AND EQ ISZERO PUSH2 0x698 JUMPI PUSH1 0x40 MLOAD PUSH32 0x8C379A000000000000000000000000000000000000000000000000000000000 DUP2 MSTORE PUSH1 0x4 ADD PUSH2 0x68F SWAP1 PUSH2 0x2849 JUMP JUMPDEST PUSH1 0x40 MLOAD DUP1 SWAP2 SUB SWAP1 REVERT JUMPDEST DUP1 PUSH20 0xFFFFFFFFFFFFFFFFFFFFFFFFFFFFFFFFFFFFFFFF AND PUSH2 0x6B7 PUSH2 0x109F JUMP JUMPDEST PUSH20 0xFFFFFFFFFFFFFFFFFFFFFFFFFFFFFFFFFFFFFFFF AND EQ DUP1 PUSH2 0x6E6 JUMPI POP PUSH2 0x6E5 DUP2 PUSH2 0x6E0 PUSH2 0x109F JUMP JUMPDEST PUSH2 0xEB0 JUMP JUMPDEST JUMPDEST PUSH2 0x725 JUMPI PUSH1 0x40 MLOAD PUSH32 0x8C379A000000000000000000000000000000000000000000000000000000000 DUP2 MSTORE PUSH1 0x4 ADD PUSH2 0x71C SWAP1 PUSH2 0x28DB JUMP JUMPDEST PUSH1 0x40 MLOAD DUP1 SWAP2 SUB SWAP1 REVERT JUMPDEST PUSH2 0x72F DUP4 DUP4 PUSH2 0x10A7 JUMP JUMPDEST POP POP POP JUMP JUMPDEST PUSH1 0x60 PUSH1 0x0 PUSH2 0x741 DUP4 PUSH2 0xF44 JUMP JUMPDEST PUSH2 0x74A DUP5 PUSH2 0xAA3 JUMP JUMPDEST PUSH2 0x753 DUP6 PUSH2 0xE5D JUMP JUMPDEST PUSH2 0x75C DUP7 PUSH2 0x7B0 JUMP JUMPDEST PUSH1 0x40 MLOAD PUSH1 0x20 ADD PUSH2 0x76F SWAP5 SWAP4 SWAP3 SWAP2 SWAP1 PUSH2 0x300B JUMP JUMPDEST PUSH1 0x40 MLOAD PUSH1 0x20 DUP2 DUP4 SUB SUB DUP2 MSTORE SWAP1 PUSH1 0x40 MSTORE SWAP1 POP PUSH2 0x789 DUP2 PUSH2 0x1160 JUMP JUMPDEST PUSH1 0x40 MLOAD PUSH1 0x20 ADD PUSH2 0x799 SWAP2 SWAP1 PUSH2 0x3166 JUMP JUMPDEST PUSH1 0x40 MLOAD PUSH1 0x20 DUP2 DUP4 SUB SUB DUP2 MSTORE SWAP1 PUSH1 0x40 MSTORE SWAP2 POP POP SWAP2 SWAP1 POP JUMP JUMPDEST PUSH1 0x60 PUSH1 0x0 PUSH1 0x8 PUSH1 0x0 DUP5 DUP2 MSTORE PUSH1 0x20 ADD SWAP1 DUP2 MSTORE PUSH1 0x20 ADD PUSH1 0x0 KECCAK256 PUSH1 0x3 ADD SLOAD SWAP1 POP PUSH2 0x7D6 DUP2 PUSH2 0x12C4 JUMP JUMPDEST SWAP2 POP POP SWAP2 SWAP1 POP JUMP JUMPDEST PUSH2 0x7E8 PUSH1 0x7 PUSH2 0x139C JUMP JUMPDEST PUSH1 0x0 PUSH2 0x7F4 PUSH1 0x7 PUSH2 0x13B2 JUMP JUMPDEST SWAP1 POP PUSH2 0x800 CALLER DUP3 PUSH2 0x13C0 JUMP JUMPDEST PUSH2 0x80A PUSH1 0xA PUSH2 0xE8B JUMP JUMPDEST PUSH1 0x8 PUSH1 0x0 DUP4 DUP2 MSTORE PUSH1 0x20 ADD SWAP1 DUP2 MSTORE PUSH1 0x20 ADD PUSH1 0x0 KECCAK256 PUSH1 0x0 ADD DUP2 SWAP1 SSTORE POP PUSH2 0x82E PUSH1 0x9 PUSH2 0xE8B JUMP JUMPDEST PUSH1 0x8 PUSH1 0x0 DUP4 DUP2 MSTORE PUSH1 0x20 ADD SWAP1 DUP2 MSTORE PUSH1 0x20 ADD PUSH1 0x0 KECCAK256 PUSH1 0x1 ADD DUP2 SWAP1 SSTORE POP PUSH2 0x852 PUSH1 0x8 PUSH2 0xE8B JUMP JUMPDEST PUSH1 0x8 PUSH1 0x0 DUP4 DUP2 MSTORE PUSH1 0x20 ADD SWAP1 DUP2 MSTORE PUSH1 0x20 ADD PUSH1 0x0 KECCAK256 PUSH1 0x2 ADD DUP2 SWAP1 SSTORE POP PUSH2 0x876 PUSH1 0x7 PUSH2 0xE8B JUMP JUMPDEST PUSH1 0x8 PUSH1 0x0 DUP4 DUP2 MSTORE PUSH1 0x20 ADD SWAP1 DUP2 MSTORE PUSH1 0x20 ADD PUSH1 0x0 KECCAK256 PUSH1 0x3 ADD DUP2 SWAP1 SSTORE POP PUSH2 0x8A2 DUP2 PUSH2 0x89D DUP4 PUSH2 0xA1B JUMP JUMPDEST PUSH2 0x13DE JUMP JUMPDEST POP JUMP JUMPDEST PUSH2 0x8B6 PUSH2 0x8B0 PUSH2 0x109F JUMP JUMPDEST DUP3 PUSH2 0x1489 JUMP JUMPDEST PUSH2 0x8F5 JUMPI PUSH1 0x40 MLOAD PUSH32 0x8C379A000000000000000000000000000000000000000000000000000000000 DUP2 MSTORE PUSH1 0x4 ADD PUSH2 0x8EC SWAP1 PUSH2 0x31FA JUMP JUMPDEST PUSH1 0x40 MLOAD DUP1 SWAP2 SUB SWAP1 REVERT JUMPDEST PUSH2 0x900 DUP4 DUP4 DUP4 PUSH2 0x151E JUMP JUMPDEST POP POP POP JUMP JUMPDEST PUSH2 0x90E DUP2 PUSH2 0x1818 JUMP JUMPDEST PUSH2 0x94D JUMPI PUSH1 0x40 MLOAD PUSH32 0x8C379A000000000000000000000000000000000000000000000000000000000 DUP2 MSTORE PUSH1 0x4 ADD PUSH2 0x944 SWAP1 PUSH2 0x3266 JUMP JUMPDEST PUSH1 0x40 MLOAD DUP1 SWAP2 SUB SWAP1 REVERT JUMPDEST CALLER PUSH20 0xFFFFFFFFFFFFFFFFFFFFFFFFFFFFFFFFFFFFFFFF AND PUSH2 0x96D DUP3 PUSH2 0xAD1 JUMP JUMPDEST PUSH20 0xFFFFFFFFFFFFFFFFFFFFFFFFFFFFFFFFFFFFFFFF AND EQ PUSH2 0x9C3 JUMPI PUSH1 0x40 MLOAD PUSH32 0x8C379A000000000000000000000000000000000000000000000000000000000 DUP2 MSTORE PUSH1 0x4 ADD PUSH2 0x9BA SWAP1 PUSH2 0x32F8 JUMP JUMPDEST PUSH1 0x40 MLOAD DUP1 SWAP2 SUB SWAP1 REVERT JUMPDEST PUSH1 0x0 PUSH1 0x8 PUSH1 0x0 DUP4 DUP2 MSTORE PUSH1 0x20 ADD SWAP1 DUP2 MSTORE PUSH1 0x20 ADD PUSH1 0x0 KECCAK256 PUSH1 0x0 ADD SLOAD SWAP1 POP PUSH1 0x1 DUP2 PUSH2 0x9EB SWAP2 SWAP1 PUSH2 0x3347 JUMP JUMPDEST PUSH1 0x8 PUSH1 0x0 DUP5 DUP2 MSTORE PUSH1 0x20 ADD SWAP1 DUP2 MSTORE PUSH1 0x20 ADD PUSH1 0x0 KECCAK256 PUSH1 0x0 ADD DUP2 SWAP1 SSTORE POP PUSH2 0xA17 DUP3 PUSH2 0xA12 DUP5 PUSH2 0xA1B JUMP JUMPDEST PUSH2 0x13DE JUMP JUMPDEST POP POP JUMP JUMPDEST PUSH1 0x60 PUSH1 0x0 PUSH2 0xA28 DUP4 PUSH2 0x12C4 JUMP JUMPDEST PUSH2 0xA31 DUP5 PUSH2 0x734 JUMP JUMPDEST PUSH1 0x40 MLOAD PUSH1 0x20 ADD PUSH2 0xA42 SWAP3 SWAP2 SWAP1 PUSH2 0x35D7 JUMP JUMPDEST PUSH1 0x40 MLOAD PUSH1 0x20 DUP2 DUP4 SUB SUB DUP2 MSTORE SWAP1 PUSH1 0x40 MSTORE SWAP1 POP PUSH2 0xA5C DUP2 PUSH2 0x1160 JUMP JUMPDEST PUSH1 0x40 MLOAD PUSH1 0x20 ADD PUSH2 0xA6C SWAP2 SWAP1 PUSH2 0x3694 JUMP JUMPDEST PUSH1 0x40 MLOAD PUSH1 0x20 DUP2 DUP4 SUB SUB DUP2 MSTORE SWAP1 PUSH1 0x40 MSTORE SWAP2 POP POP SWAP2 SWAP1 POP JUMP JUMPDEST PUSH2 0xA9E DUP4 DUP4 DUP4 PUSH1 0x40 MLOAD DUP1 PUSH1 0x20 ADD PUSH1 0x40 MSTORE DUP1 PUSH1 0x0 DUP2 MSTORE POP PUSH2 0xCB8 JUMP JUMPDEST POP POP POP JUMP JUMPDEST PUSH1 0x60 PUSH1 0x0 PUSH1 0x8 PUSH1 0x0 DUP5 DUP2 MSTORE PUSH1 0x20 ADD SWAP1 DUP2 MSTORE PUSH1 0x20 ADD PUSH1 0x0 KECCAK256 PUSH1 0x1 ADD SLOAD SWAP1 POP PUSH2 0xAC9 DUP2 PUSH2 0x12C4 JUMP JUMPDEST SWAP2 POP POP SWAP2 SWAP1 POP JUMP JUMPDEST PUSH1 0x0 DUP1 PUSH2 0xADD DUP4 PUSH2 0x1859 JUMP JUMPDEST SWAP1 POP PUSH1 0x0 PUSH20 0xFFFFFFFFFFFFFFFFFFFFFFFFFFFFFFFFFFFFFFFF AND DUP2 PUSH20 0xFFFFFFFFFFFFFFFFFFFFFFFFFFFFFFFFFFFFFFFF AND EQ ISZERO PUSH2 0xB4F JUMPI PUSH1 0x40 MLOAD PUSH32 0x8C379A000000000000000000000000000000000000000000000000000000000 DUP2 MSTORE PUSH1 0x4 ADD PUSH2 0xB46 SWAP1 PUSH2 0x3702 JUMP JUMPDEST PUSH1 0x40 MLOAD DUP1 SWAP2 SUB SWAP1 REVERT JUMPDEST DUP1 SWAP2 POP POP SWAP2 SWAP1 POP JUMP JUMPDEST PUSH1 0x0 DUP1 PUSH20 0xFFFFFFFFFFFFFFFFFFFFFFFFFFFFFFFFFFFFFFFF AND DUP3 PUSH20 0xFFFFFFFFFFFFFFFFFFFFFFFFFFFFFFFFFFFFFFFF AND EQ ISZERO PUSH2 0xBC9 JUMPI PUSH1 0x40 MLOAD PUSH32 0x8C379A000000000000000000000000000000000000000000000000000000000 DUP2 MSTORE PUSH1 0x4 ADD PUSH2 0xBC0 SWAP1 PUSH2 0x3794 JUMP JUMPDEST PUSH1 0x40 MLOAD DUP1 SWAP2 SUB SWAP1 REVERT JUMPDEST PUSH1 0x3 PUSH1 0x0 DUP4 PUSH20 0xFFFFFFFFFFFFFFFFFFFFFFFFFFFFFFFFFFFFFFFF AND PUSH20 0xFFFFFFFFFFFFFFFFFFFFFFFFFFFFFFFFFFFFFFFF AND DUP2 MSTORE PUSH1 0x20 ADD SWAP1 DUP2 MSTORE PUSH1 0x20 ADD PUSH1 0x0 KECCAK256 SLOAD SWAP1 POP SWAP2 SWAP1 POP JUMP JUMPDEST PUSH1 0x60 PUSH1 0x1 DUP1 SLOAD PUSH2 0xC1F SWAP1 PUSH2 0x27A5 JUMP JUMPDEST DUP1 PUSH1 0x1F ADD PUSH1 0x20 DUP1 SWAP2 DIV MUL PUSH1 0x20 ADD PUSH1 0x40 MLOAD SWAP1 DUP2 ADD PUSH1 0x40 MSTORE DUP1 SWAP3 SWAP2 SWAP1 DUP2 DUP2 MSTORE PUSH1 0x20 ADD DUP3 DUP1 SLOAD PUSH2 0xC4B SWAP1 PUSH2 0x27A5 JUMP JUMPDEST DUP1 ISZERO PUSH2 0xC98 JUMPI DUP1 PUSH1 0x1F LT PUSH2 0xC6D JUMPI PUSH2 0x100 DUP1 DUP4 SLOAD DIV MUL DUP4 MSTORE SWAP2 PUSH1 0x20 ADD SWAP2 PUSH2 0xC98 JUMP JUMPDEST DUP3 ADD SWAP2 SWAP1 PUSH1 0x0 MSTORE PUSH1 0x20 PUSH1 0x0 KECCAK256 SWAP1 JUMPDEST DUP2 SLOAD DUP2 MSTORE SWAP1 PUSH1 0x1 ADD SWAP1 PUSH1 0x20 ADD DUP1 DUP4 GT PUSH2 0xC7B JUMPI DUP3 SWAP1 SUB PUSH1 0x1F AND DUP3 ADD SWAP2 JUMPDEST POP POP POP POP POP SWAP1 POP SWAP1 JUMP JUMPDEST PUSH2 0xCB4 PUSH2 0xCAD PUSH2 0x109F JUMP JUMPDEST DUP4 DUP4 PUSH2 0x1896 JUMP JUMPDEST POP POP JUMP JUMPDEST PUSH2 0xCC9 PUSH2 0xCC3 PUSH2 0x109F JUMP JUMPDEST DUP4 PUSH2 0x1489 JUMP JUMPDEST PUSH2 0xD08 JUMPI PUSH1 0x40 MLOAD PUSH32 0x8C379A000000000000000000000000000000000000000000000000000000000 DUP2 MSTORE PUSH1 0x4 ADD PUSH2 0xCFF SWAP1 PUSH2 0x31FA JUMP JUMPDEST PUSH1 0x40 MLOAD DUP1 SWAP2 SUB SWAP1 REVERT JUMPDEST PUSH2 0xD14 DUP5 DUP5 DUP5 DUP5 PUSH2 0x1A03 JUMP JUMPDEST POP POP POP POP JUMP JUMPDEST PUSH1 0x60 PUSH2 0xD25 DUP3 PUSH2 0x1054 JUMP JUMPDEST PUSH1 0x0 PUSH1 0x6 PUSH1 0x0 DUP5 DUP2 MSTORE PUSH1 0x20 ADD SWAP1 DUP2 MSTORE PUSH1 0x20 ADD PUSH1 0x0 KECCAK256 DUP1 SLOAD PUSH2 0xD45 SWAP1 PUSH2 0x27A5 JUMP JUMPDEST DUP1 PUSH1 0x1F ADD PUSH1 0x20 DUP1 SWAP2 DIV MUL PUSH1 0x20 ADD PUSH1 0x40 MLOAD SWAP1 DUP2 ADD PUSH1 0x40 MSTORE DUP1 SWAP3 SWAP2 SWAP1 DUP2 DUP2 MSTORE PUSH1 0x20 ADD DUP3 DUP1 SLOAD PUSH2 0xD71 SWAP1 PUSH2 0x27A5 JUMP JUMPDEST DUP1 ISZERO PUSH2 0xDBE JUMPI DUP1 PUSH1 0x1F LT PUSH2 0xD93 JUMPI PUSH2 0x100 DUP1 DUP4 SLOAD DIV MUL DUP4 MSTORE SWAP2 PUSH1 0x20 ADD SWAP2 PUSH2 0xDBE JUMP JUMPDEST DUP3 ADD SWAP2 SWAP1 PUSH1 0x0 MSTORE PUSH1 0x20 PUSH1 0x0 KECCAK256 SWAP1 JUMPDEST DUP2 SLOAD DUP2 MSTORE SWAP1 PUSH1 0x1 ADD SWAP1 PUSH1 0x20 ADD DUP1 DUP4 GT PUSH2 0xDA1 JUMPI DUP3 SWAP1 SUB PUSH1 0x1F AND DUP3 ADD SWAP2 JUMPDEST POP POP POP POP POP SWAP1 POP PUSH1 0x0 PUSH2 0xDCF PUSH2 0x1A5F JUMP JUMPDEST SWAP1 POP PUSH1 0x0 DUP2 MLOAD EQ ISZERO PUSH2 0xDE5 JUMPI DUP2 SWAP3 POP POP POP PUSH2 0xE28 JUMP JUMPDEST PUSH1 0x0 DUP3 MLOAD GT ISZERO PUSH2 0xE1A JUMPI DUP1 DUP3 PUSH1 0x40 MLOAD PUSH1 0x20 ADD PUSH2 0xE02 SWAP3 SWAP2 SWAP1 PUSH2 0x37B4 JUMP JUMPDEST PUSH1 0x40 MLOAD PUSH1 0x20 DUP2 DUP4 SUB SUB DUP2 MSTORE SWAP1 PUSH1 0x40 MSTORE SWAP3 POP POP POP PUSH2 0xE28 JUMP JUMPDEST PUSH2 0xE23 DUP5 PUSH2 0x1A76 JUMP JUMPDEST SWAP3 POP POP POP JUMPDEST SWAP2 SWAP1 POP JUMP JUMPDEST PUSH1 0x8 PUSH1 0x20 MSTORE DUP1 PUSH1 0x0 MSTORE PUSH1 0x40 PUSH1 0x0 KECCAK256 PUSH1 0x0 SWAP2 POP SWAP1 POP DUP1 PUSH1 0x0 ADD SLOAD SWAP1 DUP1 PUSH1 0x1 ADD SLOAD SWAP1 DUP1 PUSH1 0x2 ADD SLOAD SWAP1 DUP1 PUSH1 0x3 ADD SLOAD SWAP1 POP DUP5 JUMP JUMPDEST PUSH1 0x60 PUSH1 0x0 PUSH1 0x8 PUSH1 0x0 DUP5 DUP2 MSTORE PUSH1 0x20 ADD SWAP1 DUP2 MSTORE PUSH1 0x20 ADD PUSH1 0x0 KECCAK256 PUSH1 0x2 ADD SLOAD SWAP1 POP PUSH2 0xE83 DUP2 PUSH2 0x12C4 JUMP JUMPDEST SWAP2 POP POP SWAP2 SWAP1 POP JUMP JUMPDEST PUSH1 0x0 DUP2 PUSH1 0x1 NUMBER PUSH2 0xE9B SWAP2 SWAP1 PUSH2 0x37D8 JUMP JUMPDEST BLOCKHASH PUSH1 0x0 SHR PUSH2 0xEA9 SWAP2 SWAP1 PUSH2 0x383B JUMP JUMPDEST SWAP1 POP SWAP2 SWAP1 POP JUMP JUMPDEST PUSH1 0x0 PUSH1 0x5 PUSH1 0x0 DUP5 PUSH20 0xFFFFFFFFFFFFFFFFFFFFFFFFFFFFFFFFFFFFFFFF AND PUSH20 0xFFFFFFFFFFFFFFFFFFFFFFFFFFFFFFFFFFFFFFFF AND DUP2 MSTORE PUSH1 0x20 ADD SWAP1 DUP2 MSTORE PUSH1 0x20 ADD PUSH1 0x0 KECCAK256 PUSH1 0x0 DUP4 PUSH20 0xFFFFFFFFFFFFFFFFFFFFFFFFFFFFFFFFFFFFFFFF AND PUSH20 0xFFFFFFFFFFFFFFFFFFFFFFFFFFFFFFFFFFFFFFFF AND DUP2 MSTORE PUSH1 0x20 ADD SWAP1 DUP2 MSTORE PUSH1 0x20 ADD PUSH1 0x0 KECCAK256 PUSH1 0x0 SWAP1 SLOAD SWAP1 PUSH2 0x100 EXP SWAP1 DIV PUSH1 0xFF AND SWAP1 POP SWAP3 SWAP2 POP POP JUMP JUMPDEST PUSH1 0x60 PUSH1 0x0 PUSH1 0x8 PUSH1 0x0 DUP5 DUP2 MSTORE PUSH1 0x20 ADD SWAP1 DUP2 MSTORE PUSH1 0x20 ADD PUSH1 0x0 KECCAK256 PUSH1 0x0 ADD SLOAD SWAP1 POP PUSH2 0xF6A DUP2 PUSH2 0x12C4 JUMP JUMPDEST SWAP2 POP POP SWAP2 SWAP1 POP JUMP JUMPDEST PUSH1 0x0 PUSH32 0x80AC58CD00000000000000000000000000000000000000000000000000000000 PUSH28 0xFFFFFFFFFFFFFFFFFFFFFFFFFFFFFFFFFFFFFFFFFFFFFFFFFFFFFFFF NOT AND DUP3 PUSH28 0xFFFFFFFFFFFFFFFFFFFFFFFFFFFFFFFFFFFFFFFFFFFFFFFFFFFFFFFF NOT AND EQ DUP1 PUSH2 0x103D JUMPI POP PUSH32 0x5B5E139F00000000000000000000000000000000000000000000000000000000 PUSH28 0xFFFFFFFFFFFFFFFFFFFFFFFFFFFFFFFFFFFFFFFFFFFFFFFFFFFFFFFF NOT AND DUP3 PUSH28 0xFFFFFFFFFFFFFFFFFFFFFFFFFFFFFFFFFFFFFFFFFFFFFFFFFFFFFFFF NOT AND EQ JUMPDEST DUP1 PUSH2 0x104D JUMPI POP PUSH2 0x104C DUP3 PUSH2 0x1ADE JUMP JUMPDEST JUMPDEST SWAP1 POP SWAP2 SWAP1 POP JUMP JUMPDEST PUSH2 0x105D DUP2 PUSH2 0x1818 JUMP JUMPDEST PUSH2 0x109C JUMPI PUSH1 0x40 MLOAD PUSH32 0x8C379A000000000000000000000000000000000000000000000000000000000 DUP2 MSTORE PUSH1 0x4 ADD PUSH2 0x1093 SWAP1 PUSH2 0x3702 JUMP JUMPDEST PUSH1 0x40 MLOAD DUP1 SWAP2 SUB SWAP1 REVERT JUMPDEST POP JUMP JUMPDEST PUSH1 0x0 CALLER SWAP1 POP SWAP1 JUMP JUMPDEST DUP2 PUSH1 0x4 PUSH1 0x0 DUP4 DUP2 MSTORE PUSH1 0x20 ADD SWAP1 DUP2 MSTORE PUSH1 0x20 ADD PUSH1 0x0 KECCAK256 PUSH1 0x0 PUSH2 0x100 EXP DUP2 SLOAD DUP2 PUSH20 0xFFFFFFFFFFFFFFFFFFFFFFFFFFFFFFFFFFFFFFFF MUL NOT AND SWAP1 DUP4 PUSH20 0xFFFFFFFFFFFFFFFFFFFFFFFFFFFFFFFFFFFFFFFF AND MUL OR SWAP1 SSTORE POP DUP1 DUP3 PUSH20 0xFFFFFFFFFFFFFFFFFFFFFFFFFFFFFFFFFFFFFFFF AND PUSH2 0x111A DUP4 PUSH2 0xAD1 JUMP JUMPDEST PUSH20 0xFFFFFFFFFFFFFFFFFFFFFFFFFFFFFFFFFFFFFFFF AND PUSH32 0x8C5BE1E5EBEC7D5BD14F71427D1E84F3DD0314C0F7B2291E5B200AC8C7C3B925 PUSH1 0x40 MLOAD PUSH1 0x40 MLOAD DUP1 SWAP2 SUB SWAP1 LOG4 POP POP JUMP JUMPDEST PUSH1 0x60 PUSH1 0x0 DUP3 MLOAD EQ ISZERO PUSH2 0x1183 JUMPI PUSH1 0x40 MLOAD DUP1 PUSH1 0x20 ADD PUSH1 0x40 MSTORE DUP1 PUSH1 0x0 DUP2 MSTORE POP SWAP1 POP PUSH2 0x12BF JUMP JUMPDEST PUSH1 0x0 PUSH1 0x40 MLOAD DUP1 PUSH1 0x60 ADD PUSH1 0x40 MSTORE DUP1 PUSH1 0x40 DUP2 MSTORE PUSH1 0x20 ADD PUSH2 0x3D67 PUSH1 0x40 SWAP2 CODECOPY SWAP1 POP PUSH1 0x0 PUSH1 0x3 PUSH1 0x2 DUP6 MLOAD PUSH2 0x11B2 SWAP2 SWAP1 PUSH2 0x3347 JUMP JUMPDEST PUSH2 0x11BC SWAP2 SWAP1 PUSH2 0x386C JUMP JUMPDEST PUSH1 0x4 PUSH2 0x11C8 SWAP2 SWAP1 PUSH2 0x389D JUMP JUMPDEST PUSH8 0xFFFFFFFFFFFFFFFF DUP2 GT ISZERO PUSH2 0x11E1 JUMPI PUSH2 0x11E0 PUSH2 0x2543 JUMP JUMPDEST JUMPDEST PUSH1 0x40 MLOAD SWAP1 DUP1 DUP3 MSTORE DUP1 PUSH1 0x1F ADD PUSH1 0x1F NOT AND PUSH1 0x20 ADD DUP3 ADD PUSH1 0x40 MSTORE DUP1 ISZERO PUSH2 0x1213 JUMPI DUP2 PUSH1 0x20 ADD PUSH1 0x1 DUP3 MUL DUP1 CALLDATASIZE DUP4 CALLDATACOPY DUP1 DUP3 ADD SWAP2 POP POP SWAP1 POP JUMPDEST POP SWAP1 POP PUSH1 0x1 DUP3 ADD PUSH1 0x20 DUP3 ADD DUP6 DUP7 MLOAD DUP8 ADD JUMPDEST DUP1 DUP3 LT ISZERO PUSH2 0x127F JUMPI PUSH1 0x3 DUP3 ADD SWAP2 POP DUP2 MLOAD PUSH1 0x3F DUP2 PUSH1 0x12 SHR AND DUP6 ADD MLOAD DUP5 MSTORE8 PUSH1 0x1 DUP5 ADD SWAP4 POP PUSH1 0x3F DUP2 PUSH1 0xC SHR AND DUP6 ADD MLOAD DUP5 MSTORE8 PUSH1 0x1 DUP5 ADD SWAP4 POP PUSH1 0x3F DUP2 PUSH1 0x6 SHR AND DUP6 ADD MLOAD DUP5 MSTORE8 PUSH1 0x1 DUP5 ADD SWAP4 POP PUSH1 0x3F DUP2 AND DUP6 ADD MLOAD DUP5 MSTORE8 PUSH1 0x1 DUP5 ADD SWAP4 POP POP PUSH2 0x1224 JUMP JUMPDEST POP POP PUSH1 0x3 DUP7 MLOAD MOD PUSH1 0x1 DUP2 EQ PUSH2 0x129B JUMPI PUSH1 0x2 DUP2 EQ PUSH2 0x12AE JUMPI PUSH2 0x12B6 JUMP JUMPDEST PUSH1 0x3D PUSH1 0x1 DUP4 SUB MSTORE8 PUSH1 0x3D PUSH1 0x2 DUP4 SUB MSTORE8 PUSH2 0x12B6 JUMP JUMPDEST PUSH1 0x3D PUSH1 0x1 DUP4 SUB MSTORE8 JUMPDEST POP POP POP DUP1 SWAP3 POP POP POP JUMPDEST SWAP2 SWAP1 POP JUMP JUMPDEST PUSH1 0x60 PUSH1 0x0 PUSH1 0x1 PUSH2 0x12D3 DUP5 PUSH2 0x1B48 JUMP JUMPDEST ADD SWAP1 POP PUSH1 0x0 DUP2 PUSH8 0xFFFFFFFFFFFFFFFF DUP2 GT ISZERO PUSH2 0x12F2 JUMPI PUSH2 0x12F1 PUSH2 0x2543 JUMP JUMPDEST JUMPDEST PUSH1 0x40 MLOAD SWAP1 DUP1 DUP3 MSTORE DUP1 PUSH1 0x1F ADD PUSH1 0x1F NOT AND PUSH1 0x20 ADD DUP3 ADD PUSH1 0x40 MSTORE DUP1 ISZERO PUSH2 0x1324 JUMPI DUP2 PUSH1 0x20 ADD PUSH1 0x1 DUP3 MUL DUP1 CALLDATASIZE DUP4 CALLDATACOPY DUP1 DUP3 ADD SWAP2 POP POP SWAP1 POP JUMPDEST POP SWAP1 POP PUSH1 0x0 DUP3 PUSH1 0x20 ADD DUP3 ADD SWAP1 POP JUMPDEST PUSH1 0x1 ISZERO PUSH2 0x1391 JUMPI DUP1 DUP1 PUSH1 0x1 SWAP1 SUB SWAP2 POP POP PUSH32 0x3031323334353637383961626364656600000000000000000000000000000000 PUSH1 0xA DUP7 MOD BYTE DUP2 MSTORE8 PUSH1 0xA DUP6 DUP2 PUSH2 0x137B JUMPI PUSH2 0x137A PUSH2 0x380C JUMP JUMPDEST JUMPDEST DIV SWAP5 POP PUSH1 0x0 DUP6 EQ ISZERO PUSH2 0x138C JUMPI PUSH2 0x1391 JUMP JUMPDEST PUSH2 0x1332 JUMP JUMPDEST DUP2 SWAP4 POP POP POP POP SWAP2 SWAP1 POP JUMP JUMPDEST PUSH1 0x1 DUP2 PUSH1 0x0 ADD PUSH1 0x0 DUP3 DUP3 SLOAD ADD SWAP3 POP POP DUP2 SWAP1 SSTORE POP POP JUMP JUMPDEST PUSH1 0x0 DUP2 PUSH1 0x0 ADD SLOAD SWAP1 POP SWAP2 SWAP1 POP JUMP JUMPDEST PUSH2 0x13DA DUP3 DUP3 PUSH1 0x40 MLOAD DUP1 PUSH1 0x20 ADD PUSH1 0x40 MSTORE DUP1 PUSH1 0x0 DUP2 MSTORE POP PUSH2 0x1C9B JUMP JUMPDEST POP POP JUMP JUMPDEST PUSH2 0x13E7 DUP3 PUSH2 0x1818 JUMP JUMPDEST PUSH2 0x1426 JUMPI PUSH1 0x40 MLOAD PUSH32 0x8C379A000000000000000000000000000000000000000000000000000000000 DUP2 MSTORE PUSH1 0x4 ADD PUSH2 0x141D SWAP1 PUSH2 0x3969 JUMP JUMPDEST PUSH1 0x40 MLOAD DUP1 SWAP2 SUB SWAP1 REVERT JUMPDEST DUP1 PUSH1 0x6 PUSH1 0x0 DUP5 DUP2 MSTORE PUSH1 0x20 ADD SWAP1 DUP2 MSTORE PUSH1 0x20 ADD PUSH1 0x0 KECCAK256 SWAP1 DUP1 MLOAD SWAP1 PUSH1 0x20 ADD SWAP1 PUSH2 0x144D SWAP3 SWAP2 SWAP1 PUSH2 0x20CB JUMP JUMPDEST POP PUSH32 0xF8E1A15ABA9398E019F0B49DF1A4FDE98EE17AE345CB5F6B5E2C27F5033E8CE7 DUP3 PUSH1 0x40 MLOAD PUSH2 0x147D SWAP2 SWAP1 PUSH2 0x24B2 JUMP JUMPDEST PUSH1 0x40 MLOAD DUP1 SWAP2 SUB SWAP1 LOG1 POP POP JUMP JUMPDEST PUSH1 0x0 DUP1 PUSH2 0x1495 DUP4 PUSH2 0xAD1 JUMP JUMPDEST SWAP1 POP DUP1 PUSH20 0xFFFFFFFFFFFFFFFFFFFFFFFFFFFFFFFFFFFFFFFF AND DUP5 PUSH20 0xFFFFFFFFFFFFFFFFFFFFFFFFFFFFFFFFFFFFFFFF AND EQ DUP1 PUSH2 0x14D7 JUMPI POP PUSH2 0x14D6 DUP2 DUP6 PUSH2 0xEB0 JUMP JUMPDEST JUMPDEST DUP1 PUSH2 0x1515 JUMPI POP DUP4 PUSH20 0xFFFFFFFFFFFFFFFFFFFFFFFFFFFFFFFFFFFFFFFF AND PUSH2 0x14FD DUP5 PUSH2 0x5D6 JUMP JUMPDEST PUSH20 0xFFFFFFFFFFFFFFFFFFFFFFFFFFFFFFFFFFFFFFFF AND EQ JUMPDEST SWAP2 POP POP SWAP3 SWAP2 POP POP JUMP JUMPDEST DUP3 PUSH20 0xFFFFFFFFFFFFFFFFFFFFFFFFFFFFFFFFFFFFFFFF AND PUSH2 0x153E DUP3 PUSH2 0xAD1 JUMP JUMPDEST PUSH20 0xFFFFFFFFFFFFFFFFFFFFFFFFFFFFFFFFFFFFFFFF AND EQ PUSH2 0x1594 JUMPI PUSH1 0x40 MLOAD PUSH32 0x8C379A000000000000000000000000000000000000000000000000000000000 DUP2 MSTORE PUSH1 0x4 ADD PUSH2 0x158B SWAP1 PUSH2 0x39FB JUMP JUMPDEST PUSH1 0x40 MLOAD DUP1 SWAP2 SUB SWAP1 REVERT JUMPDEST PUSH1 0x0 PUSH20 0xFFFFFFFFFFFFFFFFFFFFFFFFFFFFFFFFFFFFFFFF AND DUP3 PUSH20 0xFFFFFFFFFFFFFFFFFFFFFFFFFFFFFFFFFFFFFFFF AND EQ ISZERO PUSH2 0x1604 JUMPI PUSH1 0x40 MLOAD PUSH32 0x8C379A000000000000000000000000000000000000000000000000000000000 DUP2 MSTORE PUSH1 0x4 ADD PUSH2 0x15FB SWAP1 PUSH2 0x3A8D JUMP JUMPDEST PUSH1 0x40 MLOAD DUP1 SWAP2 SUB SWAP1 REVERT JUMPDEST PUSH2 0x1611 DUP4 DUP4 DUP4 PUSH1 0x1 PUSH2 0x1CF6 JUMP JUMPDEST DUP3 PUSH20 0xFFFFFFFFFFFFFFFFFFFFFFFFFFFFFFFFFFFFFFFF AND PUSH2 0x1631 DUP3 PUSH2 0xAD1 JUMP JUMPDEST PUSH20 0xFFFFFFFFFFFFFFFFFFFFFFFFFFFFFFFFFFFFFFFF AND EQ PUSH2 0x1687 JUMPI PUSH1 0x40 MLOAD PUSH32 0x8C379A000000000000000000000000000000000000000000000000000000000 DUP2 MSTORE PUSH1 0x4 ADD PUSH2 0x167E SWAP1 PUSH2 0x39FB JUMP JUMPDEST PUSH1 0x40 MLOAD DUP1 SWAP2 SUB SWAP1 REVERT JUMPDEST PUSH1 0x4 PUSH1 0x0 DUP3 DUP2 MSTORE PUSH1 0x20 ADD SWAP1 DUP2 MSTORE PUSH1 0x20 ADD PUSH1 0x0 KECCAK256 PUSH1 0x0 PUSH2 0x100 EXP DUP2 SLOAD SWAP1 PUSH20 0xFFFFFFFFFFFFFFFFFFFFFFFFFFFFFFFFFFFFFFFF MUL NOT AND SWAP1 SSTORE PUSH1 0x1 PUSH1 0x3 PUSH1 0x0 DUP6 PUSH20 0xFFFFFFFFFFFFFFFFFFFFFFFFFFFFFFFFFFFFFFFF AND PUSH20 0xFFFFFFFFFFFFFFFFFFFFFFFFFFFFFFFFFFFFFFFF AND DUP2 MSTORE PUSH1 0x20 ADD SWAP1 DUP2 MSTORE PUSH1 0x20 ADD PUSH1 0x0 KECCAK256 PUSH1 0x0 DUP3 DUP3 SLOAD SUB SWAP3 POP POP DUP2 SWAP1 SSTORE POP PUSH1 0x1 PUSH1 0x3 PUSH1 0x0 DUP5 PUSH20 0xFFFFFFFFFFFFFFFFFFFFFFFFFFFFFFFFFFFFFFFF AND PUSH20 0xFFFFFFFFFFFFFFFFFFFFFFFFFFFFFFFFFFFFFFFF AND DUP2 MSTORE PUSH1 0x20 ADD SWAP1 DUP2 MSTORE PUSH1 0x20 ADD PUSH1 0x0 KECCAK256 PUSH1 0x0 DUP3 DUP3 SLOAD ADD SWAP3 POP POP DUP2 SWAP1 SSTORE POP DUP2 PUSH1 0x2 PUSH1 0x0 DUP4 DUP2 MSTORE PUSH1 0x20 ADD SWAP1 DUP2 MSTORE PUSH1 0x20 ADD PUSH1 0x0 KECCAK256 PUSH1 0x0 PUSH2 0x100 EXP DUP2 SLOAD DUP2 PUSH20 0xFFFFFFFFFFFFFFFFFFFFFFFFFFFFFFFFFFFFFFFF MUL NOT AND SWAP1 DUP4 PUSH20 0xFFFFFFFFFFFFFFFFFFFFFFFFFFFFFFFFFFFFFFFF AND MUL OR SWAP1 SSTORE POP DUP1 DUP3 PUSH20 0xFFFFFFFFFFFFFFFFFFFFFFFFFFFFFFFFFFFFFFFF AND DUP5 PUSH20 0xFFFFFFFFFFFFFFFFFFFFFFFFFFFFFFFFFFFFFFFF AND PUSH32 0xDDF252AD1BE2C89B69C2B068FC378DAA952BA7F163C4A11628F55A4DF523B3EF PUSH1 0x40 MLOAD PUSH1 0x40 MLOAD DUP1 SWAP2 SUB SWAP1 LOG4 PUSH2 0x1813 DUP4 DUP4 DUP4 PUSH1 0x1 PUSH2 0x1CFC JUMP JUMPDEST POP POP POP JUMP JUMPDEST PUSH1 0x0 DUP1 PUSH20 0xFFFFFFFFFFFFFFFFFFFFFFFFFFFFFFFFFFFFFFFF AND PUSH2 0x183A DUP4 PUSH2 0x1859 JUMP JUMPDEST PUSH20 0xFFFFFFFFFFFFFFFFFFFFFFFFFFFFFFFFFFFFFFFF AND EQ ISZERO SWAP1 POP SWAP2 SWAP1 POP JUMP JUMPDEST PUSH1 0x0 PUSH1 0x2 PUSH1 0x0 DUP4 DUP2 MSTORE PUSH1 0x20 ADD SWAP1 DUP2 MSTORE PUSH1 0x20 ADD PUSH1 0x0 KECCAK256 PUSH1 0x0 SWAP1 SLOAD SWAP1 PUSH2 0x100 EXP SWAP1 DIV PUSH20 0xFFFFFFFFFFFFFFFFFFFFFFFFFFFFFFFFFFFFFFFF AND SWAP1 POP SWAP2 SWAP1 POP JUMP JUMPDEST DUP2 PUSH20 0xFFFFFFFFFFFFFFFFFFFFFFFFFFFFFFFFFFFFFFFF AND DUP4 PUSH20 0xFFFFFFFFFFFFFFFFFFFFFFFFFFFFFFFFFFFFFFFF AND EQ ISZERO PUSH2 0x1905 JUMPI PUSH1 0x40 MLOAD PUSH32 0x8C379A000000000000000000000000000000000000000000000000000000000 DUP2 MSTORE PUSH1 0x4 ADD PUSH2 0x18FC SWAP1 PUSH2 0x3AF9 JUMP JUMPDEST PUSH1 0x40 MLOAD DUP1 SWAP2 SUB SWAP1 REVERT JUMPDEST DUP1 PUSH1 0x5 PUSH1 0x0 DUP6 PUSH20 0xFFFFFFFFFFFFFFFFFFFFFFFFFFFFFFFFFFFFFFFF AND PUSH20 0xFFFFFFFFFFFFFFFFFFFFFFFFFFFFFFFFFFFFFFFF AND DUP2 MSTORE PUSH1 0x20 ADD SWAP1 DUP2 MSTORE PUSH1 0x20 ADD PUSH1 0x0 KECCAK256 PUSH1 0x0 DUP5 PUSH20 0xFFFFFFFFFFFFFFFFFFFFFFFFFFFFFFFFFFFFFFFF AND PUSH20 0xFFFFFFFFFFFFFFFFFFFFFFFFFFFFFFFFFFFFFFFF AND DUP2 MSTORE PUSH1 0x20 ADD SWAP1 DUP2 MSTORE PUSH1 0x20 ADD PUSH1 0x0 KECCAK256 PUSH1 0x0 PUSH2 0x100 EXP DUP2 SLOAD DUP2 PUSH1 0xFF MUL NOT AND SWAP1 DUP4 ISZERO ISZERO MUL OR SWAP1 SSTORE POP DUP2 PUSH20 0xFFFFFFFFFFFFFFFFFFFFFFFFFFFFFFFFFFFFFFFF AND DUP4 PUSH20 0xFFFFFFFFFFFFFFFFFFFFFFFFFFFFFFFFFFFFFFFF AND PUSH32 0x17307EAB39AB6107E8899845AD3D59BD9653F200F220920489CA2B5937696C31 DUP4 PUSH1 0x40 MLOAD PUSH2 0x19F6 SWAP2 SWAP1 PUSH2 0x2222 JUMP JUMPDEST PUSH1 0x40 MLOAD DUP1 SWAP2 SUB SWAP1 LOG3 POP POP POP JUMP JUMPDEST PUSH2 0x1A0E DUP5 DUP5 DUP5 PUSH2 0x151E JUMP JUMPDEST PUSH2 0x1A1A DUP5 DUP5 DUP5 DUP5 PUSH2 0x1D02 JUMP JUMPDEST PUSH2 0x1A59 JUMPI PUSH1 0x40 MLOAD PUSH32 0x8C379A000000000000000000000000000000000000000000000000000000000 DUP2 MSTORE PUSH1 0x4 ADD PUSH2 0x1A50 SWAP1 PUSH2 0x3B8B JUMP JUMPDEST PUSH1 0x40 MLOAD DUP1 SWAP2 SUB SWAP1 REVERT JUMPDEST POP POP POP POP JUMP JUMPDEST PUSH1 0x60 PUSH1 0x40 MLOAD DUP1 PUSH1 0x20 ADD PUSH1 0x40 MSTORE DUP1 PUSH1 0x0 DUP2 MSTORE POP SWAP1 POP SWAP1 JUMP JUMPDEST PUSH1 0x60 PUSH2 0x1A81 DUP3 PUSH2 0x1054 JUMP JUMPDEST PUSH1 0x0 PUSH2 0x1A8B PUSH2 0x1A5F JUMP JUMPDEST SWAP1 POP PUSH1 0x0 DUP2 MLOAD GT PUSH2 0x1AAB JUMPI PUSH1 0x40 MLOAD DUP1 PUSH1 0x20 ADD PUSH1 0x40 MSTORE DUP1 PUSH1 0x0 DUP2 MSTORE POP PUSH2 0x1AD6 JUMP JUMPDEST DUP1 PUSH2 0x1AB5 DUP5 PUSH2 0x12C4 JUMP JUMPDEST PUSH1 0x40 MLOAD PUSH1 0x20 ADD PUSH2 0x1AC6 SWAP3 SWAP2 SWAP1 PUSH2 0x37B4 JUMP JUMPDEST PUSH1 0x40 MLOAD PUSH1 0x20 DUP2 DUP4 SUB SUB DUP2 MSTORE SWAP1 PUSH1 0x40 MSTORE JUMPDEST SWAP2 POP POP SWAP2 SWAP1 POP JUMP JUMPDEST PUSH1 0x0 PUSH32 0x1FFC9A700000000000000000000000000000000000000000000000000000000 PUSH28 0xFFFFFFFFFFFFFFFFFFFFFFFFFFFFFFFFFFFFFFFFFFFFFFFFFFFFFFFF NOT AND DUP3 PUSH28 0xFFFFFFFFFFFFFFFFFFFFFFFFFFFFFFFFFFFFFFFFFFFFFFFFFFFFFFFF NOT AND EQ SWAP1 POP SWAP2 SWAP1 POP JUMP JUMPDEST PUSH1 0x0 DUP1 PUSH1 0x0 SWAP1 POP PUSH27 0x184F03E93FF9F4DAA797ED6E38ED64BF6A1F010000000000000000 DUP4 LT PUSH2 0x1BA6 JUMPI PUSH27 0x184F03E93FF9F4DAA797ED6E38ED64BF6A1F010000000000000000 DUP4 DUP2 PUSH2 0x1B9C JUMPI PUSH2 0x1B9B PUSH2 0x380C JUMP JUMPDEST JUMPDEST DIV SWAP3 POP PUSH1 0x40 DUP2 ADD SWAP1 POP JUMPDEST PUSH14 0x4EE2D6D415B85ACEF8100000000 DUP4 LT PUSH2 0x1BE3 JUMPI PUSH14 0x4EE2D6D415B85ACEF8100000000 DUP4 DUP2 PUSH2 0x1BD9 JUMPI PUSH2 0x1BD8 PUSH2 0x380C JUMP JUMPDEST JUMPDEST DIV SWAP3 POP PUSH1 0x20 DUP2 ADD SWAP1 POP JUMPDEST PUSH7 0x2386F26FC10000 DUP4 LT PUSH2 0x1C12 JUMPI PUSH7 0x2386F26FC10000 DUP4 DUP2 PUSH2 0x1C08 JUMPI PUSH2 0x1C07 PUSH2 0x380C JUMP JUMPDEST JUMPDEST DIV SWAP3 POP PUSH1 0x10 DUP2 ADD SWAP1 POP JUMPDEST PUSH4 0x5F5E100 DUP4 LT PUSH2 0x1C3B JUMPI PUSH4 0x5F5E100 DUP4 DUP2 PUSH2 0x1C31 JUMPI PUSH2 0x1C30 PUSH2 0x380C JUMP JUMPDEST JUMPDEST DIV SWAP3 POP PUSH1 0x8 DUP2 ADD SWAP1 POP JUMPDEST PUSH2 0x2710 DUP4 LT PUSH2 0x1C60 JUMPI PUSH2 0x2710 DUP4 DUP2 PUSH2 0x1C56 JUMPI PUSH2 0x1C55 PUSH2 0x380C JUMP JUMPDEST JUMPDEST DIV SWAP3 POP PUSH1 0x4 DUP2 ADD SWAP1 POP JUMPDEST PUSH1 0x64 DUP4 LT PUSH2 0x1C83 JUMPI PUSH1 0x64 DUP4 DUP2 PUSH2 0x1C79 JUMPI PUSH2 0x1C78 PUSH2 0x380C JUMP JUMPDEST JUMPDEST DIV SWAP3 POP PUSH1 0x2 DUP2 ADD SWAP1 POP JUMPDEST PUSH1 0xA DUP4 LT PUSH2 0x1C92 JUMPI PUSH1 0x1 DUP2 ADD SWAP1 POP JUMPDEST DUP1 SWAP2 POP POP SWAP2 SWAP1 POP JUMP JUMPDEST PUSH2 0x1CA5 DUP4 DUP4 PUSH2 0x1E8A JUMP JUMPDEST PUSH2 0x1CB2 PUSH1 0x0 DUP5 DUP5 DUP5 PUSH2 0x1D02 JUMP JUMPDEST PUSH2 0x1CF1 JUMPI PUSH1 0x40 MLOAD PUSH32 0x8C379A000000000000000000000000000000000000000000000000000000000 DUP2 MSTORE PUSH1 0x4 ADD PUSH2 0x1CE8 SWAP1 PUSH2 0x3B8B JUMP JUMPDEST PUSH1 0x40 MLOAD DUP1 SWAP2 SUB SWAP1 REVERT JUMPDEST POP POP POP JUMP JUMPDEST POP POP POP POP JUMP JUMPDEST POP POP POP POP JUMP JUMPDEST PUSH1 0x0 PUSH2 0x1D23 DUP5 PUSH20 0xFFFFFFFFFFFFFFFFFFFFFFFFFFFFFFFFFFFFFFFF AND PUSH2 0x20A8 JUMP JUMPDEST ISZERO PUSH2 0x1E7D JUMPI DUP4 PUSH20 0xFFFFFFFFFFFFFFFFFFFFFFFFFFFFFFFFFFFFFFFF AND PUSH4 0x150B7A02 PUSH2 0x1D4C PUSH2 0x109F JUMP JUMPDEST DUP8 DUP7 DUP7 PUSH1 0x40 MLOAD DUP6 PUSH4 0xFFFFFFFF AND PUSH1 0xE0 SHL DUP2 MSTORE PUSH1 0x4 ADD PUSH2 0x1D6E SWAP5 SWAP4 SWAP3 SWAP2 SWAP1 PUSH2 0x3C00 JUMP JUMPDEST PUSH1 0x20 PUSH1 0x40 MLOAD DUP1 DUP4 SUB DUP2 PUSH1 0x0 DUP8 GAS CALL SWAP3 POP POP POP DUP1 ISZERO PUSH2 0x1DAA JUMPI POP PUSH1 0x40 MLOAD RETURNDATASIZE PUSH1 0x1F NOT PUSH1 0x1F DUP3 ADD AND DUP3 ADD DUP1 PUSH1 0x40 MSTORE POP DUP2 ADD SWAP1 PUSH2 0x1DA7 SWAP2 SWAP1 PUSH2 0x3C61 JUMP JUMPDEST PUSH1 0x1 JUMPDEST PUSH2 0x1E2D JUMPI RETURNDATASIZE DUP1 PUSH1 0x0 DUP2 EQ PUSH2 0x1DDA JUMPI PUSH1 0x40 MLOAD SWAP2 POP PUSH1 0x1F NOT PUSH1 0x3F RETURNDATASIZE ADD AND DUP3 ADD PUSH1 0x40 MSTORE RETURNDATASIZE DUP3 MSTORE RETURNDATASIZE PUSH1 0x0 PUSH1 0x20 DUP5 ADD RETURNDATACOPY PUSH2 0x1DDF JUMP JUMPDEST PUSH1 0x60 SWAP2 POP JUMPDEST POP PUSH1 0x0 DUP2 MLOAD EQ ISZERO PUSH2 0x1E25 JUMPI PUSH1 0x40 MLOAD PUSH32 0x8C379A000000000000000000000000000000000000000000000000000000000 DUP2 MSTORE PUSH1 0x4 ADD PUSH2 0x1E1C SWAP1 PUSH2 0x3B8B JUMP JUMPDEST PUSH1 0x40 MLOAD DUP1 SWAP2 SUB SWAP1 REVERT JUMPDEST DUP1 MLOAD DUP2 PUSH1 0x20 ADD REVERT JUMPDEST PUSH4 0x150B7A02 PUSH1 0xE0 SHL PUSH28 0xFFFFFFFFFFFFFFFFFFFFFFFFFFFFFFFFFFFFFFFFFFFFFFFFFFFFFFFF NOT AND DUP2 PUSH28 0xFFFFFFFFFFFFFFFFFFFFFFFFFFFFFFFFFFFFFFFFFFFFFFFFFFFFFFFF NOT AND EQ SWAP2 POP POP PUSH2 0x1E82 JUMP JUMPDEST PUSH1 0x1 SWAP1 POP JUMPDEST SWAP5 SWAP4 POP POP POP POP JUMP JUMPDEST PUSH1 0x0 PUSH20 0xFFFFFFFFFFFFFFFFFFFFFFFFFFFFFFFFFFFFFFFF AND DUP3 PUSH20 0xFFFFFFFFFFFFFFFFFFFFFFFFFFFFFFFFFFFFFFFF AND EQ ISZERO PUSH2 0x1EFA JUMPI PUSH1 0x40 MLOAD PUSH32 0x8C379A000000000000000000000000000000000000000000000000000000000 DUP2 MSTORE PUSH1 0x4 ADD PUSH2 0x1EF1 SWAP1 PUSH2 0x3CDA JUMP JUMPDEST PUSH1 0x40 MLOAD DUP1 SWAP2 SUB SWAP1 REVERT JUMPDEST PUSH2 0x1F03 DUP2 PUSH2 0x1818 JUMP JUMPDEST ISZERO PUSH2 0x1F43 JUMPI PUSH1 0x40 MLOAD PUSH32 0x8C379A000000000000000000000000000000000000000000000000000000000 DUP2 MSTORE PUSH1 0x4 ADD PUSH2 0x1F3A SWAP1 PUSH2 0x3D46 JUMP JUMPDEST PUSH1 0x40 MLOAD DUP1 SWAP2 SUB SWAP1 REVERT JUMPDEST PUSH2 0x1F51 PUSH1 0x0 DUP4 DUP4 PUSH1 0x1 PUSH2 0x1CF6 JUMP JUMPDEST PUSH2 0x1F5A DUP2 PUSH2 0x1818 JUMP JUMPDEST ISZERO PUSH2 0x1F9A JUMPI PUSH1 0x40 MLOAD PUSH32 0x8C379A000000000000000000000000000000000000000000000000000000000 DUP2 MSTORE PUSH1 0x4 ADD PUSH2 0x1F91 SWAP1 PUSH2 0x3D46 JUMP JUMPDEST PUSH1 0x40 MLOAD DUP1 SWAP2 SUB SWAP1 REVERT JUMPDEST PUSH1 0x1 PUSH1 0x3 PUSH1 0x0 DUP5 PUSH20 0xFFFFFFFFFFFFFFFFFFFFFFFFFFFFFFFFFFFFFFFF AND PUSH20 0xFFFFFFFFFFFFFFFFFFFFFFFFFFFFFFFFFFFFFFFF AND DUP2 MSTORE PUSH1 0x20 ADD SWAP1 DUP2 MSTORE PUSH1 0x20 ADD PUSH1 0x0 KECCAK256 PUSH1 0x0 DUP3 DUP3 SLOAD ADD SWAP3 POP POP DUP2 SWAP1 SSTORE POP DUP2 PUSH1 0x2 PUSH1 0x0 DUP4 DUP2 MSTORE PUSH1 0x20 ADD SWAP1 DUP2 MSTORE PUSH1 0x20 ADD PUSH1 0x0 KECCAK256 PUSH1 0x0 PUSH2 0x100 EXP DUP2 SLOAD DUP2 PUSH20 0xFFFFFFFFFFFFFFFFFFFFFFFFFFFFFFFFFFFFFFFF MUL NOT AND SWAP1 DUP4 PUSH20 0xFFFFFFFFFFFFFFFFFFFFFFFFFFFFFFFFFFFFFFFF AND MUL OR SWAP1 SSTORE POP DUP1 DUP3 PUSH20 0xFFFFFFFFFFFFFFFFFFFFFFFFFFFFFFFFFFFFFFFF AND PUSH1 0x0 PUSH20 0xFFFFFFFFFFFFFFFFFFFFFFFFFFFFFFFFFFFFFFFF AND PUSH32 0xDDF252AD1BE2C89B69C2B068FC378DAA952BA7F163C4A11628F55A4DF523B3EF PUSH1 0x40 MLOAD PUSH1 0x40 MLOAD DUP1 SWAP2 SUB SWAP1 LOG4 PUSH2 0x20A4 PUSH1 0x0 DUP4 DUP4 PUSH1 0x1 PUSH2 0x1CFC JUMP JUMPDEST POP POP JUMP JUMPDEST PUSH1 0x0 DUP1 DUP3 PUSH20 0xFFFFFFFFFFFFFFFFFFFFFFFFFFFFFFFFFFFFFFFF AND EXTCODESIZE GT SWAP1 POP SWAP2 SWAP1 POP JUMP JUMPDEST DUP3 DUP1 SLOAD PUSH2 0x20D7 SWAP1 PUSH2 0x27A5 JUMP JUMPDEST SWAP1 PUSH1 0x0 MSTORE PUSH1 0x20 PUSH1 0x0 KECCAK256 SWAP1 PUSH1 0x1F ADD PUSH1 0x20 SWAP1 DIV DUP2 ADD SWAP3 DUP3 PUSH2 0x20F9 JUMPI PUSH1 0x0 DUP6 SSTORE PUSH2 0x2140 JUMP JUMPDEST DUP3 PUSH1 0x1F LT PUSH2 0x2112 JUMPI DUP1 MLOAD PUSH1 0xFF NOT AND DUP4 DUP1 ADD OR DUP6 SSTORE PUSH2 0x2140 JUMP JUMPDEST DUP3 DUP1 ADD PUSH1 0x1 ADD DUP6 SSTORE DUP3 ISZERO PUSH2 0x2140 JUMPI SWAP2 DUP3 ADD JUMPDEST DUP3 DUP2 GT ISZERO PUSH2 0x213F JUMPI DUP3 MLOAD DUP3 SSTORE SWAP2 PUSH1 0x20 ADD SWAP2 SWAP1 PUSH1 0x1 ADD SWAP1 PUSH2 0x2124 JUMP JUMPDEST JUMPDEST POP SWAP1 POP PUSH2 0x214D SWAP2 SWAP1 PUSH2 0x2151 JUMP JUMPDEST POP SWAP1 JUMP JUMPDEST JUMPDEST DUP1 DUP3 GT ISZERO PUSH2 0x216A JUMPI PUSH1 0x0 DUP2 PUSH1 0x0 SWAP1 SSTORE POP PUSH1 0x1 ADD PUSH2 0x2152 JUMP JUMPDEST POP SWAP1 JUMP JUMPDEST PUSH1 0x0 PUSH1 0x40 MLOAD SWAP1 POP SWAP1 JUMP JUMPDEST PUSH1 0x0 DUP1 REVERT JUMPDEST PUSH1 0x0 DUP1 REVERT JUMPDEST PUSH1 0x0 PUSH32 0xFFFFFFFF00000000000000000000000000000000000000000000000000000000 DUP3 AND SWAP1 POP SWAP2 SWAP1 POP JUMP JUMPDEST PUSH2 0x21B7 DUP2 PUSH2 0x2182 JUMP JUMPDEST DUP2 EQ PUSH2 0x21C2 JUMPI PUSH1 0x0 DUP1 REVERT JUMPDEST POP JUMP JUMPDEST PUSH1 0x0 DUP2 CALLDATALOAD SWAP1 POP PUSH2 0x21D4 DUP2 PUSH2 0x21AE JUMP JUMPDEST SWAP3 SWAP2 POP POP JUMP JUMPDEST PUSH1 0x0 PUSH1 0x20 DUP3 DUP5 SUB SLT ISZERO PUSH2 0x21F0 JUMPI PUSH2 0x21EF PUSH2 0x2178 JUMP JUMPDEST JUMPDEST PUSH1 0x0 PUSH2 0x21FE DUP5 DUP3 DUP6 ADD PUSH2 0x21C5 JUMP JUMPDEST SWAP2 POP POP SWAP3 SWAP2 POP POP JUMP JUMPDEST PUSH1 0x0 DUP2 ISZERO ISZERO SWAP1 POP SWAP2 SWAP1 POP JUMP JUMPDEST PUSH2 0x221C DUP2 PUSH2 0x2207 JUMP JUMPDEST DUP3 MSTORE POP POP JUMP JUMPDEST PUSH1 0x0 PUSH1 0x20 DUP3 ADD SWAP1 POP PUSH2 0x2237 PUSH1 0x0 DUP4 ADD DUP5 PUSH2 0x2213 JUMP JUMPDEST SWAP3 SWAP2 POP POP JUMP JUMPDEST PUSH1 0x0 DUP2 MLOAD SWAP1 POP SWAP2 SWAP1 POP JUMP JUMPDEST PUSH1 0x0 DUP3 DUP3 MSTORE PUSH1 0x20 DUP3 ADD SWAP1 POP SWAP3 SWAP2 POP POP JUMP JUMPDEST PUSH1 0x0 JUMPDEST DUP4 DUP2 LT ISZERO PUSH2 0x2277 JUMPI DUP1 DUP3 ADD MLOAD DUP2 DUP5 ADD MSTORE PUSH1 0x20 DUP2 ADD SWAP1 POP PUSH2 0x225C JUMP JUMPDEST DUP4 DUP2 GT ISZERO PUSH2 0x2286 JUMPI PUSH1 0x0 DUP5 DUP5 ADD MSTORE JUMPDEST POP POP POP POP JUMP JUMPDEST PUSH1 0x0 PUSH1 0x1F NOT PUSH1 0x1F DUP4 ADD AND SWAP1 POP SWAP2 SWAP1 POP JUMP JUMPDEST PUSH1 0x0 PUSH2 0x22A8 DUP3 PUSH2 0x223D JUMP JUMPDEST PUSH2 0x22B2 DUP2 DUP6 PUSH2 0x2248 JUMP JUMPDEST SWAP4 POP PUSH2 0x22C2 DUP2 DUP6 PUSH1 0x20 DUP7 ADD PUSH2 0x2259 JUMP JUMPDEST PUSH2 0x22CB DUP2 PUSH2 0x228C JUMP JUMPDEST DUP5 ADD SWAP2 POP POP SWAP3 SWAP2 POP POP JUMP JUMPDEST PUSH1 0x0 PUSH1 0x20 DUP3 ADD SWAP1 POP DUP2 DUP2 SUB PUSH1 0x0 DUP4 ADD MSTORE PUSH2 0x22F0 DUP2 DUP5 PUSH2 0x229D JUMP JUMPDEST SWAP1 POP SWAP3 SWAP2 POP POP JUMP JUMPDEST PUSH1 0x0 DUP2 SWAP1 POP SWAP2 SWAP1 POP JUMP JUMPDEST PUSH2 0x230B DUP2 PUSH2 0x22F8 JUMP JUMPDEST DUP2 EQ PUSH2 0x2316 JUMPI PUSH1 0x0 DUP1 REVERT JUMPDEST POP JUMP JUMPDEST PUSH1 0x0 DUP2 CALLDATALOAD SWAP1 POP PUSH2 0x2328 DUP2 PUSH2 0x2302 JUMP JUMPDEST SWAP3 SWAP2 POP POP JUMP JUMPDEST PUSH1 0x0 PUSH1 0x20 DUP3 DUP5 SUB SLT ISZERO PUSH2 0x2344 JUMPI PUSH2 0x2343 PUSH2 0x2178 JUMP JUMPDEST JUMPDEST PUSH1 0x0 PUSH2 0x2352 DUP5 DUP3 DUP6 ADD PUSH2 0x2319 JUMP JUMPDEST SWAP2 POP POP SWAP3 SWAP2 POP POP JUMP JUMPDEST PUSH1 0x0 PUSH20 0xFFFFFFFFFFFFFFFFFFFFFFFFFFFFFFFFFFFFFFFF DUP3 AND SWAP1 POP SWAP2 SWAP1 POP JUMP JUMPDEST PUSH1 0x0 PUSH2 0x2386 DUP3 PUSH2 0x235B JUMP JUMPDEST SWAP1 POP SWAP2 SWAP1 POP JUMP JUMPDEST PUSH2 0x2396 DUP2 PUSH2 0x237B JUMP JUMPDEST DUP3 MSTORE POP POP JUMP JUMPDEST PUSH1 0x0 PUSH1 0x20 DUP3 ADD SWAP1 POP PUSH2 0x23B1 PUSH1 0x0 DUP4 ADD DUP5 PUSH2 0x238D JUMP JUMPDEST SWAP3 SWAP2 POP POP JUMP JUMPDEST PUSH2 0x23C0 DUP2 PUSH2 0x237B JUMP JUMPDEST DUP2 EQ PUSH2 0x23CB JUMPI PUSH1 0x0 DUP1 REVERT JUMPDEST POP JUMP JUMPDEST PUSH1 0x0 DUP2 CALLDATALOAD SWAP1 POP PUSH2 0x23DD DUP2 PUSH2 0x23B7 JUMP JUMPDEST SWAP3 SWAP2 POP POP JUMP JUMPDEST PUSH1 0x0 DUP1 PUSH1 0x40 DUP4 DUP6 SUB SLT ISZERO PUSH2 0x23FA JUMPI PUSH2 0x23F9 PUSH2 0x2178 JUMP JUMPDEST JUMPDEST PUSH1 0x0 PUSH2 0x2408 DUP6 DUP3 DUP7 ADD PUSH2 0x23CE JUMP JUMPDEST SWAP3 POP POP PUSH1 0x20 PUSH2 0x2419 DUP6 DUP3 DUP7 ADD PUSH2 0x2319 JUMP JUMPDEST SWAP2 POP POP SWAP3 POP SWAP3 SWAP1 POP JUMP JUMPDEST PUSH1 0x0 DUP1 PUSH1 0x0 PUSH1 0x60 DUP5 DUP7 SUB SLT ISZERO PUSH2 0x243C JUMPI PUSH2 0x243B PUSH2 0x2178 JUMP JUMPDEST JUMPDEST PUSH1 0x0 PUSH2 0x244A DUP7 DUP3 DUP8 ADD PUSH2 0x23CE JUMP JUMPDEST SWAP4 POP POP PUSH1 0x20 PUSH2 0x245B DUP7 DUP3 DUP8 ADD PUSH2 0x23CE JUMP JUMPDEST SWAP3 POP POP PUSH1 0x40 PUSH2 0x246C DUP7 DUP3 DUP8 ADD PUSH2 0x2319 JUMP JUMPDEST SWAP2 POP POP SWAP3 POP SWAP3 POP SWAP3 JUMP JUMPDEST PUSH1 0x0 PUSH1 0x20 DUP3 DUP5 SUB SLT ISZERO PUSH2 0x248C JUMPI PUSH2 0x248B PUSH2 0x2178 JUMP JUMPDEST JUMPDEST PUSH1 0x0 PUSH2 0x249A DUP5 DUP3 DUP6 ADD PUSH2 0x23CE JUMP JUMPDEST SWAP2 POP POP SWAP3 SWAP2 POP POP JUMP JUMPDEST PUSH2 0x24AC DUP2 PUSH2 0x22F8 JUMP JUMPDEST DUP3 MSTORE POP POP JUMP JUMPDEST PUSH1 0x0 PUSH1 0x20 DUP3 ADD SWAP1 POP PUSH2 0x24C7 PUSH1 0x0 DUP4 ADD DUP5 PUSH2 0x24A3 JUMP JUMPDEST SWAP3 SWAP2 POP POP JUMP JUMPDEST PUSH2 0x24D6 DUP2 PUSH2 0x2207 JUMP JUMPDEST DUP2 EQ PUSH2 0x24E1 JUMPI PUSH1 0x0 DUP1 REVERT JUMPDEST POP JUMP JUMPDEST PUSH1 0x0 DUP2 CALLDATALOAD SWAP1 POP PUSH2 0x24F3 DUP2 PUSH2 0x24CD JUMP JUMPDEST SWAP3 SWAP2 POP POP JUMP JUMPDEST PUSH1 0x0 DUP1 PUSH1 0x40 DUP4 DUP6 SUB SLT ISZERO PUSH2 0x2510 JUMPI PUSH2 0x250F PUSH2 0x2178 JUMP JUMPDEST JUMPDEST PUSH1 0x0 PUSH2 0x251E DUP6 DUP3 DUP7 ADD PUSH2 0x23CE JUMP JUMPDEST SWAP3 POP POP PUSH1 0x20 PUSH2 0x252F DUP6 DUP3 DUP7 ADD PUSH2 0x24E4 JUMP JUMPDEST SWAP2 POP POP SWAP3 POP SWAP3 SWAP1 POP JUMP JUMPDEST PUSH1 0x0 DUP1 REVERT JUMPDEST PUSH1 0x0 DUP1 REVERT JUMPDEST PUSH32 0x4E487B7100000000000000000000000000000000000000000000000000000000 PUSH1 0x0 MSTORE PUSH1 0x41 PUSH1 0x4 MSTORE PUSH1 0x24 PUSH1 0x0 REVERT JUMPDEST PUSH2 0x257B DUP3 PUSH2 0x228C JUMP JUMPDEST DUP2 ADD DUP2 DUP2 LT PUSH8 0xFFFFFFFFFFFFFFFF DUP3 GT OR ISZERO PUSH2 0x259A JUMPI PUSH2 0x2599 PUSH2 0x2543 JUMP JUMPDEST JUMPDEST DUP1 PUSH1 0x40 MSTORE POP POP POP JUMP JUMPDEST PUSH1 0x0 PUSH2 0x25AD PUSH2 0x216E JUMP JUMPDEST SWAP1 POP PUSH2 0x25B9 DUP3 DUP3 PUSH2 0x2572 JUMP JUMPDEST SWAP2 SWAP1 POP JUMP JUMPDEST PUSH1 0x0 PUSH8 0xFFFFFFFFFFFFFFFF DUP3 GT ISZERO PUSH2 0x25D9 JUMPI PUSH2 0x25D8 PUSH2 0x2543 JUMP JUMPDEST JUMPDEST PUSH2 0x25E2 DUP3 PUSH2 0x228C JUMP JUMPDEST SWAP1 POP PUSH1 0x20 DUP2 ADD SWAP1 POP SWAP2 SWAP1 POP JUMP JUMPDEST DUP3 DUP2 DUP4 CALLDATACOPY PUSH1 0x0 DUP4 DUP4 ADD MSTORE POP POP POP JUMP JUMPDEST PUSH1 0x0 PUSH2 0x2611 PUSH2 0x260C DUP5 PUSH2 0x25BE JUMP JUMPDEST PUSH2 0x25A3 JUMP JUMPDEST SWAP1 POP DUP3 DUP2 MSTORE PUSH1 0x20 DUP2 ADD DUP5 DUP5 DUP5 ADD GT ISZERO PUSH2 0x262D JUMPI PUSH2 0x262C PUSH2 0x253E JUMP JUMPDEST JUMPDEST PUSH2 0x2638 DUP5 DUP3 DUP6 PUSH2 0x25EF JUMP JUMPDEST POP SWAP4 SWAP3 POP POP POP JUMP JUMPDEST PUSH1 0x0 DUP3 PUSH1 0x1F DUP4 ADD SLT PUSH2 0x2655 JUMPI PUSH2 0x2654 PUSH2 0x2539 JUMP JUMPDEST JUMPDEST DUP2 CALLDATALOAD PUSH2 0x2665 DUP5 DUP3 PUSH1 0x20 DUP7 ADD PUSH2 0x25FE JUMP JUMPDEST SWAP2 POP POP SWAP3 SWAP2 POP POP JUMP JUMPDEST PUSH1 0x0 DUP1 PUSH1 0x0 DUP1 PUSH1 0x80 DUP6 DUP8 SUB SLT ISZERO PUSH2 0x2688 JUMPI PUSH2 0x2687 PUSH2 0x2178 JUMP JUMPDEST JUMPDEST PUSH1 0x0 PUSH2 0x2696 DUP8 DUP3 DUP9 ADD PUSH2 0x23CE JUMP JUMPDEST SWAP5 POP POP PUSH1 0x20 PUSH2 0x26A7 DUP8 DUP3 DUP9 ADD PUSH2 0x23CE JUMP JUMPDEST SWAP4 POP POP PUSH1 0x40 PUSH2 0x26B8 DUP8 DUP3 DUP9 ADD PUSH2 0x2319 JUMP JUMPDEST SWAP3 POP POP PUSH1 0x60 DUP6 ADD CALLDATALOAD PUSH8 0xFFFFFFFFFFFFFFFF DUP2 GT ISZERO PUSH2 0x26D9 JUMPI PUSH2 0x26D8 PUSH2 0x217D JUMP JUMPDEST JUMPDEST PUSH2 0x26E5 DUP8 DUP3 DUP9 ADD PUSH2 0x2640 JUMP JUMPDEST SWAP2 POP POP SWAP3 SWAP6 SWAP2 SWAP5 POP SWAP3 POP JUMP JUMPDEST PUSH1 0x0 PUSH1 0x80 DUP3 ADD SWAP1 POP PUSH2 0x2706 PUSH1 0x0 DUP4 ADD DUP8 PUSH2 0x24A3 JUMP JUMPDEST PUSH2 0x2713 PUSH1 0x20 DUP4 ADD DUP7 PUSH2 0x24A3 JUMP JUMPDEST PUSH2 0x2720 PUSH1 0x40 DUP4 ADD DUP6 PUSH2 0x24A3 JUMP JUMPDEST PUSH2 0x272D PUSH1 0x60 DUP4 ADD DUP5 PUSH2 0x24A3 JUMP JUMPDEST SWAP6 SWAP5 POP POP POP POP POP JUMP JUMPDEST PUSH1 0x0 DUP1 PUSH1 0x40 DUP4 DUP6 SUB SLT ISZERO PUSH2 0x274D JUMPI PUSH2 0x274C PUSH2 0x2178 JUMP JUMPDEST JUMPDEST PUSH1 0x0 PUSH2 0x275B DUP6 DUP3 DUP7 ADD PUSH2 0x23CE JUMP JUMPDEST SWAP3 POP POP PUSH1 0x20 PUSH2 0x276C DUP6 DUP3 DUP7 ADD PUSH2 0x23CE JUMP JUMPDEST SWAP2 POP POP SWAP3 POP SWAP3 SWAP1 POP JUMP JUMPDEST PUSH32 0x4E487B7100000000000000000000000000000000000000000000000000000000 PUSH1 0x0 MSTORE PUSH1 0x22 PUSH1 0x4 MSTORE PUSH1 0x24 PUSH1 0x0 REVERT JUMPDEST PUSH1 0x0 PUSH1 0x2 DUP3 DIV SWAP1 POP PUSH1 0x1 DUP3 AND DUP1 PUSH2 0x27BD JUMPI PUSH1 0x7F DUP3 AND SWAP2 POP JUMPDEST PUSH1 0x20 DUP3 LT DUP2 EQ ISZERO PUSH2 0x27D1 JUMPI PUSH2 0x27D0 PUSH2 0x2776 JUMP JUMPDEST JUMPDEST POP SWAP2 SWAP1 POP JUMP JUMPDEST PUSH32 0x4552433732313A20617070726F76616C20746F2063757272656E74206F776E65 PUSH1 0x0 DUP3 ADD MSTORE PUSH32 0x7200000000000000000000000000000000000000000000000000000000000000 PUSH1 0x20 DUP3 ADD MSTORE POP JUMP JUMPDEST PUSH1 0x0 PUSH2 0x2833 PUSH1 0x21 DUP4 PUSH2 0x2248 JUMP JUMPDEST SWAP2 POP PUSH2 0x283E DUP3 PUSH2 0x27D7 JUMP JUMPDEST PUSH1 0x40 DUP3 ADD SWAP1 POP SWAP2 SWAP1 POP JUMP JUMPDEST PUSH1 0x0 PUSH1 0x20 DUP3 ADD SWAP1 POP DUP2 DUP2 SUB PUSH1 0x0 DUP4 ADD MSTORE PUSH2 0x2862 DUP2 PUSH2 0x2826 JUMP JUMPDEST SWAP1 POP SWAP2 SWAP1 POP JUMP JUMPDEST PUSH32 0x4552433732313A20617070726F76652063616C6C6572206973206E6F7420746F PUSH1 0x0 DUP3 ADD MSTORE PUSH32 0x6B656E206F776E6572206F7220617070726F76656420666F7220616C6C000000 PUSH1 0x20 DUP3 ADD MSTORE POP JUMP JUMPDEST PUSH1 0x0 PUSH2 0x28C5 PUSH1 0x3D DUP4 PUSH2 0x2248 JUMP JUMPDEST SWAP2 POP PUSH2 0x28D0 DUP3 PUSH2 0x2869 JUMP JUMPDEST PUSH1 0x40 DUP3 ADD SWAP1 POP SWAP2 SWAP1 POP JUMP JUMPDEST PUSH1 0x0 PUSH1 0x20 DUP3 ADD SWAP1 POP DUP2 DUP2 SUB PUSH1 0x0 DUP4 ADD MSTORE PUSH2 0x28F4 DUP2 PUSH2 0x28B8 JUMP JUMPDEST SWAP1 POP SWAP2 SWAP1 POP JUMP JUMPDEST PUSH1 0x0 DUP2 SWAP1 POP SWAP3 SWAP2 POP POP JUMP JUMPDEST PUSH32 0x3C73766720786D6C6E733D22687474703A2F2F7777772E77332E6F72672F3230 PUSH1 0x0 DUP3 ADD MSTORE PUSH32 0x30302F73766722207072657365727665417370656374526174696F3D22784D69 PUSH1 0x20 DUP3 ADD MSTORE PUSH32 0x6E594D696E206D656574222076696577426F783D223020302033353020333530 PUSH1 0x40 DUP3 ADD MSTORE PUSH32 0x223E000000000000000000000000000000000000000000000000000000000000 PUSH1 0x60 DUP3 ADD MSTORE POP JUMP JUMPDEST PUSH1 0x0 PUSH2 0x29AE PUSH1 0x62 DUP4 PUSH2 0x28FB JUMP JUMPDEST SWAP2 POP PUSH2 0x29B9 DUP3 PUSH2 0x2906 JUMP JUMPDEST PUSH1 0x62 DUP3 ADD SWAP1 POP SWAP2 SWAP1 POP JUMP JUMPDEST PUSH32 0x3C7374796C653E2E62617365207B2066696C6C3A2077686974653B20666F6E74 PUSH1 0x0 DUP3 ADD MSTORE PUSH32 0x2D66616D696C793A2073657269663B20666F6E742D73697A653A20313470783B PUSH1 0x20 DUP3 ADD MSTORE PUSH32 0x207D3C2F7374796C653E00000000000000000000000000000000000000000000 PUSH1 0x40 DUP3 ADD MSTORE POP JUMP JUMPDEST PUSH1 0x0 PUSH2 0x2A46 PUSH1 0x4A DUP4 PUSH2 0x28FB JUMP JUMPDEST SWAP2 POP PUSH2 0x2A51 DUP3 PUSH2 0x29C4 JUMP JUMPDEST PUSH1 0x4A DUP3 ADD SWAP1 POP SWAP2 SWAP1 POP JUMP JUMPDEST PUSH32 0x3C726563742077696474683D223130302522206865696768743D223130302522 PUSH1 0x0 DUP3 ADD MSTORE PUSH32 0x2066696C6C3D22626C61636B22202F3E00000000000000000000000000000000 PUSH1 0x20 DUP3 ADD MSTORE POP JUMP JUMPDEST PUSH1 0x0 PUSH2 0x2AB8 PUSH1 0x30 DUP4 PUSH2 0x28FB JUMP JUMPDEST SWAP2 POP PUSH2 0x2AC3 DUP3 PUSH2 0x2A5C JUMP JUMPDEST PUSH1 0x30 DUP3 ADD SWAP1 POP SWAP2 SWAP1 POP JUMP JUMPDEST PUSH32 0x3C7465787420783D223530252220793D223330252220636C6173733D22626173 PUSH1 0x0 DUP3 ADD MSTORE PUSH32 0x652220646F6D696E616E742D626173656C696E653D226D6964646C6522207465 PUSH1 0x20 DUP3 ADD MSTORE PUSH32 0x78742D616E63686F723D226D6964646C65223E00000000000000000000000000 PUSH1 0x40 DUP3 ADD MSTORE POP JUMP JUMPDEST PUSH1 0x0 PUSH2 0x2B50 PUSH1 0x53 DUP4 PUSH2 0x28FB JUMP JUMPDEST SWAP2 POP PUSH2 0x2B5B DUP3 PUSH2 0x2ACE JUMP JUMPDEST PUSH1 0x53 DUP3 ADD SWAP1 POP SWAP2 SWAP1 POP JUMP JUMPDEST PUSH32 0x57617272696F7200000000000000000000000000000000000000000000000000 PUSH1 0x0 DUP3 ADD MSTORE POP JUMP JUMPDEST PUSH1 0x0 PUSH2 0x2B9C PUSH1 0x7 DUP4 PUSH2 0x28FB JUMP JUMPDEST SWAP2 POP PUSH2 0x2BA7 DUP3 PUSH2 0x2B66 JUMP JUMPDEST PUSH1 0x7 DUP3 ADD SWAP1 POP SWAP2 SWAP1 POP JUMP JUMPDEST PUSH32 0x3C2F746578743E00000000000000000000000000000000000000000000000000 PUSH1 0x0 DUP3 ADD MSTORE POP JUMP JUMPDEST PUSH1 0x0 PUSH2 0x2BE8 PUSH1 0x7 DUP4 PUSH2 0x28FB JUMP JUMPDEST SWAP2 POP PUSH2 0x2BF3 DUP3 PUSH2 0x2BB2 JUMP JUMPDEST PUSH1 0x7 DUP3 ADD SWAP1 POP SWAP2 SWAP1 POP JUMP JUMPDEST PUSH32 0x3C7465787420783D223530252220793D223430252220636C6173733D22626173 PUSH1 0x0 DUP3 ADD MSTORE PUSH32 0x652220646F6D696E616E742D626173656C696E653D226D6964646C6522207465 PUSH1 0x20 DUP3 ADD MSTORE PUSH32 0x78742D616E63686F723D226D6964646C65223E00000000000000000000000000 PUSH1 0x40 DUP3 ADD MSTORE POP JUMP JUMPDEST PUSH1 0x0 PUSH2 0x2C80 PUSH1 0x53 DUP4 PUSH2 0x28FB JUMP JUMPDEST SWAP2 POP PUSH2 0x2C8B DUP3 PUSH2 0x2BFE JUMP JUMPDEST PUSH1 0x53 DUP3 ADD SWAP1 POP SWAP2 SWAP1 POP JUMP JUMPDEST PUSH32 0x4C6576656C733A20000000000000000000000000000000000000000000000000 PUSH1 0x0 DUP3 ADD MSTORE POP JUMP JUMPDEST PUSH1 0x0 PUSH2 0x2CCC PUSH1 0x8 DUP4 PUSH2 0x28FB JUMP JUMPDEST SWAP2 POP PUSH2 0x2CD7 DUP3 PUSH2 0x2C96 JUMP JUMPDEST PUSH1 0x8 DUP3 ADD SWAP1 POP SWAP2 SWAP1 POP JUMP JUMPDEST PUSH1 0x0 PUSH2 0x2CED DUP3 PUSH2 0x223D JUMP JUMPDEST PUSH2 0x2CF7 DUP2 DUP6 PUSH2 0x28FB JUMP JUMPDEST SWAP4 POP PUSH2 0x2D07 DUP2 DUP6 PUSH1 0x20 DUP7 ADD PUSH2 0x2259 JUMP JUMPDEST DUP1 DUP5 ADD SWAP2 POP POP SWAP3 SWAP2 POP POP JUMP JUMPDEST PUSH32 0x3C7465787420783D223530252220793D223530252220636C6173733D22626173 PUSH1 0x0 DUP3 ADD MSTORE PUSH32 0x652220646F6D696E616E742D626173656C696E653D226D6964646C6522207465 PUSH1 0x20 DUP3 ADD MSTORE PUSH32 0x78742D616E63686F723D226D6964646C65223E00000000000000000000000000 PUSH1 0x40 DUP3 ADD MSTORE POP JUMP JUMPDEST PUSH1 0x0 PUSH2 0x2D95 PUSH1 0x53 DUP4 PUSH2 0x28FB JUMP JUMPDEST SWAP2 POP PUSH2 0x2DA0 DUP3 PUSH2 0x2D13 JUMP JUMPDEST PUSH1 0x53 DUP3 ADD SWAP1 POP SWAP2 SWAP1 POP JUMP JUMPDEST PUSH32 0x53706565643A2000000000000000000000000000000000000000000000000000 PUSH1 0x0 DUP3 ADD MSTORE POP JUMP JUMPDEST PUSH1 0x0 PUSH2 0x2DE1 PUSH1 0x7 DUP4 PUSH2 0x28FB JUMP JUMPDEST SWAP2 POP PUSH2 0x2DEC DUP3 PUSH2 0x2DAB JUMP JUMPDEST PUSH1 0x7 DUP3 ADD SWAP1 POP SWAP2 SWAP1 POP JUMP JUMPDEST PUSH32 0x3C7465787420783D223530252220793D223630252220636C6173733D22626173 PUSH1 0x0 DUP3 ADD MSTORE PUSH32 0x652220646F6D696E616E742D626173656C696E653D226D6964646C6522207465 PUSH1 0x20 DUP3 ADD MSTORE PUSH32 0x78742D616E63686F723D226D6964646C65223E00000000000000000000000000 PUSH1 0x40 DUP3 ADD MSTORE POP JUMP JUMPDEST PUSH1 0x0 PUSH2 0x2E79 PUSH1 0x53 DUP4 PUSH2 0x28FB JUMP JUMPDEST SWAP2 POP PUSH2 0x2E84 DUP3 PUSH2 0x2DF7 JUMP JUMPDEST PUSH1 0x53 DUP3 ADD SWAP1 POP SWAP2 SWAP1 POP JUMP JUMPDEST PUSH32 0x537472656E6774683A2000000000000000000000000000000000000000000000 PUSH1 0x0 DUP3 ADD MSTORE POP JUMP JUMPDEST PUSH1 0x0 PUSH2 0x2EC5 PUSH1 0xA DUP4 PUSH2 0x28FB JUMP JUMPDEST SWAP2 POP PUSH2 0x2ED0 DUP3 PUSH2 0x2E8F JUMP JUMPDEST PUSH1 0xA DUP3 ADD SWAP1 POP SWAP2 SWAP1 POP JUMP JUMPDEST PUSH32 0x3C7465787420783D223530252220793D223730252220636C6173733D22626173 PUSH1 0x0 DUP3 ADD MSTORE PUSH32 0x652220646F6D696E616E742D626173656C696E653D226D6964646C6522207465 PUSH1 0x20 DUP3 ADD MSTORE PUSH32 0x78742D616E63686F723D226D6964646C65223E00000000000000000000000000 PUSH1 0x40 DUP3 ADD MSTORE POP JUMP JUMPDEST PUSH1 0x0 PUSH2 0x2F5D PUSH1 0x53 DUP4 PUSH2 0x28FB JUMP JUMPDEST SWAP2 POP PUSH2 0x2F68 DUP3 PUSH2 0x2EDB JUMP JUMPDEST PUSH1 0x53 DUP3 ADD SWAP1 POP SWAP2 SWAP1 POP JUMP JUMPDEST PUSH32 0x4C6966653A200000000000000000000000000000000000000000000000000000 PUSH1 0x0 DUP3 ADD MSTORE POP JUMP JUMPDEST PUSH1 0x0 PUSH2 0x2FA9 PUSH1 0x6 DUP4 PUSH2 0x28FB JUMP JUMPDEST SWAP2 POP PUSH2 0x2FB4 DUP3 PUSH2 0x2F73 JUMP JUMPDEST PUSH1 0x6 DUP3 ADD SWAP1 POP SWAP2 SWAP1 POP JUMP JUMPDEST PUSH32 0x3C2F7376673E0000000000000000000000000000000000000000000000000000 PUSH1 0x0 DUP3 ADD MSTORE POP JUMP JUMPDEST PUSH1 0x0 PUSH2 0x2FF5 PUSH1 0x6 DUP4 PUSH2 0x28FB JUMP JUMPDEST SWAP2 POP PUSH2 0x3000 DUP3 PUSH2 0x2FBF JUMP JUMPDEST PUSH1 0x6 DUP3 ADD SWAP1 POP SWAP2 SWAP1 POP JUMP JUMPDEST PUSH1 0x0 PUSH2 0x3016 DUP3 PUSH2 0x29A1 JUMP JUMPDEST SWAP2 POP PUSH2 0x3021 DUP3 PUSH2 0x2A39 JUMP JUMPDEST SWAP2 POP PUSH2 0x302C DUP3 PUSH2 0x2AAB JUMP JUMPDEST SWAP2 POP PUSH2 0x3037 DUP3 PUSH2 0x2B43 JUMP JUMPDEST SWAP2 POP PUSH2 0x3042 DUP3 PUSH2 0x2B8F JUMP JUMPDEST SWAP2 POP PUSH2 0x304D DUP3 PUSH2 0x2BDB JUMP JUMPDEST SWAP2 POP PUSH2 0x3058 DUP3 PUSH2 0x2C73 JUMP JUMPDEST SWAP2 POP PUSH2 0x3063 DUP3 PUSH2 0x2CBF JUMP JUMPDEST SWAP2 POP PUSH2 0x306F DUP3 DUP8 PUSH2 0x2CE2 JUMP JUMPDEST SWAP2 POP PUSH2 0x307A DUP3 PUSH2 0x2BDB JUMP JUMPDEST SWAP2 POP PUSH2 0x3085 DUP3 PUSH2 0x2D88 JUMP JUMPDEST SWAP2 POP PUSH2 0x3090 DUP3 PUSH2 0x2DD4 JUMP JUMPDEST SWAP2 POP PUSH2 0x309C DUP3 DUP7 PUSH2 0x2CE2 JUMP JUMPDEST SWAP2 POP PUSH2 0x30A7 DUP3 PUSH2 0x2BDB JUMP JUMPDEST SWAP2 POP PUSH2 0x30B2 DUP3 PUSH2 0x2E6C JUMP JUMPDEST SWAP2 POP PUSH2 0x30BD DUP3 PUSH2 0x2EB8 JUMP JUMPDEST SWAP2 POP PUSH2 0x30C9 DUP3 DUP6 PUSH2 0x2CE2 JUMP JUMPDEST SWAP2 POP PUSH2 0x30D4 DUP3 PUSH2 0x2BDB JUMP JUMPDEST SWAP2 POP PUSH2 0x30DF DUP3 PUSH2 0x2F50 JUMP JUMPDEST SWAP2 POP PUSH2 0x30EA DUP3 PUSH2 0x2F9C JUMP JUMPDEST SWAP2 POP PUSH2 0x30F6 DUP3 DUP5 PUSH2 0x2CE2 JUMP JUMPDEST SWAP2 POP PUSH2 0x3101 DUP3 PUSH2 0x2BDB JUMP JUMPDEST SWAP2 POP PUSH2 0x310C DUP3 PUSH2 0x2FE8 JUMP JUMPDEST SWAP2 POP DUP2 SWAP1 POP SWAP6 SWAP5 POP POP POP POP POP JUMP JUMPDEST PUSH32 0x646174613A696D6167652F7376672B786D6C3B6261736536342C000000000000 PUSH1 0x0 DUP3 ADD MSTORE POP JUMP JUMPDEST PUSH1 0x0 PUSH2 0x3150 PUSH1 0x1A DUP4 PUSH2 0x28FB JUMP JUMPDEST SWAP2 POP PUSH2 0x315B DUP3 PUSH2 0x311A JUMP JUMPDEST PUSH1 0x1A DUP3 ADD SWAP1 POP SWAP2 SWAP1 POP JUMP JUMPDEST PUSH1 0x0 PUSH2 0x3171 DUP3 PUSH2 0x3143 JUMP JUMPDEST SWAP2 POP PUSH2 0x317D DUP3 DUP5 PUSH2 0x2CE2 JUMP JUMPDEST SWAP2 POP DUP2 SWAP1 POP SWAP3 SWAP2 POP POP JUMP JUMPDEST PUSH32 0x4552433732313A2063616C6C6572206973206E6F7420746F6B656E206F776E65 PUSH1 0x0 DUP3 ADD MSTORE PUSH32 0x72206F7220617070726F76656400000000000000000000000000000000000000 PUSH1 0x20 DUP3 ADD MSTORE POP JUMP JUMPDEST PUSH1 0x0 PUSH2 0x31E4 PUSH1 0x2D DUP4 PUSH2 0x2248 JUMP JUMPDEST SWAP2 POP PUSH2 0x31EF DUP3 PUSH2 0x3188 JUMP JUMPDEST PUSH1 0x40 DUP3 ADD SWAP1 POP SWAP2 SWAP1 POP JUMP JUMPDEST PUSH1 0x0 PUSH1 0x20 DUP3 ADD SWAP1 POP DUP2 DUP2 SUB PUSH1 0x0 DUP4 ADD MSTORE PUSH2 0x3213 DUP2 PUSH2 0x31D7 JUMP JUMPDEST SWAP1 POP SWAP2 SWAP1 POP JUMP JUMPDEST PUSH32 0x506C656173652075736520616E206578697374696E6720746F6B656E00000000 PUSH1 0x0 DUP3 ADD MSTORE POP JUMP JUMPDEST PUSH1 0x0 PUSH2 0x3250 PUSH1 0x1C DUP4 PUSH2 0x2248 JUMP JUMPDEST SWAP2 POP PUSH2 0x325B DUP3 PUSH2 0x321A JUMP JUMPDEST PUSH1 0x20 DUP3 ADD SWAP1 POP SWAP2 SWAP1 POP JUMP JUMPDEST PUSH1 0x0 PUSH1 0x20 DUP3 ADD SWAP1 POP DUP2 DUP2 SUB PUSH1 0x0 DUP4 ADD MSTORE PUSH2 0x327F DUP2 PUSH2 0x3243 JUMP JUMPDEST SWAP1 POP SWAP2 SWAP1 POP JUMP JUMPDEST PUSH32 0x596F75206D757374206F776E207468697320746F6B656E20746F20747261696E PUSH1 0x0 DUP3 ADD MSTORE PUSH32 0x2069740000000000000000000000000000000000000000000000000000000000 PUSH1 0x20 DUP3 ADD MSTORE POP JUMP JUMPDEST PUSH1 0x0 PUSH2 0x32E2 PUSH1 0x23 DUP4 PUSH2 0x2248 JUMP JUMPDEST SWAP2 POP PUSH2 0x32ED DUP3 PUSH2 0x3286 JUMP JUMPDEST PUSH1 0x40 DUP3 ADD SWAP1 POP SWAP2 SWAP1 POP JUMP JUMPDEST PUSH1 0x0 PUSH1 0x20 DUP3 ADD SWAP1 POP DUP2 DUP2 SUB PUSH1 0x0 DUP4 ADD MSTORE PUSH2 0x3311 DUP2 PUSH2 0x32D5 JUMP JUMPDEST SWAP1 POP SWAP2 SWAP1 POP JUMP JUMPDEST PUSH32 0x4E487B7100000000000000000000000000000000000000000000000000000000 PUSH1 0x0 MSTORE PUSH1 0x11 PUSH1 0x4 MSTORE PUSH1 0x24 PUSH1 0x0 REVERT JUMPDEST PUSH1 0x0 PUSH2 0x3352 DUP3 PUSH2 0x22F8 JUMP JUMPDEST SWAP2 POP PUSH2 0x335D DUP4 PUSH2 0x22F8 JUMP JUMPDEST SWAP3 POP DUP3 PUSH32 0xFFFFFFFFFFFFFFFFFFFFFFFFFFFFFFFFFFFFFFFFFFFFFFFFFFFFFFFFFFFFFFFF SUB DUP3 GT ISZERO PUSH2 0x3392 JUMPI PUSH2 0x3391 PUSH2 0x3318 JUMP JUMPDEST JUMPDEST DUP3 DUP3 ADD SWAP1 POP SWAP3 SWAP2 POP POP JUMP JUMPDEST PUSH32 0x7B00000000000000000000000000000000000000000000000000000000000000 PUSH1 0x0 DUP3 ADD MSTORE POP JUMP JUMPDEST PUSH1 0x0 PUSH2 0x33D3 PUSH1 0x1 DUP4 PUSH2 0x28FB JUMP JUMPDEST SWAP2 POP PUSH2 0x33DE DUP3 PUSH2 0x339D JUMP JUMPDEST PUSH1 0x1 DUP3 ADD SWAP1 POP SWAP2 SWAP1 POP JUMP JUMPDEST PUSH32 0x226E616D65223A2022436861696E20426174746C657320230000000000000000 PUSH1 0x0 DUP3 ADD MSTORE POP JUMP JUMPDEST PUSH1 0x0 PUSH2 0x341F PUSH1 0x18 DUP4 PUSH2 0x28FB JUMP JUMPDEST SWAP2 POP PUSH2 0x342A DUP3 PUSH2 0x33E9 JUMP JUMPDEST PUSH1 0x18 DUP3 ADD SWAP1 POP SWAP2 SWAP1 POP JUMP JUMPDEST PUSH32 0x222C000000000000000000000000000000000000000000000000000000000000 PUSH1 0x0 DUP3 ADD MSTORE POP JUMP JUMPDEST PUSH1 0x0 PUSH2 0x346B PUSH1 0x2 DUP4 PUSH2 0x28FB JUMP JUMPDEST SWAP2 POP PUSH2 0x3476 DUP3 PUSH2 0x3435 JUMP JUMPDEST PUSH1 0x2 DUP3 ADD SWAP1 POP SWAP2 SWAP1 POP JUMP JUMPDEST PUSH32 0x226465736372697074696F6E223A2022426174746C6573206F6E20636861696E PUSH1 0x0 DUP3 ADD MSTORE PUSH32 0x222C000000000000000000000000000000000000000000000000000000000000 PUSH1 0x20 DUP3 ADD MSTORE POP JUMP JUMPDEST PUSH1 0x0 PUSH2 0x34DD PUSH1 0x22 DUP4 PUSH2 0x28FB JUMP JUMPDEST SWAP2 POP PUSH2 0x34E8 DUP3 PUSH2 0x3481 JUMP JUMPDEST PUSH1 0x22 DUP3 ADD SWAP1 POP SWAP2 SWAP1 POP JUMP JUMPDEST PUSH32 0x22696D616765223A202200000000000000000000000000000000000000000000 PUSH1 0x0 DUP3 ADD MSTORE POP JUMP JUMPDEST PUSH1 0x0 PUSH2 0x3529 PUSH1 0xA DUP4 PUSH2 0x28FB JUMP JUMPDEST SWAP2 POP PUSH2 0x3534 DUP3 PUSH2 0x34F3 JUMP JUMPDEST PUSH1 0xA DUP3 ADD SWAP1 POP SWAP2 SWAP1 POP JUMP JUMPDEST PUSH32 0x2200000000000000000000000000000000000000000000000000000000000000 PUSH1 0x0 DUP3 ADD MSTORE POP JUMP JUMPDEST PUSH1 0x0 PUSH2 0x3575 PUSH1 0x1 DUP4 PUSH2 0x28FB JUMP JUMPDEST SWAP2 POP PUSH2 0x3580 DUP3 PUSH2 0x353F JUMP JUMPDEST PUSH1 0x1 DUP3 ADD SWAP1 POP SWAP2 SWAP1 POP JUMP JUMPDEST PUSH32 0x7D00000000000000000000000000000000000000000000000000000000000000 PUSH1 0x0 DUP3 ADD MSTORE POP JUMP JUMPDEST PUSH1 0x0 PUSH2 0x35C1 PUSH1 0x1 DUP4 PUSH2 0x28FB JUMP JUMPDEST SWAP2 POP PUSH2 0x35CC DUP3 PUSH2 0x358B JUMP JUMPDEST PUSH1 0x1 DUP3 ADD SWAP1 POP SWAP2 SWAP1 POP JUMP JUMPDEST PUSH1 0x0 PUSH2 0x35E2 DUP3 PUSH2 0x33C6 JUMP JUMPDEST SWAP2 POP PUSH2 0x35ED DUP3 PUSH2 0x3412 JUMP JUMPDEST SWAP2 POP PUSH2 0x35F9 DUP3 DUP6 PUSH2 0x2CE2 JUMP JUMPDEST SWAP2 POP PUSH2 0x3604 DUP3 PUSH2 0x345E JUMP JUMPDEST SWAP2 POP PUSH2 0x360F DUP3 PUSH2 0x34D0 JUMP JUMPDEST SWAP2 POP PUSH2 0x361A DUP3 PUSH2 0x351C JUMP JUMPDEST SWAP2 POP PUSH2 0x3626 DUP3 DUP5 PUSH2 0x2CE2 JUMP JUMPDEST SWAP2 POP PUSH2 0x3631 DUP3 PUSH2 0x3568 JUMP JUMPDEST SWAP2 POP PUSH2 0x363C DUP3 PUSH2 0x35B4 JUMP JUMPDEST SWAP2 POP DUP2 SWAP1 POP SWAP4 SWAP3 POP POP POP JUMP JUMPDEST PUSH32 0x646174613A6170706C69636174696F6E2F6A736F6E3B6261736536342C000000 PUSH1 0x0 DUP3 ADD MSTORE POP JUMP JUMPDEST PUSH1 0x0 PUSH2 0x367E PUSH1 0x1D DUP4 PUSH2 0x28FB JUMP JUMPDEST SWAP2 POP PUSH2 0x3689 DUP3 PUSH2 0x3648 JUMP JUMPDEST PUSH1 0x1D DUP3 ADD SWAP1 POP SWAP2 SWAP1 POP JUMP JUMPDEST PUSH1 0x0 PUSH2 0x369F DUP3 PUSH2 0x3671 JUMP JUMPDEST SWAP2 POP PUSH2 0x36AB DUP3 DUP5 PUSH2 0x2CE2 JUMP JUMPDEST SWAP2 POP DUP2 SWAP1 POP SWAP3 SWAP2 POP POP JUMP JUMPDEST PUSH32 0x4552433732313A20696E76616C696420746F6B656E2049440000000000000000 PUSH1 0x0 DUP3 ADD MSTORE POP JUMP JUMPDEST PUSH1 0x0 PUSH2 0x36EC PUSH1 0x18 DUP4 PUSH2 0x2248 JUMP JUMPDEST SWAP2 POP PUSH2 0x36F7 DUP3 PUSH2 0x36B6 JUMP JUMPDEST PUSH1 0x20 DUP3 ADD SWAP1 POP SWAP2 SWAP1 POP JUMP JUMPDEST PUSH1 0x0 PUSH1 0x20 DUP3 ADD SWAP1 POP DUP2 DUP2 SUB PUSH1 0x0 DUP4 ADD MSTORE PUSH2 0x371B DUP2 PUSH2 0x36DF JUMP JUMPDEST SWAP1 POP SWAP2 SWAP1 POP JUMP JUMPDEST PUSH32 0x4552433732313A2061646472657373207A65726F206973206E6F742061207661 PUSH1 0x0 DUP3 ADD MSTORE PUSH32 0x6C6964206F776E65720000000000000000000000000000000000000000000000 PUSH1 0x20 DUP3 ADD MSTORE POP JUMP JUMPDEST PUSH1 0x0 PUSH2 0x377E PUSH1 0x29 DUP4 PUSH2 0x2248 JUMP JUMPDEST SWAP2 POP PUSH2 0x3789 DUP3 PUSH2 0x3722 JUMP JUMPDEST PUSH1 0x40 DUP3 ADD SWAP1 POP SWAP2 SWAP1 POP JUMP JUMPDEST PUSH1 0x0 PUSH1 0x20 DUP3 ADD SWAP1 POP DUP2 DUP2 SUB PUSH1 0x0 DUP4 ADD MSTORE PUSH2 0x37AD DUP2 PUSH2 0x3771 JUMP JUMPDEST SWAP1 POP SWAP2 SWAP1 POP JUMP JUMPDEST PUSH1 0x0 PUSH2 0x37C0 DUP3 DUP6 PUSH2 0x2CE2 JUMP JUMPDEST SWAP2 POP PUSH2 0x37CC DUP3 DUP5 PUSH2 0x2CE2 JUMP JUMPDEST SWAP2 POP DUP2 SWAP1 POP SWAP4 SWAP3 POP POP POP JUMP JUMPDEST PUSH1 0x0 PUSH2 0x37E3 DUP3 PUSH2 0x22F8 JUMP JUMPDEST SWAP2 POP PUSH2 0x37EE DUP4 PUSH2 0x22F8 JUMP JUMPDEST SWAP3 POP DUP3 DUP3 LT ISZERO PUSH2 0x3801 JUMPI PUSH2 0x3800 PUSH2 0x3318 JUMP JUMPDEST JUMPDEST DUP3 DUP3 SUB SWAP1 POP SWAP3 SWAP2 POP POP JUMP JUMPDEST PUSH32 0x4E487B7100000000000000000000000000000000000000000000000000000000 PUSH1 0x0 MSTORE PUSH1 0x12 PUSH1 0x4 MSTORE PUSH1 0x24 PUSH1 0x0 REVERT JUMPDEST PUSH1 0x0 PUSH2 0x3846 DUP3 PUSH2 0x22F8 JUMP JUMPDEST SWAP2 POP PUSH2 0x3851 DUP4 PUSH2 0x22F8 JUMP JUMPDEST SWAP3 POP DUP3 PUSH2 0x3861 JUMPI PUSH2 0x3860 PUSH2 0x380C JUMP JUMPDEST JUMPDEST DUP3 DUP3 MOD SWAP1 POP SWAP3 SWAP2 POP POP JUMP JUMPDEST PUSH1 0x0 PUSH2 0x3877 DUP3 PUSH2 0x22F8 JUMP JUMPDEST SWAP2 POP PUSH2 0x3882 DUP4 PUSH2 0x22F8 JUMP JUMPDEST SWAP3 POP DUP3 PUSH2 0x3892 JUMPI PUSH2 0x3891 PUSH2 0x380C JUMP JUMPDEST JUMPDEST DUP3 DUP3 DIV SWAP1 POP SWAP3 SWAP2 POP POP JUMP JUMPDEST PUSH1 0x0 PUSH2 0x38A8 DUP3 PUSH2 0x22F8 JUMP JUMPDEST SWAP2 POP PUSH2 0x38B3 DUP4 PUSH2 0x22F8 JUMP JUMPDEST SWAP3 POP DUP2 PUSH32 0xFFFFFFFFFFFFFFFFFFFFFFFFFFFFFFFFFFFFFFFFFFFFFFFFFFFFFFFFFFFFFFFF DIV DUP4 GT DUP3 ISZERO ISZERO AND ISZERO PUSH2 0x38EC JUMPI PUSH2 0x38EB PUSH2 0x3318 JUMP JUMPDEST JUMPDEST DUP3 DUP3 MUL SWAP1 POP SWAP3 SWAP2 POP POP JUMP JUMPDEST PUSH32 0x45524337323155524953746F726167653A2055524920736574206F66206E6F6E PUSH1 0x0 DUP3 ADD MSTORE PUSH32 0x6578697374656E7420746F6B656E000000000000000000000000000000000000 PUSH1 0x20 DUP3 ADD MSTORE POP JUMP JUMPDEST PUSH1 0x0 PUSH2 0x3953 PUSH1 0x2E DUP4 PUSH2 0x2248 JUMP JUMPDEST SWAP2 POP PUSH2 0x395E DUP3 PUSH2 0x38F7 JUMP JUMPDEST PUSH1 0x40 DUP3 ADD SWAP1 POP SWAP2 SWAP1 POP JUMP JUMPDEST PUSH1 0x0 PUSH1 0x20 DUP3 ADD SWAP1 POP DUP2 DUP2 SUB PUSH1 0x0 DUP4 ADD MSTORE PUSH2 0x3982 DUP2 PUSH2 0x3946 JUMP JUMPDEST SWAP1 POP SWAP2 SWAP1 POP JUMP JUMPDEST PUSH32 0x4552433732313A207472616E736665722066726F6D20696E636F727265637420 PUSH1 0x0 DUP3 ADD MSTORE PUSH32 0x6F776E6572000000000000000000000000000000000000000000000000000000 PUSH1 0x20 DUP3 ADD MSTORE POP JUMP JUMPDEST PUSH1 0x0 PUSH2 0x39E5 PUSH1 0x25 DUP4 PUSH2 0x2248 JUMP JUMPDEST SWAP2 POP PUSH2 0x39F0 DUP3 PUSH2 0x3989 JUMP JUMPDEST PUSH1 0x40 DUP3 ADD SWAP1 POP SWAP2 SWAP1 POP JUMP JUMPDEST PUSH1 0x0 PUSH1 0x20 DUP3 ADD SWAP1 POP DUP2 DUP2 SUB PUSH1 0x0 DUP4 ADD MSTORE PUSH2 0x3A14 DUP2 PUSH2 0x39D8 JUMP JUMPDEST SWAP1 POP SWAP2 SWAP1 POP JUMP JUMPDEST PUSH32 0x4552433732313A207472616E7366657220746F20746865207A65726F20616464 PUSH1 0x0 DUP3 ADD MSTORE PUSH32 0x7265737300000000000000000000000000000000000000000000000000000000 PUSH1 0x20 DUP3 ADD MSTORE POP JUMP JUMPDEST PUSH1 0x0 PUSH2 0x3A77 PUSH1 0x24 DUP4 PUSH2 0x2248 JUMP JUMPDEST SWAP2 POP PUSH2 0x3A82 DUP3 PUSH2 0x3A1B JUMP JUMPDEST PUSH1 0x40 DUP3 ADD SWAP1 POP SWAP2 SWAP1 POP JUMP JUMPDEST PUSH1 0x0 PUSH1 0x20 DUP3 ADD SWAP1 POP DUP2 DUP2 SUB PUSH1 0x0 DUP4 ADD MSTORE PUSH2 0x3AA6 DUP2 PUSH2 0x3A6A JUMP JUMPDEST SWAP1 POP SWAP2 SWAP1 POP JUMP JUMPDEST PUSH32 0x4552433732313A20617070726F766520746F2063616C6C657200000000000000 PUSH1 0x0 DUP3 ADD MSTORE POP JUMP JUMPDEST PUSH1 0x0 PUSH2 0x3AE3 PUSH1 0x19 DUP4 PUSH2 0x2248 JUMP JUMPDEST SWAP2 POP PUSH2 0x3AEE DUP3 PUSH2 0x3AAD JUMP JUMPDEST PUSH1 0x20 DUP3 ADD SWAP1 POP SWAP2 SWAP1 POP JUMP JUMPDEST PUSH1 0x0 PUSH1 0x20 DUP3 ADD SWAP1 POP DUP2 DUP2 SUB PUSH1 0x0 DUP4 ADD MSTORE PUSH2 0x3B12 DUP2 PUSH2 0x3AD6 JUMP JUMPDEST SWAP1 POP SWAP2 SWAP1 POP JUMP JUMPDEST PUSH32 0x4552433732313A207472616E7366657220746F206E6F6E204552433732315265 PUSH1 0x0 DUP3 ADD MSTORE PUSH32 0x63656976657220696D706C656D656E7465720000000000000000000000000000 PUSH1 0x20 DUP3 ADD MSTORE POP JUMP JUMPDEST PUSH1 0x0 PUSH2 0x3B75 PUSH1 0x32 DUP4 PUSH2 0x2248 JUMP JUMPDEST SWAP2 POP PUSH2 0x3B80 DUP3 PUSH2 0x3B19 JUMP JUMPDEST PUSH1 0x40 DUP3 ADD SWAP1 POP SWAP2 SWAP1 POP JUMP JUMPDEST PUSH1 0x0 PUSH1 0x20 DUP3 ADD SWAP1 POP DUP2 DUP2 SUB PUSH1 0x0 DUP4 ADD MSTORE PUSH2 0x3BA4 DUP2 PUSH2 0x3B68 JUMP JUMPDEST SWAP1 POP SWAP2 SWAP1 POP JUMP JUMPDEST PUSH1 0x0 DUP2 MLOAD SWAP1 POP SWAP2 SWAP1 POP JUMP JUMPDEST PUSH1 0x0 DUP3 DUP3 MSTORE PUSH1 0x20 DUP3 ADD SWAP1 POP SWAP3 SWAP2 POP POP JUMP JUMPDEST PUSH1 0x0 PUSH2 0x3BD2 DUP3 PUSH2 0x3BAB JUMP JUMPDEST PUSH2 0x3BDC DUP2 DUP6 PUSH2 0x3BB6 JUMP JUMPDEST SWAP4 POP PUSH2 0x3BEC DUP2 DUP6 PUSH1 0x20 DUP7 ADD PUSH2 0x2259 JUMP JUMPDEST PUSH2 0x3BF5 DUP2 PUSH2 0x228C JUMP JUMPDEST DUP5 ADD SWAP2 POP POP SWAP3 SWAP2 POP POP JUMP JUMPDEST PUSH1 0x0 PUSH1 0x80 DUP3 ADD SWAP1 POP PUSH2 0x3C15 PUSH1 0x0 DUP4 ADD DUP8 PUSH2 0x238D JUMP JUMPDEST PUSH2 0x3C22 PUSH1 0x20 DUP4 ADD DUP7 PUSH2 0x238D JUMP JUMPDEST PUSH2 0x3C2F PUSH1 0x40 DUP4 ADD DUP6 PUSH2 0x24A3 JUMP JUMPDEST DUP2 DUP2 SUB PUSH1 0x60 DUP4 ADD MSTORE PUSH2 0x3C41 DUP2 DUP5 PUSH2 0x3BC7 JUMP JUMPDEST SWAP1 POP SWAP6 SWAP5 POP POP POP POP POP JUMP JUMPDEST PUSH1 0x0 DUP2 MLOAD SWAP1 POP PUSH2 0x3C5B DUP2 PUSH2 0x21AE JUMP JUMPDEST SWAP3 SWAP2 POP POP JUMP JUMPDEST PUSH1 0x0 PUSH1 0x20 DUP3 DUP5 SUB SLT ISZERO PUSH2 0x3C77 JUMPI PUSH2 0x3C76 PUSH2 0x2178 JUMP JUMPDEST JUMPDEST PUSH1 0x0 PUSH2 0x3C85 DUP5 DUP3 DUP6 ADD PUSH2 0x3C4C JUMP JUMPDEST SWAP2 POP POP SWAP3 SWAP2 POP POP JUMP JUMPDEST PUSH32 0x4552433732313A206D696E7420746F20746865207A65726F2061646472657373 PUSH1 0x0 DUP3 ADD MSTORE POP JUMP JUMPDEST PUSH1 0x0 PUSH2 0x3CC4 PUSH1 0x20 DUP4 PUSH2 0x2248 JUMP JUMPDEST SWAP2 POP PUSH2 0x3CCF DUP3 PUSH2 0x3C8E JUMP JUMPDEST PUSH1 0x20 DUP3 ADD SWAP1 POP SWAP2 SWAP1 POP JUMP JUMPDEST PUSH1 0x0 PUSH1 0x20 DUP3 ADD SWAP1 POP DUP2 DUP2 SUB PUSH1 0x0 DUP4 ADD MSTORE PUSH2 0x3CF3 DUP2 PUSH2 0x3CB7 JUMP JUMPDEST SWAP1 POP SWAP2 SWAP1 POP JUMP JUMPDEST PUSH32 0x4552433732313A20746F6B656E20616C7265616479206D696E74656400000000 PUSH1 0x0 DUP3 ADD MSTORE POP JUMP JUMPDEST PUSH1 0x0 PUSH2 0x3D30 PUSH1 0x1C DUP4 PUSH2 0x2248 JUMP JUMPDEST SWAP2 POP PUSH2 0x3D3B DUP3 PUSH2 0x3CFA JUMP JUMPDEST PUSH1 0x20 DUP3 ADD SWAP1 POP SWAP2 SWAP1 POP JUMP JUMPDEST PUSH1 0x0 PUSH1 0x20 DUP3 ADD SWAP1 POP DUP2 DUP2 SUB PUSH1 0x0 DUP4 ADD MSTORE PUSH2 0x3D5F DUP2 PUSH2 0x3D23 JUMP JUMPDEST SWAP1 POP SWAP2 SWAP1 POP JUMP INVALID COINBASE TIMESTAMP NUMBER DIFFICULTY GASLIMIT CHAINID SELFBALANCE BASEFEE 0x49 0x4A 0x4B 0x4C 0x4D 0x4E 0x4F POP MLOAD MSTORE MSTORE8 SLOAD SSTORE JUMP JUMPI PC MSIZE GAS PUSH2 0x6263 PUSH5 0x6566676869 PUSH11 0x6B6C6D6E6F707172737475 PUSH23 0x7778797A303132333435363738392B2FA2646970667358 0x22 SLT KECCAK256 DIFFICULTY SWAP16 SWAP5 0x1E GT 0x1F EXTCODESIZE 0xCA SWAP2 0xBE 0xEC BYTE 0x4C 0x2A PUSH30 0xFE8F27364B4CEB953BF4B06E0063E8CCEA64736F6C634300080A00330000 "},"methodIdentifiers":{"approve(address,uint256)":"095ea7b3","balanceOf(address)":"70a08231","createRandom(uint256)":"e09a0f9b","generateCharacter(uint256)":"0daefed5","getApproved(uint256)":"081812fc","getLevels(uint256)":"f43785f9","getLife(uint256)":"11251f1c","getSpeed(uint256)":"4b93f753","getStregth(uint256)":"def301b1","getTokenURI(uint256)":"3bb3a24d","isApprovedForAll(address,address)":"e985e9c5","mint()":"1249c58b","name()":"06fdde03","ownerOf(uint256)":"6352211e","safeTransferFrom(address,address,uint256)":"42842e0e","safeTransferFrom(address,address,uint256,bytes)":"b88d4fde","setApprovalForAll(address,bool)":"a22cb465","supportsInterface(bytes4)":"01ffc9a7","symbol()":"95d89b41","tokenIdToStats(uint256)":"c87bfc7f","tokenURI(uint256)":"c87b56dd","train(uint256)":"368004ed","transferFrom(address,address,uint256)":"23b872dd"}}}}}